:020000040800F2
:100000000808002001010008513B0008712F00087A
:10001000793A0008BD0D0008B94200080000000050
:100020000000000000000000000000005D3F00082C
:10003000BF0D000800000000453D00085F3F0008BC
:100040001B0100081B0100081B0100081B01000820
:100050001B0100081B0100081B0100081B01000810
:100060001B0100081B0100081B0100081B01000800
:100070001B0100081B0100081B0100081B010008F0
:100080001B0100081B0100081B0100081B010008E0
:100090001B0100081B0100081B010008E70D0008F8
:1000A0001B010008ED3F00081B0100081B010008B0
:1000B0001B010008F93F00081B0100081B01000894
:1000C0001B0100081B0100081B0100081B010008A0
:1000D0001B0100081B010008754200081B010008F5
:1000E000C10D00081B0100081B010008DFF80CD03F
:1000F00000F064FC00480047B555000808080020DF
:100100000648804706480047FEE7FEE7FEE7FEE7B1
:10011000FEE7FEE7FEE7FEE7FEE7FEE7E93F000851
:10012000ED000008202A04DB203A21FA02F0002129
:10013000704721FA02F3D040C2F1200291400843F7
:100140001946704738B5D0E90221491E01EB41013B
:1001500002EBC1014268C1EB011102EB81010268AF
:10016000C1EB011102EB8102D0E9043101EB410145
:1001700003EB81013023A1F5527191FBF3F4174D8C
:100180006C4302EBC41291FBF3F403FB14110092D5
:100190001A2902DB124B1A4400920C2291FBF2F353
:1001A000104C6343009C04EBC313009391FBF2F3E8
:1001B00002FB13110C4A08E0491E40F2A324535CD1
:1001C0006343009C04EBC31300930029F4DC014655
:1001D000684600F0E9FA009838BD00003F0C0F00B7
:1001E0008051010067C203009065000840EA0103E6
:1001F0009B0703D009E008C9121F08C0042AFAD2DD
:1002000003E011F8013B00F8013B521EF9D27047A0
:10021000D2B201E000F8012B491EFBD27047002248
:10022000F6E710B513460A4604461946FFF7F0FFF5
:10023000204610BD80EA010210B502F000434000E4
:1002400022D04A001FD0010E01EB1261C0F356000C
:10025000C2F3560240F4000042F40002A0FB022068
:1002600000047F39140400D0401C50EA124001D42D
:100270004000491EC2B20C0604EBD010401C4008DE
:10028000802A02D003E0002010BD20F001000029E8
:1002900000DA0020184310BD30B480EA010202F0F9
:1002A000004530F0004221F0004013D090B1C30D62
:1002B000D40DC2F31601C0F31600E41A41F4000194
:1002C00040F400027D34914201D3641C00E04900F7
:1002D000002C02DA30BC002070474FF400000023ED
:1002E000914201D3891A034340084FEA4101F7D1F3
:1002F00051B1914202D14FF0004105E002D24FF0DE
:10030000010101E06FF0010103EBC450284430BC4F
:1003100000F090BA2DE9FE4F804681EA0300C00F3D
:100320000C46009021F0004123F00045B8EB02009C
:10033000A94105D24046214690461C460B4602463E
:1003400023F00040104347D0270DC7F30A00C3F342
:100350000A510290401A019040286BDAC3F313004F
:1003600040F4801B0098924620B10023D2EB030A90
:1003700063EB0B0B01985946C0F14002504600F068
:10038000F1F906460D4650465946019A00F0F9F932
:1003900010EB08006141002487EA115284EAE773F8
:1003A0001A4340D0009A62B3019A012A4FEA0752D9
:1003B00015DC001B61EB02014FF0004202EA07521C
:1003C000CDE90042001C41F5801132462B4600F079
:1003D00077FA03B0BDE8F08F40462146F9E7001BED
:1003E00061EB0201001C41F5801300185B412018ED
:1003F000A2F5001747EB030140EAD570B6196D412D
:1004000011E06D084FEA360645EAC0754FEA07521B
:10041000001B61EB0201001C41F5801149084FEA05
:1004200030000019514132462B4603B0BDE8F04F71
:1004300000F037BA0098012240000023D0EB0202FE
:1004400063EBE073009821464FEAE074B8EB0000DC
:1004500061EB0401E9E783F000435BE781F00041D1
:1004600058E72DE9FE4F81EA030404F0004421F02F
:10047000004100944FF0000B23F0004350EA0104C8
:100480005ED052EA03045BD0C3F30A54C1F30A55A9
:100490002C44A4F2F3340194A0FB0254C1F31301E1
:1004A00041F48011C3F3130343F4801301FB0244AE
:1004B00000FB034E840A970A44EA815447EA8357B3
:1004C000A4FB076802958D0A05FB07854FEA932C6C
:1004D00004FB0C542705029D4FEA065847EA1637DD
:1004E000B5EB08056EEB070C870E920E47EA8117F5
:1004F00042EA8312A7FB0201B6EB0B0164EB000496
:100500002B0D43EA0C335E1844EB1C50DA4651467F
:10051000E7FB0201C5F313044FEA0B3343EA14531C
:100520004FEA0432019C43EA0603A4F10C0402944E
:10053000009CCDE900B400F0C3F903B0BDE8F08F32
:1005400000200146F9E72DE9F04D81EA030404F0AB
:10055000004B21F0004514464FF0000A23F0004103
:1005600050EA050220D054EA01021DD0C5F30A5713
:100570000246C5F31303C1F31300C1F30A5640F456
:10058000801543F48013A7EB0608101BD64608F22B
:10059000FD3873EB050002D308F1010801E0921861
:1005A0005B41B8F1000F03DA00200146BDE8F08D91
:1005B00000204FF48011064684460EE0171B73EBB3
:1005C000050705D3121B63EB050306434CEA010C38
:1005D00049084FEA300092185B4150EA0107EDD11B
:1005E00052EA030012D082EA040083EA05010843BC
:1005F00005D0101BAB4106D20122002306E00022E9
:100600004FF0004302E06FF0010253101AEB0600B6
:100610004CEB085110EB0A0041EB0B01BDE8F04D2B
:1006200000F03FB970B521F0004303430CD0C1F393
:100630000A550024D5EB040564EB0403D617AD1A64
:10064000B34102DB0020014670BD201841EB02518E
:1006500070BD96230022114600F0F5B80EB540F2A9
:10066000334102910021CDE900110A460B4600F00A
:1006700027F903B000BD20F00040C10DC0F3160003
:1006800040F400007F2901DA00207047962903DC3E
:10069000C1F19601C840704796398840704701F013
:1006A000004330B421F0004150EA010206D00A0DA7
:1006B000A2F56072C1F31301002A02DC30BC0020F5
:1006C0007047440F44EAC104C100E01830BC00EB9D
:1006D000C25000F0AFB830B50B46014600202022D2
:1006E000012409E021FA02F59D4205D303FA02F53F
:1006F000491B04FA02F52844151EA2F10102F1DC9F
:1007000030BD2DE9F05F0546002092469B468846A5
:100710000646814640241BE028464146474622467D
:10072000FFF700FD53465A46C01A914110D31146B7
:100730001846224600F016F82D1A67EB01084F46BE
:1007400022460120002100F00DF817EB00094E4170
:10075000201EA4F10104DFDC484631462A46434608
:10076000BDE8F09F202A04DB203A00FA02F10020C5
:1007700070479140C2F1200320FA03F319439040DF
:100780007047202A06DBCB17203A41FA02F043EAF1
:10079000E07306E041FA02F3D040C2F1200291403A
:1007A000084319467047000010B500683C22B0FBB2
:1007B000F2F302FB1303B0FBF2F00B60B0FBF2F3B9
:1007C00002FB1303B0FBF2F018224B60B0FBF2F314
:1007D00002FB1303B0FBF2F0021D8B600723B2FB98
:1007E000F3F403FB1422800040F2B55300F66C30A2
:1007F0008A61B0FBF3F2B0FBF3F403FB1400443264
:1008000080084A61C8613B2802D3920700D0401C8F
:100810000022074C13460A61E25C824203D8801A28
:100820005B1C0B61F8E7401CC860084610BD000067
:100830009C6500080029A8BF7047401C490008BFFC
:1008400020F00100704710B4B0FA80FC00FA0CF000
:1008500050EA010404BF10BC704749B1CCF1200438
:1008600021FA04F411FA0CF118BF012121430843C5
:10087000A3EB0C01CB1D4FEA00614FEA102042BFF1
:10088000002010BC704700EBC35010440029A4BFE7
:1008900010BC7047401C490008BF20F0010010BC8C
:1008A000704710B5141E73F1000408DA401C41F1C2
:1008B000000192185B411A4301D120F0010010BDE4
:1008C0002DE9F04D92469B4611B1B1FA81F202E05A
:1008D000B0FA80F220329046FFF744FF04460F46FC
:1008E00040EA0A0041EA0B0153465A46084313D036
:1008F000114653EA010019D0C8F140025046FFF7F3
:1009000011FC05460E46504659464246FFF72AFF5F
:10091000084305D0012004E020463946BDE8F08DAB
:100920000020054346EAE0762C4337430A986305E6
:10093000E40AA0EB08000022FD0A44EA47540A300A
:1009400002D500200146E9E7010510196941DDE9FA
:10095000084500196941BDE8F04DA2E7C1F30A520C
:10096000C1F3130140F2FF3341F480119A4202DADD
:1009700000200146704740F233439A42A2F23342CC
:1009800002DC5242FFF7CEBBFFF7ECBE30B5041ECF
:1009900071F1000404DB4FF00044404264EB0101BC
:1009A000141E73F1000405DB1C464FF00043524255
:1009B00063EB0403994208BF904230BD064C074DDB
:1009C00006E0E06840F0010394E80700984710341F
:1009D000AC42F6D3FFF78EFBA8650008C865000897
:1009E00070B5044600688168C943C90717D181689A
:1009F00021F00101816000F04DFE05460AE000BFD4
:100A000000F048FE401B022804D920688068C043DB
:100A1000C00706D020688068C043C007F0D000201F
:100A200070BDA06A40F01000A062E06A40F00100D2
:100A3000E062012070BD0000F8B500260446009673
:100A400000688168C943C9072DD0816841F0010160
:100A50008160164816490068B0FBF1F000E0401EC6
:100A600000900028FBD100F015FE054616E000BFFF
:100A700000F010FE401B022810D920688068C04397
:100A8000C0070BD0A06A40F01000A062E06A40F0FE
:100A90000100E06284F824600120F8BD20688068CD
:100AA000C043C007E4D10020F8BD000000010020D1
:100AB00040420F002DE9FE4F012607270096002532
:100AC00069463C48CDE9016700F006FA08B100F03C
:100AD00094F90024374800F0D9FB6421354800F030
:100AE00037FB18B9334800F075FA0544641CE4B2CA
:100AF0000A2CEFD30A24B5FBF4F0FFF7AFFDDFF8C3
:100B0000B8A04FF066394A465346FFF7AAFCDFF813
:100B1000ACB000225B46FFF716FDFFF7C0FD284989
:100B2000FFF788FBFFF7A7FDDFF8988000256946EF
:100B3000A8F80C0010208DE8C1001E4800F0CCF988
:100B400008B100F05AF900264FF47A77194800F0FE
:100B50009DFB3946174800F0FBFA18B9154800F01C
:100B600039FA0544761CF6B20A2EEFD3B5FBF4F041
:100B7000FFF774FD4A465346FFF773FC00225B46BD
:100B8000FFF7E1FC104A114BFFF768FC104A114BCC
:100B9000FFF7D9FC0022104BFFF7BCFBFFF77FFDEE
:100BA0000749FFF747FBFFF766FDA8F80E00BDE811
:100BB000FE8F00000801002066660A4000FEAF407C
:100BC0000000C842E0030020E17A14AE47E1F63F9E
:100BD00022FDF675E09C713F000039401CB5BE2037
:100BE0008DF8040008208DF8050000208DF806001F
:100BF0004FF6FF700090032301AA7021014800F016
:100C00003BFF1CBD380100201CB5282000F09EFBD6
:100C1000BE208DF8040008208DF8050000208DF816
:100C200006004FF6FF700090032301AA70210548CB
:100C300000F022FF00F0A2F8000701D4FFF7CEFF7A
:100C40001CBD00003801002070B500F019F80A4CF6
:100C5000084E31466068FFF7EDFAFFF70CFD074DCF
:100C6000314668802068FFF7E5FAFFF704FDA880A9
:100C700070BD00000000C84200000020E00300201A
:100C800070B586B000208DF800008DF800008DF85A
:100C900000008DF800008DF800008DF80000AC21F8
:100CA0008DF80C1033218DF80D1004468DF80E00D0
:100CB0004FF6FF75032303AA70212B48009500F01F
:100CC000DBFE502000F042FB07E0012000F03EFB7D
:100CD0002046641CA4B2642803D200F04FF800063A
:100CE000F3D4062301AA70211F48009500F09CFD53
:100CF0009DF805009DF806109DF8074041EA002187
:100D000044EA01200009FFF7A9FC0022174BFFF776
:100D1000A8FB6FF009063246FFF784FC3246FFF766
:100D200081FCFFF7BCFC124D28609DF808109DF86F
:100D3000090041EA042140EA0120C0F31300FFF753
:100D40008DFC00220B4BFFF78CFB3246FFF76AFC51
:100D50003246FFF767FC0022074BFFF77CFBFFF7EB
:100D60009EFC686006B070BD38010020000059404C
:100D70000000002000006940000049401CB54FF60B
:100D8000FF700090012301AA7021034800F04CFD80
:100D90009DF804001CBD000038010020064B4FF4F4
:100DA0000051012805D0002805D10022184600F086
:100DB0006BBC0122FAE7704700100140FEE7704764
:100DC00010B54FF4805000F063FB4FF4005000F07A
:100DD0005FFB4FF4804000F05BFBBDE810404FF438
:100DE000004000F055BB10B5202000F051FBBDE8DD
:100DF00010404FF4807000F04BBB72B6FEE700006D
:100E0000F8B500250446009590F8240001280BD081
:100E1000012084F824002046FFF7E2FD2046FFF77A
:100E20000BFE060002D050E00220F8BDA06A20F4BC
:100E3000885040F00200A062022001F045F92549E7
:100E40000968B1FBF0F0400000E0401E009000286F
:100E5000FBD12068816841F00801816000F01AFC34
:100E6000074608E000F016FCC01B0A2803D92068DA
:100E70008068000715D4206880680007F2D42068D5
:100E8000816841F00401816000F004FC074612E033
:100E900000F000FCC01B0A280DD9206880684007BC
:100EA00009D5A06A20F0020040F01000A06284F88A
:100EB00024500120F8BD206880684007E8D4A06A6B
:100EC00020F0020040F00100A06284F82450304677
:100ED000F8BD000000010020F8B50024009490F84F
:100EE00024202546012A12D0012280F824204A68B5
:100EF0001F23072A0DD20668776B521E02EB82026F
:100F000093409F430B6893401F43776319E002208F
:100F1000F8BD06680D2A0AD2376BD21F02EB820297
:100F200093409F430B6893401F43376309E0F76A80
:100F30000D3A02EB820293409F430B6893401F439C
:100F4000F7620A68072306680A2A0AD3F7680A3A8A
:100F500002EB420293409F438B6893401F43F7602C
:100F600008E0376902EB420293409F438B6893404D
:100F70001F4337610A68102A01D0112A20D1124B71
:100F800002689A4217D193681B0219D4936843F4FC
:100F9000000393600968102912D10C490C4A0968B2
:100FA000B1FBF2F101EB8101490000E0491E009123
:100FB0000029FBD104E0816A41F020018162012413
:100FC00080F824502046F8BD002401400001002094
:100FD00040420F000068C06C704700002DE9F041EE
:100FE0004FF0000704003D467ED0A06A002628B9D5
:100FF000E66284F82460204600F07EF82046FFF781
:10100000EFFCA16AC90600D420B1A06A40F010002C
:10101000A06269E0A16A21F4885141F00201A16255
:101020006268E169237B0A4347EA43010A43A168F6
:101030004FF48077B94209D0012907D05FF0000151
:1010400094F814C0BCF1010F02D00AE03946F7E76A
:10105000F3B1A36A43F02003A362E36A43F0010300
:10106000E3622368D3F804C02CF4694C4CEA010C09
:10107000C3F804C021688B68DFF870C003EA0C0372
:1010800013438B60A168B9420BD0012909D00CE051
:10109000DFF85CC0A3690CEB43330B4343F40061FE
:1010A000DFE7218A0D05A5F580152168CB6A23F4B9
:1010B00070032B43CB62216889680E4B1940914223
:1010C00008D1E662A16A21F0020141F00101A162AA
:1010D000BDE8F081A06A20F0020040F01000A0629C
:1010E000E06A40F00100E0620120F1E7FDF7E1FF76
:1010F00000E0FFFFFE0E1FFF00B585B0002100914C
:1011000001910291039100680E49884218D10E485E
:10111000816941F400718161816901F40071049178
:10112000816941F0040181618069694600F0040031
:1011300004900220009003200190044800F0B4F9CC
:1011400005B000BD0024014000100240000801402D
:101150002DE9F84300270D460446009700F09AFA5F
:10116000804620688168C90508D5A06A40F0200043
:10117000A06284F824700120BDE8F8834168C905A5
:1011800003D4C06A10F4700F2AD0022000F09CFF34
:101190003B490968B1FBF0F62068036939490B4205
:1011A0004FEA61014FEAA1121FD1C3684FEA611CE7
:1011B00013EA0C0F19D103690B4225D1C068104204
:1011C00022D1142023E0681C0AD02DB100F062FA6D
:1011D000A0EB0800A84203D920680068800725D545
:1011E000206800688007EED52DE003690B4202D12C
:1011F000C168114206D0026923490A4206D1C0687B
:10120000084203D1542002E0292000E0FC2046439C
:10121000009816E0681C11D02DB100F03BFAA0EB4D
:101220000800A8420AD90098B04207D2A06A40F04C
:101230000400A06284F8247003209DE70098401CFD
:101240000090B042E6D321686FF012000860A06AF7
:1012500040F40070A06220688068C0F34240072814
:101260000CD1207B50B9A06A20F48070A062A06AE3
:10127000C00403D4A06A40F00100A06200207BE714
:1012800000010020244992244992240070B50446AC
:1012900090F8240001280DD0012084F82400204675
:1012A000FFF7CAFB02004FF0000005D084F82400CD
:1012B000104670BD022070BDA16A40F2012399431F
:1012C00041F48071A1621F4D23681F49AB4218D1C0
:1012D0000E6816F4702F14D0A66A46F48016A66223
:1012E0000E68760505D5A66A26F4005646F48056A3
:1012F000A662A66AF6040AD5E66A26F00606E66243
:1013000006E0A66A26F48016A6625E68E9E7E06257
:1013100084F824006FF00200186020688368C3F32B
:101320004243072B05D1A84208D1096811F4702F58
:1013300004D0816841F480118160B9E7816841F48B
:10134000A001F9E7002801400424014070B50446DB
:1013500000F0A0F90546601C02D00448007804445F
:1013600000F098F9401BA042FAD370BDF4000020B1
:10137000264910B50B68264A14681B1BC82B44D39A
:101380000968244C1160B0F5005F17D0B0F5804FAC
:101390001CD0202822D0B0F5004F27D0B0F5805FB8
:1013A0002CD0B0F5807F30D10020FFF7F7FC06206D
:1013B000207019A0BDE8104002F0B8BF0121084616
:1013C00002F074F90120207018A0F3E70021012039
:1013D00002F06CF90220207019A0EBE70121022035
:1013E00002F064F9032020701AA0E3E70021022034
:1013F00002F05CF9042020701BA0DBE70120FFF75E
:10140000CDFC052020701DA0D4E710BDFC000020FD
:101410000C0000200B0000204B6579204553432031
:101420002020507265737365640A00004B65792053
:101430005570202020507265737365640A000000A7
:101440004B657920446F776E2050726573736564C5
:101450000A0000004B6579204C6566742050726567
:10146000737365640A0000004B65792052696768F0
:101470007420507265737365640A00004B657920AF
:101480004F4B20202020507265737365640A000062
:10149000044910B50A68024202D00860FFF768FFED
:1014A00010BD0000140401402DE9F84FDFF8B89199
:1014B0000024A9F1040B23460F2709F1040AABF11C
:1014C000040EC9E00125A5402A40AA427DD1674EFD
:1014D000D1F804C0ACEB0608B44532D014DCBCF142
:1014E000030F3AD009DCBCF1000F2AD0BCF1010F88
:1014F0001CD0BCF1020F31D11DE0BCF1110F17D08F
:10150000BCF1120F2AD119E0B8F5881F19D006DCFA
:10151000B8F5803F15D0B8F5801F1FD111E0B8F5A0
:10152000001F0ED0B8F5041F18D10AE0CB6815E0F3
:10153000CB681B1D12E0CB6808330FE0CB680C337F
:101540000CE08B682BB1012B4FF0080303D04561F1
:1015500004E0042302E0056100E00023FF2A01D833
:10156000064601E000F104064FEA840501D9A5F121
:101570002005D6F8008007FA05FC28EA0C0803FAD3
:1015800005F548EA0508C6F800804D68ED0062D50B
:10159000374DAE6946F00106AE61AD6924F0030631
:1015A00005F001050095334D06EB050CDCF80850FD
:1015B000A607360F07FA06F825EA0805DFF8B8800F
:1015C000404503D14FF0000817E044E0DFF8AC805D
:1015D000404502D14FF001080FE0DFF8A4804045FC
:1015E00002D14FF0020808E0DFF89880404502D1B0
:1015F0004FF0030801E04FF0040808FA06F848EA43
:101600000508CCF808804D68D9F80060ED024D4619
:1016100001D5164300E096432E604D68DAF800606D
:10162000AD02554601D5164300E096432E604D6845
:10163000DBF80060AD035D4601D5164300E096433C
:101640002E604D68DEF80060ED03754601D5164347
:1016500000E096432E60641C0D682A46E5407FF446
:1016600031AFBDE8F88F0000080401400000111000
:10167000001002400000014000080140000C014041
:1016800000100140001401400AB1016170470904D3
:10169000FBE700000148806870470000F40000206C
:1016A00070B5040025D094F83D00002520B984F8D9
:1016B0003C50204600F03CFC242084F83D0020688B
:1016C000016821F0010101602068016841F40041D6
:1016D00001602068016821F40041016000F052FEC1
:1016E0004D4A6168914201D84C4900E04C4988421A
:1016F00001D2012070BD4B492368B0FBF1F15E6857
:1017000026F03F060E435E606368934206D94FF4AD
:10171000967359434FF47A73B1FBF3F12368491C74
:101720001E6A26F03F06314319626168914210D863
:101730004900401EB0FBF1F2521CC2F30B02042A16
:1017400001D2042022E0B0FBF1F0401CC0F30B00FA
:101750001CE0A268F2B301EBC10303EB0116431EC8
:10176000B3FBF6F35B1C43F480431B0549D092B3F3
:1017700001EBC10202EB0111401EB0FBF1F0401C75
:10178000C0F30B0040F4804040F400402168CA6977
:101790004CF6FF739A431043C861D4E90710014324
:1017A0002068026822F0C00211430160D4E90301FD
:1017B00001432068826848F2FF339A4311438160F5
:1017C000D4E9050108432168CA6822F0FF021043EA
:1017D000C86001E00EE016E02068016841F00101F8
:1017E00001602564202084F83D00256384F83E5084
:1017F000002070BD01EB4106431EB3FBF6F35B1CFA
:10180000B3E70120C2E701EB4101401EB0FBF1F05C
:10181000401CC0F30B00B7E7A086010080841E00C7
:1018200000093D0040420F002DE9F84F0025DDF88A
:101830002890984617468A4604460095FFF72AFFE7
:10184000064694F83D0020287AD1192301228649C2
:101850002046009601F066FD0028F5D194F83C0082
:1018600001286DD0012084F83C0020680168C90778
:1018700003D1016841F0010101602068016821F491
:1018800000610160222084F83D00102084F83E00B1
:1018900025646762A4F82A80608D20857348E06221
:1018A00033464A465146204601F07AFB00287CD157
:1018B000208DDFF8BC81202768B1012814D00228D0
:1018C000206801681ED041F4806101602068416990
:1018D00080690090BBE020684169816900910168DE
:1018E00041F400710160B2E02068016821F4806178
:1018F000016072B62068416981690091016841F414
:1019000000710AE041F40061016072B6206841692B
:1019100081690091016821F48061016062B696E0FE
:10192000032865D801280CD002284B464FF000024E
:101930004146204600960BD001F0F4FCA8BB0CE019
:1019400090E032464946204601F092FD68BB71E0C6
:1019500001F0E8FC48BB72B633E02068016821F46E
:101960008061016072B620680069616A0870606A0F
:10197000401C6062208D401E2085608D401E608569
:101980003C4846F2A8110068B0FBF1F0C0EBC00083
:1019900000EB80000090401E009007D02068406956
:1019A000C04340070DD50098F5E727E044F8305FC5
:1019B0006773A573206940F02000206162B625732B
:1019C0001CE02068016841F4007101602068006932
:1019D000616A0870606A401C6062218D491E218521
:1019E000618D491E618562B621680969017025E033
:1019F00032464946204601F03BFD10B10120BDE8CA
:101A0000F88F20680069616A0870606A401C606233
:101A1000208D401E81B22185608D401E608520682A
:101A20004269D243520712D4032903D1016821F439
:101A30008061016020680069616A0870606A401C0A
:101A40006062208D401E2085608D401E6085208D47
:101A500000287FF465AF84F83D7084F83E5084F828
:101A60003C50CCE70220CAE7020010000000FFFF54
:101A700004000100000100202DE9F84F1F469046A8
:101A80008A460446DDF82890FFF704FE054694F8E0
:101A90003D0020287FD1192301224049204600958E
:101AA00001F040FC002876D194F83C00012872D067
:101AB000012084F83C0020680168C90703D101684F
:101AC00041F0010101602068016821F400610160BA
:101AD000212084F83D00102084F83E000026266472
:101AE000C4F824806785608D20852D48E0622B46F0
:101AF0004A465146204601F0C9FA90B9206841692A
:101B00008069009036E02A464946204601F0E8FC0C
:101B100050B1206C042804D12068016841F40071A0
:101B200001600120BDE8F88F606A216800780861D3
:101B3000606A401C6062618D491E6185218D491E6D
:101B400089B2218522685369DB435B070BD451B10D
:101B500000781061606A401C6062608D401E608584
:101B6000208D401E20852A464946204601F0AEFBC6
:101B70000028CED1208D0028C5D154F83D0B016836
:101B800041F400710160202004F81E09E6776677B1
:101B90000020C7E7FFE70220C4E7000002001000B2
:101BA0000000FFFF2DE9FF4F83B00025DDE910792C
:101BB0009A4693460446DDF848800095FFF76AFD93
:101BC000064694F83D0020287CD11923012288493B
:101BD0002046009601F0A6FB0028F5D194F83C00C1
:101BE00001286FD0012084F83C0020680168C907F3
:101BF00003D1016841F0010101602068016821F40E
:101C000000610160222084F83D00402084F83E00FD
:101C100025646762A4F82A90608D20857548E0628B
:101C2000CDE9008653465A462046049901F07CFAD5
:101C300000287CD1208DDFF8C091202768B10128D1
:101C400014D00228206801681ED041F48061016030
:101C50002068416980690090BCE020684169816921
:101C60000091016841F400710160B3E020680168EF
:101C700021F48061016072B6206841698169009138
:101C8000016841F400710AE041F40061016072B63C
:101C90002068416981690091016821F480610160D7
:101CA00062B697E0032865D801280CD00228434685
:101CB0004FF000024946204600960BD001F032FB5F
:101CC000A8BB0CE091E032464146204601F0D0FB33
:101CD00068BB72E001F026FB48BB72B633E02068B7
:101CE000016821F48061016072B620680069616A50
:101CF0000870606A401C6062208D401E2085608DE7
:101D0000401E60853D4846F2A8110068B0FBF1F026
:101D1000C0EBC00000EB80000090401E009007D098
:101D200020684069C04340070DD50098F5E727E0DB
:101D300044F8305F6773A573206940F0200020618C
:101D400062B625731CE02068016841F400710160EF
:101D500020680069616A0870606A401C6062218DB9
:101D6000491E2185618D491E618562B62168096918
:101D7000017026E032464146204601F079FB18B159
:101D8000012007B0BDE8F08F20680069616A087023
:101D9000606A401C6062208D401E81B22185608D8A
:101DA000401E608520684269D243520712D403293D
:101DB00003D1016821F48061016020680069616AD3
:101DC0000870606A401C6062208D401E2085608D16
:101DD000401E6085208D00287FF464AF84F83D703C
:101DE00084F83E5084F83C50CBE70220C9E700005D
:101DF000020010000000FFFF0400010000010020AD
:101E00002DE9FF4F83B09A46DDE9119793460446CA
:101E1000DDF84080FFF73EFC054694F83D002028A1
:101E20007FD11923012240492046009501F07AFA1A
:101E3000002876D194F83C00012872D0012084F863
:101E40003C0020680168C90703D1016841F0010125
:101E500001602068016821F400610160212084F89C
:101E60003D00402084F83E0000262664C4F824800B
:101E7000A4F82A90608D20852C48E062CDE9007599
:101E800053465A462046049901F0CCF970B930E027
:101E90002A463946204601F023FB58B1206C04281D
:101EA00004D12068016841F400710160012007B08D
:101EB000BDE8F08F606A216800780861606A401CA4
:101EC0006062218D491E89B22185628D521E628514
:101ED00022685369DB435B070BD469B1007810615A
:101EE000606A401C6062208D401E2085608D401E0F
:101EF0006085208D0028CBD12A463946204601F046
:101F0000E5F90028CAD154F83D0B016841F400718D
:101F10000160202004F81E09E67766770020C6E7F6
:101F2000FFE70220C3E70000020010000000FFFFEF
:101F300010B586B0002100910191029103910068D3
:101F40000F4988421AD10F4CA06940F00800A061E7
:101F5000A069694600F008000490C020009012209B
:101F60000190032003900848FFF79EFAE06940F4CF
:101F70000010E061E06900F40010049006B010BDAC
:101F80000054004000100240000C014002488168EB
:101F90000278114481607047F4000020074810B5B2
:101FA000016841F010010160032000F075F80F2076
:101FB00000F006F800F024F8002010BD00200240D8
:101FC00070B50D4D04464FF47A712878B1FBF0F0EE
:101FD0000A490968B1FBF0F000F0F3FC48B9102C95
:101FE00007D200222146501E00F036F800206C6017
:101FF00070BD012070BD0000F40000200001002031
:102000000C4808B5816941F001018161816901F0E5
:1020100001010091C16941F08051C161C06900F0C6
:10202000805000900448416821F0E06141F0007167
:10203000416008BD0010024000000140002809DB9B
:1020400000F01F02012191404009800000F1E020D2
:10205000C0F8001170470000F0B40E4B1B680C462E
:10206000C3F30223C3F10705042D00D90425191D6C
:10207000072901D2002300E0DB1E012606FA05F144
:10208000491E214099409E40761E16403143F0BCC7
:1020900002F05CB90CED00E0064900F007020868A8
:1020A0004FF6FF03184040EA0220034A104308603D
:1020B000704700000CED00E00000FA050149012026
:1020C0000862704700000E4210B501460020234C04
:1020D000012922D0022939D010291DD16168226836
:1020E000D20119D51E48C1F38342C903805C0AD5C9
:1020F00061681B4AC1F34041921E515C194AB2FB10
:10210000F1F1484301E0184948436168490203D4AA
:1021100040000321B0FBF1F010BD226AC2F301219F
:10212000012903D1920701D5C80310BD022905D1A9
:10213000626A920702D549F6404010BD0329FCD1DE
:1021400021688903F9D54FF2244010BD00F02AF927
:102150006168C1F38131491C4900DBE7001002408E
:102160006865000800127A0000093D002DE9F84377
:1021700005460078354CC00754D0E0690026C00001
:1021800008D4E06940F08050E061E069012600F089
:10219000805000902E480168C90512D4016880461D
:1021A00041F480710160FFF775FA074605E000BF52
:1021B000FFF770FAC01B642823D8D8F80000C005C8
:1021C000F6D5206A10F4407021D0A98801F440713E
:1021D00081421CD0206A1F49012220F440700A600D
:1021E00000220A602062C00711D0FFF753FA0746A9
:1021F00041F2883808E000BFFFF74CFAC11B4145A7
:1022000002D90320BDE8F883206A8007F4D5206A4C
:10221000696820F44070084320621EB1E06920F034
:102220008050E0612878800705D56068A96820F4AF
:102230004040084360602878C00605D56068E968BA
:1022400020F48000084360600020DBE700100240BB
:1022500000700040400442422DE9F0470F4605005F
:1022600061D0434E306800F00700B84209D23068B0
:1022700020F0070038433060306800F00700B842B3
:1022800051D128683B4C810712D5400703D56068BF
:1022900040F4E06060602878000703D5606840F48F
:1022A000605060606068A96820F0F00008436060DA
:1022B0002878C00728D06868012810D02168022833
:1022C00010D0890700292EDA616821F0030101434B
:1022D0006160FFF7DFF9804641F288390DE021683F
:1022E0008903EFE78901EDE7FFF7D4F9A0EB0801D7
:1022F000494502D90320BDE8F0876068696800F0AD
:102300000C00B0EB810FEFD1306800F00700B8424D
:102310000BD9306820F0070038433060306800F097
:102320000700B84201D00120E5E72878400705D52D
:102330006068E96820F4E06008436060287800077E
:1023400006D56068296920F4605040EAC1006060E9
:1023500000F038F86168084AC1F30311515CC840C5
:102360000649086006480068FFF72AFE0020C2E719
:1023700000200240001002407865000800010020A3
:10238000F80000200448054900684968044AC1F380
:102390000221515CC840704700010020001002403B
:1023A000886500080448054900684968044AC1F383
:1023B000C221515CC840704700010020001002405B
:1023C000886500080E4A51680E4801F00C03042B82
:1023D00011D0082B0FD10C48C1F38343C903C05C53
:1023E0000AD55168084AC1F34041921E515C054A22
:1023F0005043B0FBF1F07047044948437047000078
:102400000010024000127A005665000800093D00E5
:102410002DE9F84F040070D02078C04DC00749D096
:102420006868C0F38100012807D06868C0F38100A4
:10243000022809D16868C00306D52868800339D509
:1024400060680028E7D035E06068B0F5803F0BD0C9
:1024500010B1B0F5A02F11D0286820F4803028608A
:10246000286820F4802002E0286840F4803028604A
:10247000606890B1FFF70EF906460AE0286840F45C
:1024800080202860F0E700BFFFF704F9801B642874
:1024900073D828688003F7D50CE0FFF7FBF80646F1
:1024A00005E000BFFFF7F6F8801B6428F0D8286825
:1024B0008003F7D420789A4E80074FF001094FF03F
:1024C000000839D5686810F00C0F07D06868C0F3B1
:1024D0008100022809D16868C00306D428688007F3
:1024E00014D52069012808D110E02069B0B1C6F8E0
:1024F0000090FFF7CFF8074605E00AE1FFF7CAF8BA
:10250000C01B0228C4D828688007F7D528686169ED
:1025100020F0F80040EAC10028600DE0C6F8008015
:10252000FFF7B8F8074604E0FFF7B4F8C01B02282D
:1025300023D828688007F7D4207800072CD579485D
:10254000A169D9B1C0F80090FFF7A4F8074604E0EC
:10255000FFF7A0F8C01B02280FD8686A8007F7D5DC
:1025600071484FF4FA510068B0FBF1F0009000BFE1
:102570000098411E0091FAD20EE080E0C0F8008081
:10258000FFF788F8074604E0FFF784F8C01B02282D
:1025900075D8686A8007F7D42078400760D5E86965
:1025A0000027C00008D4E86940F08050E861E8697D
:1025B000012700F0805000905C480168C90513D4E1
:1025C0000168834641F480710160FFF763F8824639
:1025D00006E000BFFFF75EF8A0EB0A0064284ED8C3
:1025E000DBF80000C005F5D5E06801280AD008B185
:1025F000052813D0286A20F001002862286A20F0FC
:10260000040002E0286A40F001002862E06841F21C
:10261000883B98B1FFF73EF882460BE0286A40F00D
:1026200004002862EEE700BFFFF734F8A0EB0A01D0
:1026300059455AD8286A8007F6D50CE0FFF72AF8E2
:10264000824605E0FFF726F8A0EB0A0159454CD871
:10265000286A8007F6D41FB1E86920F08050E8614D
:10266000E06988B36968C1F38101022944D0022876
:10267000C6F8608004D0FFF70DF8044638E034E077
:10268000FFF708F8074604E0FFF704F8C01B02282C
:102690002BD828688001F7D4206AB0F5803F05D197
:1026A0006868A16820F4003008436860D4E9080134
:1026B0000843696821F4741108436860C6F86090A3
:1026C000FEF7E8FF044606E025E000BFFEF7E2FF64
:1026D000001B022809D828688001F7D51BE000BF3D
:1026E000FEF7D8FF001B022802D90320BDE8F88FAF
:1026F00028688001F4D40EE00128F7D06868226AC7
:1027000000F48031914204D1616A00F47010884273
:1027100001D00120EAE70020E8E7000000100240B5
:10272000000042428004424200010020007000404C
:10273000024850F8210080B270470000006C004051
:10274000024800EB810091B201607047006C0040CC
:1027500070B5040003D0607C002610B105E00120B4
:1027600070BD2674204600F03DF8022060742046BB
:1027700000F00AF9042550BB204601F0FEFA30BBF8
:102780002068416821F007014160A06820B1144829
:10279000016821F0010101601148001F0168A26871
:1027A00021F46071114301606068411C04D1012073
:1027B000FFF78AFC58B1401E2268C0F303419160C4
:1027C000216880B2C860204601F0F2FA08B1657451
:1027D000C5E7E67301206073A0736074002070BDCC
:1027E000306C004008B50068084988420DD1FFF7F9
:1027F00065FC0748C16941F00061C161C0690549D4
:1028000000F0006000900120086008BD0028004032
:10281000001002403C0442422DE9F0410D46040004
:102820003BD0C5B3207C01283AD04FF0010884F892
:10283000108002206074E87872B301F095FAE073BA
:10284000687801F091FA6073A87801F08DFAA073AE
:10285000C2B2617BE07B01F0DDFA20732870204674
:1028600001F0C8FA4FF46161B0FBF1F100251829BD
:102870002DD91822B1FBF2F1A1EB011101EB4101BD
:10288000C1EB011100EBC1163146204601F03AFBC5
:102890000427C8B90BE000E004E00120BDE8F081A6
:1028A0000220FBE7E07368786073A878CFE72046E2
:1028B00001F099FA411C0AD0B04208D206490144FD
:1028C000204601F0D2FA10B167742574E5E784F868
:1028D000118025740020E1E7805101002DE9F041CD
:1028E0000D46040024D01DB3207C012823D04FF0D6
:1028F000010884F81080022060742878EAB101F0A1
:1029000033FA4FF4616100FB01F6687801F02CFAAC
:10291000C0EB001006EB8006A87801F025FA351808
:102920002946204601F0EEFA0026042710BB0FE0EE
:102930000120BDE8F0810220FBE74FF461614843CC
:102940006978C1EB011100EB8100A9784518E7E730
:102950002068416821F005014160204601F043FAFA
:10296000411C0AD0A84208D206490144204601F081
:102970007CFA10B167742674DAE784F81180267443
:102980000020D6E78051010070B504000AD020680D
:10299000416821F008014160FEF77CFE05464FF4D6
:1029A0007A7608E0012070BDFEF774FE401BB0424D
:1029B00001D9032070BD206840680007F4D50020CD
:1029C00070BD10B5401EB0F1807F01D3012010BD55
:1029D0004FF0E02460610F21601701F0B7FC002088
:1029E000A06107202061002010BD704770470000E3
:1029F00070B590F83C20012A26D0012480F83C4094
:102A0000022280F83D2003685A689D6822F0700613
:102A10000A6832435A600D4B02689A4208D0B2F1FC
:102A2000804F05D00A4B9A4202D00A4B9A4204D1F9
:102A3000496825F080031943916080F83D400021EA
:102A400080F83C10084670BD022070BD002C01408B
:102A5000000400400008004010B5040003D094F8C2
:102A60003D0010B107E0012010BD002084F83C00BB
:102A7000204600F01FF8022084F83D00211D206848
:102A800001F0CAFA012084F8460084F83E0084F878
:102A90003F0084F8400084F8410084F8420084F844
:102AA000430084F8440084F8450084F83D00002089
:102AB00010BD000008B5154A0168154891420ED1B5
:102AC000816941F4006181618069002200F4006045
:102AD000009011461920FFF7BFFA192010E00D4AA7
:102AE000914211D1C16941F00201C161C069002266
:102AF00000F00200009002211D20FFF7ADFA1D201A
:102B0000BDE80840FFF79ABA08BD0000002C01405C
:102B1000001002400004004090F83D10012901D04F
:102B200001207047022180F83D100168CA6842F018
:102B30000102CA6000680B49884208D0B0F1804F9A
:102B400005D00949884202D00849884204D18168E9
:102B500001F00701062903D0016841F0010101607D
:102B600000207047002C0140000400400008004095
:102B700070B5044690F83C000025012817D00126C6
:102B800084F83C60022084F83D002068826822F0CE
:102B9000770222F47F4282600868502838D00DDC2A
:102BA00020284FD005DC90B3102811D14AE0022034
:102BB00070BD302846D040280AD13BE060282FD095
:102BC00070280DD0B0F5805F03D0B0F5005F12D053
:102BD000012584F83D60002084F83C00284670BD43
:102BE000CB68D1E90121206801F052FA20688168A0
:102BF00041F0770109E0CB68D1E90121206801F0BB
:102C000047FA2068816841F480418160E1E719E07A
:102C1000CA684968206801F04DFA5021206806E032
:102C2000CA684968206801F056FA6021206801F0FE
:102C300039FACEE7CA684968206801F03BFA4021BA
:102C40002068F4E7226801461046F0E770472DE956
:102C5000F04104460068C66805694FF00007A907FF
:102C600013D5B10711D5F91E016101202077206825
:102C700080698007204602D0FFF7E8FF04E000F0FB
:102C80007EF8204600F07CF82777680716D5700795
:102C900014D521686FF004000861022020772068B5
:102CA000806910F4407F204602D0FFF7CFFF04E098
:102CB00000F065F8204600F063F82777280715D55F
:102CC000300713D521686FF00800086104202077D1
:102CD0002068C0698007204602D0FFF7B7FF04E0F4
:102CE00000F04DF8204600F04BF82777E80616D59F
:102CF000F00614D521686FF01000086108202077D5
:102D00002068C06910F4407F204602D0FFF79EFF84
:102D100004E000F034F8204600F032F82777E807A6
:102D200008D0F00706D021686FF001000861204646
:102D300000F028F8280608D5300606D521686FF07F
:102D4000800008612046FFF750FE680608D570062F
:102D500006D521686FF040000861204600F01EF89B
:102D6000A8060AD5B00608D521686FF020000861D2
:102D70002046BDE8F041FFF739BEBDE8F08170475D
:102D80007047000000680349884202D102490120CF
:102D900008707047002C014008000020704770B593
:102DA000040004D094F84100002510B106E0012091
:102DB00070BD84F84050204600F024F8242084F8A8
:102DC00041002068C16821F40051C160204601F033
:102DD000BBF92068016921F49041016120684169D3
:102DE00021F02A0141612068C16841F40051C160AD
:102DF0006564202084F8410084F842006563002067
:102E000070BD000070B586B0002400940194029457
:102E100003942B4E03682B49022003222A4DB34210
:102E200021D18B6943F480438B618B6903F4804328
:102E300004938B6943F004038B618969039201F069
:102E4000040104910102CDE9001069462846FEF70D
:102E50002BFB2815CDE90004694628460294FEF7AD
:102E600023FB06B070BD194EB342FAD1CB6943F4CF
:102E70000033CB61CB6903F4003304938B6943F0D7
:102E800004038B618969039201F004010491042118
:102E9000CDE9001069462846FEF706FB0820CDE97B
:102EA0000004694628460294FEF7FEFA0022114605
:102EB0002620FFF7D1F82620FFF7C0F8D1E7000061
:102EC000003801400010024000080140004400406A
:102ED0002DE9F843044690F84100984616460D4601
:102EE000202802D00220BDE8F88385B17EB1002001
:102EF0006064212084F84100FEF7CCFBA684814663
:102F0000E684A0682027B0F5805F02D003E00120AE
:102F1000E9E7206910B12E4600250EE000260CE0FE
:102F20008021204601F06CF9A8B9C6B116F8010B52
:102F300021684860E08C401EE084E08C4B464FF0F6
:102F40000002CDF800800028EAD14FF04001204671
:102F500001F056F940B184F841700320C3E735F819
:102F6000020BC0F30800E3E784F841700020BAE7E1
:102F7000FEE701684A69D24352050FD46FF48062BC
:102F80004A61002140F8301F202242738173026998
:102F900042F0040202610173012070470020704773
:102FA0002DE9F84F0446C06A1E4693460D46216837
:102FB0000A6842F480620A60082807D0012805D018
:102FC00010F5803F02D0206B112804D120680168E1
:102FD00041F4807101604FF001195B4600224946BF
:102FE0002046009600F09EF94FF4007840B120682A
:102FF0000068C00501D5C4F840800320BDE8F88F03
:103000002069DFF884A0B0F5804F0FD0062021683A
:1030100000EAD51747F0F000086133465A460AF136
:103020000601204600F0C6F958BB03E0E8B240F0C4
:1030300001001CE02168E8B2086133465A46514657
:10304000204600F0B7F9E0B9206841698169009134
:10305000016841F4807101605B46002249462046C8
:10306000009600F05FF90028C1D147F0F100216817
:10307000086133465A465146204600F09BF9002825
:10308000BCD00120BAE7000002000100F8B50446F8
:10309000C06A1E460D461746082807D0012805D0ED
:1030A00010F5803F02D0206B122804D120680168FF
:1030B00041F480710160134600224FF00111204657
:1030C000009600F02FF940B120680068C00502D5D5
:1030D0004FF4007020640320F8BD2069B0F5804FE4
:1030E0000ED00620216800EAD51040F0F0000861FB
:1030F00033463A460B49204600F05CF978B902E0C5
:1031000005F0FE0000E0E8B2216808610549334699
:103110003A46891F204600F04DF90028DCD00120F6
:10312000F8BD0000080001002DE9F84F04460068D2
:1031300089460B9D01689846174641F480610160FD
:103140002068016841F48071016000954FF0011B17
:103150000022594620460A9B00F0E4F84FF4007A1A
:1031600040B120680068C00501D5C4F840A0032024
:10317000BDE8F88F216809F0FE0008612B46284958
:1031800020460A9A00F016F9F0BB20684169806970
:1031900000902A4620460A9900F0A2F940B1206C1E
:1031A00004283AD12068016841F40071016034E0DC
:1031B000FEB2B8F1010F09D02168380A08612A4629
:1031C00020460A9900F08CF90028E8D120680661B1
:1031D0002A4620460A9900F083F90028DFD12068AA
:1031E000016841F480710160009500225946204633
:1031F0000A9B00F097F80028B3D1216809F0FF007E
:1032000040F00100086100E007E02B460449204639
:103210000A9A00F0CFF80028AAD00120A8E7000001
:10322000020001002DE9F843044600680D46DDE97F
:10323000089701689846164641F4807101604B4634
:1032400000224FF001112046009700F06BF848B1C2
:1032500020680068C00502D54FF400702064032088
:10326000BDE8F883216805F0FE0008613B464A4648
:103270001549204600F09EF888B9206841698069A8
:1032800000903A464946204600F02AF948B1206CA1
:10329000042804D12068016841F400710160012014
:1032A000DEE7F5B2B8F1010F09D02168300A0861F4
:1032B0003A464946204600F013F90028E7D1206835
:1032C00005610020CCE700000200010070B5164641
:1032D0000D4604461EE02046FFF74BFE08B10120D4
:1032E00070BD681C16D0FEF7D5F9801BA84200D827
:1032F00085B920684069C04340070BD5002044F8D9
:10330000300F20216173A073216941F020012161F8
:103310002073E4E720684069C0434007DBD4002005
:1033200070BD00002DE9F047984617460D4604464B
:10333000C1F30746DDF820902AE000BFB8F1FF3F57
:1033400026D0FEF7A7F9A0EB0901414502D8B8F154
:10335000000F1DD12068012E16D0806925EA0000DB
:103360000004000C12D00020B84211D1002044F813
:10337000300F20216173A073216941F02001216188
:1033800020730120BDE8F0874069E7E70120EBE703
:103390002068012E0AD0806925EA00000004000C94
:1033A00006D00020B842C9D00020EBE74069F3E71F
:1033B0000120F7E72DE9F047984616460D460446EA
:1033C0004FF000094FF0200AC1F3074723E02068BF
:1033D0004069C043400515D42068016841F400717C
:1033E000016021686FF480604861C4F8309084F80F
:1033F0003DA084F83E90216C41F00401216484F8E2
:103400003C9021E0701C06D0FEF744F9A0EB0800C8
:10341000B04203D816B1012F1FD021E02068012F40
:1034200015D0806925EA00000004000C18D000BF08
:1034300044F8309F84F80DA084F80E90216941F083
:103440002001216184F80C900120BDE8F0874069DB
:1034500025EA00000004000CEAD12068406901E080
:103460002068806925EA00000004000CAFD1ECE779
:103470002DE9F041002590460E460446202728E01D
:103480004069C043C0060CD454F8301B6FF01000E4
:10349000486144F810596777A577206A206225773C
:1034A00014E0FEF7F7F8A0EB0800B04200D886B9A8
:1034B00020684069C04340060BD544F8305F67730D
:1034C000A573206940F02000206125730120BDE82C
:1034D000F08120684169C9434906D1D40020F6E74C
:1034E00070B516460D4604461EE02046FFF741FD26
:1034F00008B1012070BD681C16D0FEF7CBF8801B08
:10350000A84200D885B920684069C04300060BD5A1
:10351000002044F8300F20216173A073216941F02D
:10352000200121612073E4E720684069C043000660
:10353000DBD4002070BD00007CB500258DF8045060
:1035400047208DF80500FF248DF80640032301AACB
:1035500082210B480094FEF78FFA0520FDF7F6FE56
:1035600005208DF8040014208DF805008DF8065014
:10357000032301AA822102480094FEF77DFA7CBD54
:103580003801002070B500F059F8064600F03AF80E
:10359000044600F06FF805463046FDF75AF8134927
:1035A000FCF748FE06462046FDF753F81049FCF7A5
:1035B00041FE1049FCF770FE04462846FDF749F825
:1035C0000D49FCF737FE05460C492046FCF732FE54
:1035D000FDF751F80A4CE0803046FDF74CF82081A9
:1035E0002846FDF748F8608170BD0000CDCCCC3D89
:1035F0000000A03F00007A44000020400000C842C4
:10360000E00300203EB50BA0FF24006802900123D8
:1036100002AA822100940848FEF72EFA022301AA8A
:10362000822105480094FEF7FFF8BDF8040040BA77
:103630003EBD000002000000380100203EB50BA096
:10364000FF2400680290012302AA82210094084806
:10365000FEF712FA022301AA822105480094FEF720
:10366000E3F8BDF8040040BA3EBD000004000000CD
:10367000380100203EB50BA0FF2400680290012312
:1036800002AA822100940848FEF7F6F9022301AA53
:10369000822105480094FEF7C7F8BDF8040040BA3F
:1036A0003EBD000003000000380100200A4B012845
:1036B00008D002280ED1C001012906D0002909D165
:1036C000012203E04FF40070F6E70022014618469D
:1036D000FDF7DABF70470000000C01403EB5002145
:1036E000124800910191104A0291026081600173B9
:1036F000017501244FF460220461C2614160FDF74D
:103700006DFC08B1FDF779FB07200094CDE901407D
:1037100069460648FDF7E0FB08B1FDF76EFB03487C
:10372000FDF76EFB3EBD00000024014008010020B3
:103730002DE9F04186B000253C48009501950295A1
:103740000395816941F010018161816901F01001E7
:103750000491816941F020018161816901F02001BA
:103760000491816941F004018161816901F00401E2
:103770000491816941F00801816180692C4F00F05A
:1037800008004FF400540490002221463846FDF70B
:103790007BFFDFF8A080002206214046FDF774FF82
:1037A00001224FF440714046FDF76EFF009401AADC
:1037B0000124022682E8700069463846FDF774FE4F
:1037C00040F202308DE8710069464046FDF76CFE1C
:1037D00004208DE831000320039069464046FDF740
:1037E00063FE154D4FF22000CDE9000569460294B5
:1037F0004046FDF759FE2002CDE9000569460294D6
:103800000E48FDF751FE002211461720FEF724FC5A
:103810001720FEF713FC002211462820FEF71CFC9F
:103820002820FEF70BFC06B0BDE8F0810010024036
:1038300000100140000C0140000021100008014070
:103840000D4810B50B4901600C49416000214FF44F
:1038500080428160C0E9031241618161C1610162FE
:10386000FDF71EFF002803D0BDE81040FDF7C5BAE4
:1038700010BD00000054004038010020A086010067
:1038800030B58DB000202A490C90284A0B900A6070
:10389000421EC1E901200846FEF75AFF08B1FDF7B4
:1038A000ACFA01212248FEF743FF45F25105A84238
:1038B00039D010208DF8300020208DF831003020D4
:1038C0008DF8320001220CA91948FFF707F808B15A
:1038D000FDF793FA04248DF82C4009208DF82D0073
:1038E0008DF82E4025208DF82F0001220BA91048BD
:1038F000FEF792FF08B1FDF780FA7D2005900820C1
:10390000CDE903400B20029001900A200090684608
:10391000FCF718FC0146064800F0BCFA2A460121D3
:103920000348FEF70DFF0DB030BD00000028004039
:103930008C01002010B586B0002418480094019432
:1039400002940394049414490594016041F61F41C4
:10395000C0E9011441F28831C0E903148021C0E9B3
:103960000541FFF779F808B1FDF747FA4FF48050A9
:10397000009069460948FFF7FBF808B1FDF73DFAEA
:10398000049404A905480594FFF732F8002801D0F3
:10399000FDF733FA06B010BD002C0140A001002055
:1039A00010B586B000241748009401940294039443
:1039B000049413490594016040F60F61C0E90114B5
:1039C0006421C0E903148461FFF746F808B1FDF7EC
:1039D00014FA4FF48050009069460A48FFF7C8F87F
:1039E00008B1FDF70AFA049404A906480594FEF705
:1039F000FFFF002801D0FDF700FA06B010BD00005F
:103A000000040040E80100200C4810B50A4901609C
:103A10004FF4E1314160002181600C22C160C0E9B6
:103A200004128161C161FFF7BAF9002803D0BDE833
:103A30001040FDF7E2B910BD00380140300200200F
:103A40000C4810B50A4901604FF4E1314160002192
:103A500081600C22C160C0E904128161C161FFF77D
:103A60009EF9002803D0BDE81040FDF7C6B910BD8F
:103A70000044004078020020FEE7000038B50B4902
:103A8000002000F053FA094C09A0641E617800F090
:103A90004DFC002000904FF4E1330246617801F0C4
:103AA00047FBBDE8384001F063B900000900002081
:103AB000536C617665416464726573733D25640A75
:103AC0000000000070B5204C2078002630B1267030
:103AD000FDF7BAF8FFF756FDFCF7ECFFA0781B4D99
:103AE00070B1A670A97C6170002000F00BFC0A2068
:103AF000FDF72CFC01F02CF901F01AF9FFF7BEFFDD
:103B00002878C00701D0012100E000210120FFF743
:103B1000CDFD2878800701D5012100E00021022099
:103B2000FFF7C4FD2878400701D5012000E0002000
:103B3000FDF734F92878000701D5012000E00020C6
:103B4000BDE8704000F000B908000020E00300204C
:103B5000FEE70020AFF3008070B506465FF000047A
:103B600004F1B000C0B200F0A9FB002000F0A6FBF9
:103B7000102000F0A3FB0025304600F0B1FB6D1CC7
:103B8000EDB2802DF8D3641CE4B2082CE8D370BDEC
:103B900010B50120FDF7DAFBAE2000F08FFB2020EE
:103BA00000F08CFB102000F089FBB02000F086FBB9
:103BB000C82000F083FB002000F080FB102000F004
:103BC0007DFB402000F07AFB812000F077FBFF2096
:103BD00000F074FBA12000F071FBA62000F06EFB4A
:103BE000A82000F06BFB3F2000F068FBA42000F051
:103BF00065FBD32000F062FB002000F05FFBD520C6
:103C000000F05CFBF02000F059FBD92000F056FBDF
:103C1000222000F053FBDA2000F050FB122000F0CD
:103C20004DFBDB2000F04AFB202000F047FB8D20FD
:103C300000F044FB142000F041FBBDE81040AF2031
:103C400000F03CBB10B50446B031C8B200F036FB02
:103C5000102040EA141000F031FB04F00F00BDE822
:103C6000104040F0010000F029BB00002DE9F047B2
:103C7000002591468A460446012B22D0DFF8BC80FD
:103C8000022B24D155E02038C7B27E2C04D90AF18A
:103C90000100002400F0FF0A51462046FFF7D2FF42
:103CA00007EB4700002608EB4007B85D00F018FB63
:103CB000761CF6B2062EF8D3A41D6D1CE4B2EDB24C
:103CC00001E0DFF87C8019F805000028DBD1BDE8B1
:103CD000F0872038C7B2782C04D90AF101000024FB
:103CE00000F0FF0A51462046FFF7ACFF5FF00006E8
:103CF00006EB071118F8010000F0F2FA761CF6B294
:103D0000082EF5D30AF10100C1B22046FFF79AFF51
:103D10005FF0000606EB071101EB0800007A00F0E7
:103D2000DFFA761CF6B2082EF4D308346D1CE4B228
:103D3000EDB219F805000028CBD1C8E7645D000892
:103D40003C5B000870470000064B012806D00028A5
:103D500006D1002202211846FDF796BC0122F9E7A0
:103D600070470000000C0140010901EB810100F0E7
:103D70000F0000EB4100C0B2704770B50446FDF77C
:103D800089FC05464FF47A7606E0FDF783FC401B7C
:103D9000B04201D9032070BD206840688006F4D588
:103DA0002068416841F010014160002070BD0000B2
:103DB00070B504460068416821F010014160FDF7CC
:103DC00069FC05464FF47A7607E000BFFDF762FC18
:103DD000401BB04201D9032070BD206840688006B6
:103DE000F4D5002070BD0168086A496A89B241EAC9
:103DF00000407047006881698AB2C1698BB28169ED
:103E000089B28A4203D0C06961F31F40704743EA18
:103E100002407047F0B56424C1EBC1030927A50037
:103E2000072603EB01130329B3FBF7F100F5FA6052
:103E3000114401440AD2401EB0FBF4F201EB9001A0
:103E4000B0FBF5F0891A0844001D08E0B0FBF4F25D
:103E500001EB9001B0FBF5F0891A0844801CB0FB1F
:103E6000F6F106FB1100C0B2F0BD70B50D46064676
:103E70000024FFF782FF48B93168280C08623168D6
:103E8000A8B248623046FFF793FF00B101242046F4
:103E900070BD00002DE9F0410F4604460025FDF7F6
:103EA000F9FB06464FF47A7805E000BFFDF7F2FB18
:103EB000801B40451DD8206840688006F6D52068E4
:103EC000416841F0100141602168380C8861216827
:103ED000B8B2C8612068416821F010014160FDF767
:103EE000D9FB0646474606E0FDF7D4FB801BB842E7
:103EF00001D9012503E0206840688006F4D52846F2
:103F0000BDE8F08170B50D4606460024FFF735FF89
:103F100048B93168280C88613168A8B2C861304658
:103F2000FFF746FF00B10124204670BD3EB50C46A8
:103F300001254FF47A710094CDE9015102462B46D8
:103F4000A1210548FDF72EFE207808B1FF2800D1F9
:103F5000257001203EBD0000380100207047FEF7AB
:103F600015B830B593B028216846FCF758F91421EC
:103F70000AA8FCF754F9002401210F94119405209C
:103F800012940090CDE9024110944FF480300190DA
:103F900002250491CDE907504FF4E01009906846DE
:103FA000FEF736FA08B172B6FEE70F20CDE90A0532
:103FB0004FF48060CDE90C4002210AA80E94FEF770
:103FC0004BF908B172B6FEE703200F904FF48070F2
:103FD0001090C00111900FA8FEF7C8F8002801D07A
:103FE00072B6FEE713B030BD704700000148FEF71F
:103FF0002EBE0000A0010020054800680169C90725
:1040000005D06FF001010161024800680047704768
:10401000E801002038000020F0B50268194B1A4C66
:104020001A4D4FF08047984205D0B84203D0A042C5
:1040300001D0A84203D122F070064A683243984268
:1040400005D0B84203D0A04201D0A84203D122F447
:104050004074CA6822434C6922F080022243026005
:104060008A68C2620A688262984201D10969016362
:10407000012141610169C90703D0016921F00101F2
:104080000161F0BD002C0140000400400008004028
:1040900010B5846842EA032224F47F440A43224391
:1040A000826010BD826822F070020A4342F007016C
:1040B0008160704710B5036A046A24F00104046249
:1040C000846924F0F00444EA021423F00A020A434B
:1040D0008461026210BD10B5036A046A24F0100402
:1040E0000462846923F0A00324F4704444EA023299
:1040F00043EA01118261016210BD01680C3151E88F
:10410000002F22F4907241E80023002BF5D10168C2
:10411000143151E8002F22F0010241E80023002B66
:10412000F5D1016B012909D101680C3151E8002F4B
:1041300022F0100241E80023002BF5D1202180F865
:10414000421000210163704770B5044600680169A0
:10415000E26821F44051114301612169A0680843DC
:10416000616908432168CA6841F20C639A430243BB
:10417000CA6020684169A26921F44071114341611C
:104180001E492068884202D1FEF70CF901E0FEF7D3
:10419000F9F800EBC00101EB0012606864218000B7
:1041A000B2FBF0F3B3FBF1F36FF018067343B2FB0D
:1041B000F0F5B2FBF0F605EB8305322303EB0515B2
:1041C000B5FBF1F5B6FBF1F605F0F00505EB0615CC
:1041D000B2FBF0F6B2FBF0F0B0FBF1F06FF01802BA
:1041E000504306EB800003EB0010B0FBF1F02168B8
:1041F00000F00F002844886070BD000000380140C6
:104200002DE9F843984617460D460446089E24E0DB
:10421000701C22D0FDF73EFAA0EB0800B0421AD87D
:10422000CEB12068C168490717D5802D15D0402D23
:1042300013D00168C94309070FD4016800254068FD
:1042400000902046FFF759FF0820606484F8405032
:104250000120BDE8F8830320FBE72068006835EA09
:10426000000004D00020B842D2D00020F1E70120A5
:10427000F9E7000010B50D4C20680168890605D5E6
:104280006FF0200101600A480068804720680168DB
:1042900009060AD50168490607D56FF0800101605B
:1042A00004480068BDE81040004710BD78020020B7
:1042B0003000002034000020FEE700001CB5002183
:1042C0008DF804108DF805004FF47A7000900223E9
:1042D00001AA78210148FDF7CFFB1CBD3801002061
:1042E0001CB540218DF804108DF805004FF47A704C
:1042F0000090022301AA78210148FDF7BDFB1CBDF7
:104300003801002003B583B04FF47A73012204A969
:104310008DE80E0013460246A0210348FDF770FD0C
:1043200005B0012000BD0000380100200FB4054B8E
:1043300010B503A9044A029800F0EAF810BC5DF831
:1043400014FB00009D550008040100200907090E18
:10435000002804DB00F1E02080F80014704700F032
:104360000F0000F1E02080F8141D704702E008C83B
:10437000121F08C1002AFAD170477047002001E0DF
:1043800001C1121F002AFBD1704700002DE9FF5F19
:1043900082B00021DDE90430020DDDF840B00343B6
:1043A00018D044F61050A2F2FF324243151411986F
:1043B00001281FD0A5EB0B00401C5FEA000A4FF05C
:1043C00000064E4FDFF83891B046504615D5CAF179
:1043D000000413E0119801244AA3012801D16FEAD7
:1043E0000B010298119AC0E90031C0E9024206B0FF
:1043F000BDE8F09FCBF10000DFE704460021404A12
:10440000491842EB0450CDE9001012E0E00707D054
:1044100032463B4640464946FCF723F880468946EB
:1044200032463B4610461946FCF71BF806460F4637
:104430006410002CEAD1DDE90401DDE90023BAF1C2
:10444000000F06DAFCF70DF842464B46FCF709F878
:1044500005E0FCF778F842464B46FCF774F8044652
:104460000E460022284BFCF791FA03D84FF0FF309C
:10447000014607E00022254B20463146FBF74AFF64
:10448000FCF76CFA102409E0002C0ADB0A22002356
:10449000FCF737F9039B30321A55641E50EA0102CB
:1044A000F2D1641C039AC4F111031444119A012A35
:1044B00003D0012208430DD10AE0084304D00020B4
:1044C0004FF0110B119072E7A3EB0B056D1E0DE081
:1044D0005B4504DD4FF0000205F1010504E003DA5D
:1044E0004FF00002A5F10105002AECD002981199C5
:1044F000C0E90231C0E9004579E70000000014403E
:104500000000F03F300000000000F0430000E03FFA
:104510002DE9FF4F95B09B468946064600250FE2E0
:10452000252877D100242746F84A0121059400E088
:10453000044316F8013F203B01FA03F01042F7D183
:1045400030782A2811D06FF02F033078A0F1300294
:10455000092A16D8059A44F0020402EB820203EB02
:1045600042021044761C0590EFE759F8042B05929F
:10457000002A03DA504244F40054059044F0020447
:10458000761C30782E2816D116F8010F44F004045A
:104590002A280DD06FF02F023078A0F13003092BBC
:1045A00009D807EB870302EB4303C718761CF3E730
:1045B00059F8047B761C30786C280FD006DC4C2828
:1045C00017D068280DD06A2814D104E0742810D0C0
:1045D0007A280FD10DE044F400140AE044F480146A
:1045E00001E044F440147278824202D104F5801450
:1045F000761C761C307866280BD013DC582877D0D0
:1046000009DC002875D04528F6D04628F4D0472884
:104610001AD19DE118E0632835D0642879D0652847
:1046200012D195E1702873D008DC6728F1D0692891
:104630006FD06E280DD06F2806D1B5E073282CD02E
:10464000752875D0782874D05A46179990476D1CF4
:1046500075E1C4F30250022809D003280DD0D9F81F
:10466000001004280DD00D6009F1040967E1D9F8A4
:104670000010EA17C1E90052F6E7D9F800100D80E2
:10468000F2E70D70F0E719F8041B8DF80010002018
:104690008DF80100EA46012003E059F804AB4FF021
:1046A000FF3061074FF0000102D40DE008F1010175
:1046B0008846B9420FDA8045F8DB1AF8081000295D
:1046C000F4D108E008F1010188468142FADB1AF8CA
:1046D00008100029F6D105985B46A0EB0807214693
:1046E0003846179A00F094FA284400EB080507E0D2
:1046F0004DE029E10DE01AF8010B5A461799904751
:10470000B8F10108F7D25B4621463846179A13E103
:1047100042E00A220092C4F302524FF0000A022A39
:1047200008D059F804CB032A4FEAEC710AD00DE007
:1047300029E02AE009F1070121F00702F2E802C1AD
:10474000914609E00FFA8CFC4FEAEC71042A03D180
:104750004FFA8CFC4FEAEC71002907DA0A46002177
:10476000DCF1000C61EB02012D2202E0220504D5F0
:104770002B228DF80420012203E0E20701D0202241
:10478000F7E7904659E00A2102E010220DE01021DF
:104790004FF0000A00910BE010224FF0000A44F0A5
:1047A00004040827009203E008224FF0000A009258
:1047B000C4F30252022A05D059F804CB0021032A7F
:1047C00008D009E009F1070121F00702F2E802C16F
:1047D000914605E01FFA8CFC042A01D10CF0FF0C75
:1047E0004FF00008220728D5702806D0009B83F0E0
:1047F000100353EA0A0305D00EE040228DF804208E
:10480000012208E05CEA010206D030228DF8042083
:104810008DF8050002229046009B83F0080353EABE
:104820000A030AD15CEA010201D1620705D53022F0
:104830008DF804204FF001087F1E582804D034A0C2
:1048400003900EA802900DE036A0F9E753466046AB
:10485000009AFBF756FF84460398825C0298401E3C
:10486000029002705CEA0100F0D1029806A9081AD1
:1048700000F1200A600702D524F4803400E001270B
:10488000574502DDA7EB0A0000E0002000EB0A011B
:10489000009005984144401A0590E00306D45B4619
:1048A0002146179A059800F0B3F90544002706E061
:1048B00001A85A46C05D179990476D1C7F1C47455B
:1048C000F6DBE0030CD55B462146179A059800F00D
:1048D0009FF9054404E030205A46179990476D1C13
:1048E0000099481E00900029F5DC08E00298029922
:1048F0005A460078491C0291179990476D1CBAF1ED
:104900000001AAF1010AF1DC65E1000009280100BB
:104910003031323334353637383961626364656635
:1049200000000000303132333435363738394142F7
:10493000434445460000000000F058F90544761C49
:10494000307800287FF4ECAD19B02846BDE8F08F30
:10495000620700D4062709F1070222F0070CFCE8E1
:104960000223E14603F000485FEA080C02D00FF290
:10497000702C0DE05FEA045C02D50FF2682C07E0B2
:104980005FEAC47C02D00FF2602C01E0AFF2700C41
:104990004FF0FF3823F00043CDF850C065280CD00D
:1049A00006DC452809D046281DD047283DD13DE0EA
:1049B000662818D067287ED138E00021112F01DB4E
:1049C000112000E0781CCDE9000106A90EA8FFF730
:1049D000DDFCDDE90F010E9A03910021009207F141
:1049E000010A04914DE04FF000400097CDE901101D
:1049F00006A90EA8FFF7CAFCDDE90F0203920E9B81
:104A000011990022DDF80CA00093049211B9791CD1
:104A100000EB010AB7EB0A0004D4C0F1FF3007F144
:104A2000010A0490AAEB0700019044E0012F00DA8C
:104A300001270021112F01DD112000E03846CDE9CA
:104A4000000106A90EA8FFF7A1FCDDE90F010E9AEF
:104A50000391002104910092BA4621070CD40399D6
:104A6000514500DA8A46BAF1010F05DD009AAAF134
:104A70000101515C302908D0B84202DA10F1040F6C
:104A800006DA0121CDE9011015E0AAF10101E9E7FB
:104A9000002805DC049901440491AAEB000102E01E
:104AA000411C514500DD8A460499401A401C019082
:104AB0004FF000400290200704D40198504501DBDC
:104AC000CDF8048000208DF84F0002980DF14F07BB
:104AD000B0F1004F25D02B200E9002984FF0020825
:104AE00000280CDA404202902D200E9007E00A21A7
:104AF0000298FBF7F0FD3031029007F8011DB8F184
:104B00000001A8F10108F2DC02980028EFD1791E1B
:104B10000E980870307800F0200040F0450007F84B
:104B2000020D12A8C01B00F107081498007800B10C
:104B3000012000EB0A01019801EBE0710598414466
:104B4000401A401E0590E00306D45B462146179AA2
:104B5000059800F05DF805441498007818B15A469D
:104B6000179990476D1CE00324D55B462146179AA0
:104B7000059800F04DF805441CE00498002807DB78
:104B8000DDE90301884203DD0098405C179901E0EC
:104B9000179930205A469047049805F10105401CAA
:104BA00004900198401E019004D12E205A46179976
:104BB00090476D1CBAF10001AAF1010ADDDC05E0A5
:104BC00017F8010B5A46179990476D1CB8F1000170
:104BD000A8F10108F4DC5B462146179A0598ABE67C
:104BE0002D0000002B000000200000002DE9F04106
:104BF000044600251E461746880404D405E03946BD
:104C00002020B0476D1C641EF9D52846BDE8F08110
:104C10002DE9F041044600251E469046C80301D503
:104C2000302700E02027880404D505E041463846B7
:104C3000B0476D1C641EF9D52846BDE8F081000020
:104C400070B50A4D084600240A211646E97007226D
:104C5000314600F089FE012805D144F6206000F0BD
:104C6000B1FE012800D00324204670BDBC00002006
:104C70002DE9F0410F4C07461646A08888460025CE
:104C8000FF2801D9AFF30080A088032804D3A188AE
:104C9000A06800F0F9FC18B105252846BDE8F081B0
:104CA000A06810F8011B3970A188891E3180C8F8EE
:104CB0000000F2E7BC00002070B5104C0346002550
:104CC000607810B10525284670BD491E0126E160B7
:104CD0000846E6800B70E1881144E180E18800F02D
:104CE000D3FC0146E088A2680244401CE0801170B9
:104CF00026700121002000F0E9FCE4E7BC00002060
:104D000010B50021012000F0E1FC034900204870AB
:104D1000BDE8104000F018BEBC00002010B5002116
:104D2000084600F0D3FCBDE8104000F0F9BC0000DC
:104D3000064810B501780024012902D00624204637
:104D400010BDC0690028FAD08047F8E710000020A5
:104D500010B5064C207818B1012805D0062010BDEA
:104D60006069804701202070002010BD10000020E5
:104D700070B5064D00242878012802D0062420466C
:104D800070BD2869804700202870F8E710000020D7
:104D900070B50C460988002505292FD1417840F2CD
:104DA000CF760A0281781143C278491C1302027936
:104DB00089B21A43531EB34220D200232380012319
:104DC00000F8013B2688761C2680560703D003EBAB
:104DD000D203DEB201E0C2F3C70600F8016B2388FC
:104DE0005B1C2380002300F0EFFA18B100F032FCC6
:104DF000054604E020883044208000E00325284652
:104E000070BD70B50C460988002505292FD1417861
:104E100040F2CF760A0281781143C278491C13020E
:104E2000027989B21A43531EB34220D20023238051
:104E3000022300F8013B23885B1C2380530704D026
:104E4000012303EBD203DEB201E0C2F3C70600F890
:104E5000016B23885B1C238000F004FB18B100F079
:104E6000F9FB054604E020883044208000E003255B
:104E7000284670BD70B50C4609880026052925D145
:104E8000417805790A0281781143491C6A1E89B26A
:104E90007C2A1BD800222280032200F8012B2288C2
:104EA0000023521C22806A0000F8012B2288521C29
:104EB00022802A4600F016FB18B100F0CBFB064614
:104EC00005E0208800EB4500208000E00326304606
:104ED00070BD70B50C4609880026052927D1417898
:104EE00005790A0281781143C278491C45EA0225F6
:104EF0006A1E89B27C2A1AD200222280042200F87B
:104F0000012B2288521C22806A0000F8012B228883
:104F1000521C22802A4600F019FB18B100F09AFBBF
:104F2000064605E0208800EB4500208000E00326CF
:104F3000304670BD2DE9F0410446088800270D4633
:104F40000A2842D3607826790102A078227A0843A1
:104F5000401C1FFA80F8E07846EA00266079731E4C
:104F60000102A0790843401C81B2E0797C2B42EA1F
:104F70000022607A28D83AB3792A25D8B0EB420FBC
:104F800022D1012304F10A0000F0ACFA98B9002103
:104F90002980172121702988601C491C29807100F3
:104FA00000F8011B29880023491C2980324641460C
:104FB00000F098FA18B100F04DFB074605E028888C
:104FC00000EB4600288000E003273846BDE8F0816A
:104FD00070B5064C0D4606492288401CFBF706F9C1
:104FE0002088401C2880002070BD0000CC000020DC
:104FF000C002002038B50988002405290BD141786A
:105000000A0281781143491C027989B21AB9C2781F
:10501000FF2A03D012B10324204638BD00228DF8A8
:105020000120C078FF280CD08DF8002001231A46FB
:10503000684600F0C9F90028EED000F00BFB0446EA
:10504000EAE701208DF80000F0E710B50988002498
:10505000052902D00324204610BD417801230A020D
:105060008178C01C1143491C89B21A4600F03AFAF3
:105070000028F0D000F0EEFA0446ECE72DE9F0410C
:105080000D4609880024052926D9417843790A026A
:1050900081781143491C8EB2C178027942EA01221B
:1050A000510704D0012101EBD201C9B201E0C2F3E2
:1050B000C701571EB7F5F66F0ED299420CD10123E6
:1050C0003146801D00F080F918B100F0C3FA0446A3
:1050D00003E00520288000E003242046BDE8F0819D
:1050E00070B50D460988002406291DD341780A02AF
:1050F00081781143C278491C1302027989B21A439C
:105100004379561E772E0FD85606360E9E420BD187
:105110000123801D00F0E6F918B100F09BFA044667
:1051200003E00520288000E00324204670BD000035
:105130002DE9F0411D46069B17460646FF2909D07A
:1051400041B1F72906D81E4C0846217100211EB135
:10515000012E15D002252EE01A4A22611A4A6261F8
:105160001A4AE2601A4AC4E906211A4921621A4918
:1051700061621A49A1622A46394600F09BF812E0A2
:10518000174A2261174A6261174AE260174AC4E966
:10519000062117492162174961621749A1622A460F
:1051A0003946FFF74DFD050005D100F0C5FB28B1DC
:1051B0006671012020702846BDE8F0810325FAE7DA
:1051C0001000002099530008B5530008415300080F
:1051D000F1520008395A0008E15A0008A15A0008A3
:1051E000014D00081D4D0008B94C0008714C000825
:1051F0005D570008715800084158000838B52C4C1C
:10520000207808B1062038BD684600F087FB0128E9
:105210004BD19DF80000E8B3012802D0022844D108
:1052200010E0234AA369921D911CC81F984788BBB0
:1052300060782179884201D0FF2836D1022000F021
:1052400083FB32E0A0680121194B0278A270E17063
:1052500000212C3313F8315065B1954207D103EB8F
:10526000C1014A681249891D9047E07002E0491C5B
:105270001029EFDB6078FF2817D0E07880B100219B
:10528000E180A17841F08002A1680A70E288521C96
:1052900092B200E009E0E2808854E088401CE0809F
:1052A000D4E90213E28820799847002038BD000035
:1052B0001000002070B51546084600240822294633
:1052C00000F052FB01280DD1B5F5964F01D92320EE
:1052D00003E006496800B1FBF0F080B200F072FB19
:1052E000012800D00324204670BD0000A07F1700D5
:1052F0002DE9F041104C07461646A0888846002547
:10530000FF2801D9AFF30080A088042804D3A18826
:105310000A4800F0C5F918B105252846BDE8F08116
:10532000064800783870A088C01E30800348401CB2
:10533000C8F80000F1E70000D0000020E0020020E3
:1053400070B5134C034600256078012802D005256E
:10535000284670BD491E0126A160084666800B7074
:10536000618811446180618800F09AF96188094A76
:105370005318491C61801870010A60880244401C5F
:105380006080117026700121002000F09FF9DFE796
:10539000D0000020E0020020054910B50020487030
:1053A0000146012000F092F9BDE8104000F0CAB9B2
:1053B000D000002010B50021084600F087F9BDE8B4
:1053C000104000F0ADB90000F0B5491E89B28C184C
:1053D0000A2C01D90120F0BD541EE51704EB5575C8
:1053E000012404EBE5061E4D012B18D1F4B213E0A5
:1053F00010F8016B00230AE026FA03F707F0010713
:105400006F54491C521E5B1C89B292B2DBB20AB1C6
:10541000082BF1D3641EE4B2002CE9D11EE016F093
:10542000FF061BD000273B4611E000BF15F801E046
:10543000BEF1000F05D004FA03FC4CEA070C0CF097
:10544000FF07521E491C5B1C92B289B2DBB20AB143
:10545000082BEBD300F8017B761EE0E70020F0BDBF
:10546000DE000020F0B5491E8CB2A1180A2901D92E
:105470000120F0BD511ECB1701EB5371012505EB47
:10548000E101CEB216491BE000273B4611E000BF08
:1054900011F804E0BEF1000F05D005FA03FC4CEA58
:1054A000070C0CF0FF07521E641C5B1C92B2A4B2E6
:1054B000DBB20AB1082BEBD3761E00F8017BF6B203
:1054C000002EE1D100200A5C3AB100220A54401CAF
:1054D00080B20A28F7D30020F0BD0122F6E70000D1
:1054E000E800002030B54C1EA4B2A5180A2D01D941
:1054F000012030BD134D012B09D01EE030F8023BD6
:105500005BBA25F81430641C521EA4B292B2002A71
:10551000F4D10A2913D10C49012008700FE000BF13
:1055200035F81410090A00F8011B15F81410641C52
:10553000521E00F8011BA4B292B2002AF0D1002042
:1055400030BD0000E00300200A000020491E10B515
:105550008BB29C1810490A2C0FD9012010BD00BF36
:1055600031F81340240A00F8014B11F813405B1C7A
:10557000521E00F8014B9BB292B2002AF0D10020DB
:1055800031F81020521C21F81020401C80B20A284B
:10559000F6D3002010BD0000F403002013B54FF037
:1055A000FF33012269460248FDF792FC00981CBDBA
:1055B00030020020FCF7F2FCFEF7D3FCFEF7B8F84F
:1055C000FEF722FAFEF73CF9FEF75AF9FEF786F8E5
:1055D000FEF7E6F9FEF734FAFEF7ACF90FA0FEF796
:1055E000A5FE13A0FEF7A2FEFEF7D2FAFEF7B1FA6F
:1055F000022313A200211020FEF738FBFBF704FB67
:10560000FDF79AFF1248FDF787FAFEF737FA00BF59
:10561000FFF7F4FDFEF756FAFAE7000055617274E1
:105620003120696E6974206973206F6B0A00000075
:105630004D6F6462757320546573740A0000000036
:105640004D6F6462757320436F6E74726F6C0000EF
:10565000A0010020002804D0012803D0072803D08F
:1056600004207047022070470620704710B50928B3
:1056700001D8303004E0A0F10A01052902D8373002
:10568000C0B210BDAFF30080002203E010F8013B70
:105690001A44D2B2491E89B2F8D25042C0B2704701
:1056A00070B5094DFF231A4605F5807606E000BF68
:1056B00010F8014B54402A5D5A40335D491E89B2AF
:1056C000F6D242EA032070BD5463000870B5124E52
:1056D000124C0D4650B1002204213046FBF7D4FF96
:1056E0002168C86840F02000C86004E02068C168F4
:1056F00021F02001C1604DB1012204213046FBF7A9
:10570000C3FF2068C16841F0800103E02068C168E0
:1057100021F08001C16070BD000C014078020020C2
:1057200007480068016A41F21112114207D1016A6B
:105730009210114203D1016821F00101016070470C
:10574000E8010020044800210268516200680168F5
:1057500041F0010101607047E8010020F8B5374CC5
:105760000027207808B1AFF30080684600F0F4F815
:1057700060780025012670B3012802D002285AD192
:1057800039E0FFF7DFFF9DF800003A2807D00D2829
:1057900008D0A0F13001092907D8C8B20DE0A570E2
:1057A000A58048E00220607045E0A0F14101052994
:1057B00002D83738C0B200E0FF20A17811B101292A
:1057C00039D10DE0A188FF2906D8A288A16800017F
:1057D0008854A6702FE025E06570FFF7A1FF2AE04E
:1057E000A288A16811440A7802430A70A088401C6C
:1057F000A080A5701FE09DF80000E178884207D1E5
:10580000FFF78EFF6570012000F09EF8074612E05A
:105810003A2801D065700EE0A570A5806670FFF78C
:1058200091FF08E09DF800003A2804D1FFF78AFFB5
:10583000A580A57066703846F8BD0000BC00002049
:105840000A4810B54178012909D0022907D04178CA
:10585000012906D04078022803D0AFF30080002150
:105860004170FFF75DFF002010BD0000BC0000206C
:1058700070B5294C0026607808B1AFF3008020781D
:105880000025052846D2DFE800F041030A31360042
:105890003A2000F091F802202070A5703AE0E088EC
:1058A000F0B1A1781C48C06811B1012932D108E0DB
:1058B00000780009FFF7DAFE00F07EF80120A07002
:1058C00028E0007800F00F00FFF7D0FE00F074F839
:1058D000E068401CE060A570E088401EE08019E0B0
:1058E0000D2000F069F80320207013E0E07800F04C
:1058F00063F80420F8E72570032000F025F8064639
:1059000000210120FFF7E2FE257003E000210120C5
:10591000FFF7DCFE304670BDBC00002005490246A2
:1059200000204B78002B04D00878107000204870BD
:1059300001207047DC00002002490020487001204F
:1059400070470000DC000020024901224A70087004
:1059500010467047DC0000200249096801700120F0
:105960007047000004440040124810B5104AC0E9D6
:10597000002100210C22C160C0E905214FF48052B2
:10598000C161012B09D0022B0AD001618160094855
:10599000FDF705FA48B1002010BD4FF4C06101E0E9
:1059A0004FF4806182600161F1E7012010BD0000C9
:1059B000004400407802002001490860012070473F
:1059C0000444004030B587B000251A4C009501957D
:1059D00002950395049516490595216040F60F61DF
:1059E000401E6160C4E9025025612046A561FDF7B3
:1059F00033F870B94FF48050009069462046FDF7A7
:105A0000B7F830B9049504A920460595FCF7F0FFD6
:105A100010B1002007B030BD21686FF001000861AF
:105A20002068C16841F00101C1600120F2E7000077
:105A300000040040E801002038B5174C002520780C
:105A400008B1AFF300806846FFF786FF607830B199
:105A5000124A012807D0022810D0032801D1FFF7ED
:105A600071FE284638BD0020A0809DF80000A18866
:105A70000A44491CA180107002200BE0A088FF2876
:105A800007D89DF80010A0880244401CA080117027
:105A9000E5E703206070E2E7D0000020E00200208C
:105AA00070B50E4D0024687870B102280BD0032821
:105AB0000DD0687858B16878022808D06878032833
:105AC00005D0AFF300800120FFF73EFF0446FFF74B
:105AD00027FE01206870204670BD0000D000002025
