:020000040800F2
:1020000018160020012100085D6A000887590008A1
:10201000ED690008E93200081D73000800000000A7
:10202000000000000000000000000000696C0008D3
:10203000B734000800000000FD6B00086B6C00085E
:102040001B2100081B2100081B2100081B21000880
:102050001B2100081B2100081B2100081B21000870
:102060001B2100081B2100081B2100081B21000860
:102070001B210008813400081B2100081B210008D7
:102080001B2100081B2100081B2100081B21000840
:102090001B2100081B2100081B2100081B21000830
:1020A0001B210008E96C00081B2100081B21000807
:1020B0001B2100081B210008F56C00081B210008EB
:1020C0001B2100081B2100081B2100081B21000800
:1020D0001B2100081B2100081B210008F1710008CA
:1020E0001B2100081B2100081B210008DFF80CD071
:1020F00000F022FF00480047A980000818160020C1
:102100000648804706480047FEE7FEE7FEE7FEE791
:10211000FEE7FEE7FEE7FEE7FEE7FEE7E56C000808
:10212000ED200008202A04DB203A21FA02F00021E9
:10213000704721FA02F3D040C2F1200291400843D7
:1021400019467047A0F14101192900D82030704785
:102150000649074A0868504343F2390210440860B0
:1021600040087047014908607047000044000020A3
:102170006D4EC64140EA01039B0703D009E008C940
:10218000121F08C0042AFAD203E011F8013B00F83C
:10219000013B521EF9D27047D2B201E000F8012B88
:1021A000491EFBD270470022F6E710B513460A46D7
:1021B00004461946FFF7F0FF204610BD30B505462E
:1021C0002A460B4612F8010B13F8014B08B1A04246
:1021D000F8D01CB1002802D06D1CF1E7284630BDB4
:1021E00010B5044604E00B7800F8013B03B1491C2C
:1021F000521EF8D2204610BD421C10F8011B0029C7
:10220000FBD1801A704710B5002200E0521C835C9D
:102210008C5CA34201D1002BF8D1D8B2E1B2401AB4
:1022200010BD034611F8012B00F8012B002AF9D14B
:102230001846704730B505460020034600E05B1C99
:10224000934205D2EC5CC85C201A01D1002CF6D177
:1022500030BD00002DE9FF4F087883B09946FF2874
:1022600005D0491C2D2804D00024002008E00020BF
:102270000BE00124F9E700EB800003EB4000491C70
:102280000B78FF2BF7D104B140420023029314785E
:1022900019461D462D2C01D02B2C04D1521C2D2C5F
:1022A00013D000240294AA461478FF2C0FD00A25DC
:1022B000A3FB057801FB05814FF0000C03FB0C111B
:1022C000521CE3194AEB0101EEE70124EAE78144DD
:1022D00053EA010002D019F5C87F06DA03980021FD
:1022E000C0E9001107B0BDE8F08F0025AE4E2F46C3
:1022F000DFF8B882184600F0FBFDCDE90001B9F126
:10230000000002DAC9F1000400E004460023A74AF5
:102310001AEB030B42EB045A12E0E00707D02A46FF
:1023200033463846414600F094FA074688462A4626
:1023300033461046194600F08CFA05460E466410E6
:10234000002CEAD1DDE90001B9F1000F5A465346ED
:1023500006DA00F0F0FA3A46434600F0ECFA05E0FF
:1023600000F077FA3A46434600F073FA029A0AB14F
:1023700081F00041039AC2E90001B3E72DE9FF4F64
:102380001F468DB0D7E901464FF0FF382E20454655
:102390004FF000090B90B9696D1C0E988847396A97
:1023A000824688470028F6D1BAF1FF3F0AD024F4CC
:1023B000D064002E11DDBAF12B0F08D0BAF12D0F29
:1023C0000BD102E0404611B08DE744F48064B96956
:1023D0006D1C0E9888478246761E6946600501D5B9
:1023E0002D2000E02B208DF8000001F1010B0DF1F4
:1023F000200809E0B9696D1C0E98884782460F983D
:1024000044F40074761E0560002E02DDBAF1300F30
:10241000F0D00B998A453ED144F0800406E00F9934
:10242000681CA9F1010944F400740860B9696D1CC5
:10243000761E0E98884782463028F0D02BE00B9904
:102440008A4505D1200603D444F08004761E18E0A6
:10245000504605F041F908B30DF11301761E44F41E
:1024600000748B4508D2AAF130000BF8010B20064E
:1024700007D5A9F1010003E0200602D409F101000B
:102480008146A00502D50F99681C0860B9696D1CCA
:102490000E9888478246002ED1DC53E0002E51DD95
:1024A000BAF1650F02D0BAF1450F4BD1A00549D55D
:1024B000B9696D1C24F44074761E0E9888478246D4
:1024C000002E0CDD2B2804D0BAF12D0F07D144F4D7
:1024D0008074B9696D1C0E9888478246761EE005A7
:1024E00001D52D2100E02B2108F8011BCDF82C800F
:1024F00021E00DF12901761E44F4007488450CD2C8
:10250000AAF1300010F0FF0088F8000002D10B990A
:10251000884509D908F1010806E0E00501D52448FD
:1025200001E042F20F708146B9696D1C0E98884730
:1025300082460F980560002E04DD504605F0CCF869
:102540000028D6D1F9690E988847FF208BF8000043
:1025500088F800000020069007904B466A4608A9BC
:1025600006A8FFF777FEA00502D46FF001002AE766
:1025700014F0240F0AD0E00714D1DDE90612386800
:10258000031D3B600068C0E900120BE0DDE90601B5
:1025900000F0CCFA0146E00704D13868021D3A6029
:1025A0000068016028460EE7000014400000F03F7C
:1025B000F1D8FFFF2DE9F04791460F4680460446CB
:1025C000002614F8015B2DB100F034FB0068405D7B
:1025D000C007F6D12B2D02D02D2D18D0641E4A46EF
:1025E0003946204600F053FB27B13968A14201D19A
:1025F000C7F8008071054FF002040BD54042002857
:1026000003DD04F03DFF0460A007BDE8F08746F459
:102610008066E4E70028F8DA04F032FF04606FF027
:102620000040F2E780EA010210B502F000434000EA
:1026300022D04A001FD0010E01EB1261C0F35600F8
:10264000C2F3560240F4000042F40002A0FB022054
:1026500000047F39140400D0401C50EA124001D419
:102660004000491EC2B20C0604EBD010401C4008CA
:10267000802A02D003E0002010BD20F001000029D4
:1026800000DA0020184310BD30B480EA010202F0E5
:10269000004530F0004221F0004013D090B1C30D4E
:1026A000D40DC2F31601C0F31600E41A41F4000180
:1026B00040F400027D34914201D3641C00E04900E3
:1026C000002C02DA30BC002070474FF400000023D9
:1026D000914201D3891A034340084FEA4101F7D1DF
:1026E00051B1914202D14FF0004105E002D24FF0CA
:1026F000010101E06FF0010103EBC450284430BC3C
:1027000000F062BB2DE9FE4F804681EA0300C00F56
:102710000C46009021F0004123F00045B8EB020088
:10272000A94105D24046214690461C460B4602462A
:1027300023F00040104347D0270DC7F30A00C3F32E
:102740000A510290401A019040286BDAC3F313003B
:1027500040F4801B0098924620B10023D2EB030A7C
:1027600063EB0B0B01985946C0F14002504600F054
:1027700040FA06460D4650465946019A00F048FA7E
:1027800010EB08006141002487EA115284EAE773E4
:102790001A4340D0009A62B3019A012A4FEA0752C5
:1027A00015DC001B61EB02014FF0004202EA075208
:1027B000CDE90042001C41F5801132462B4600F065
:1027C00049FB03B0BDE8F08F40462146F9E7001B06
:1027D00061EB0201001C41F5801300185B412018D9
:1027E000A2F5001747EB030140EAD570B6196D4119
:1027F00011E06D084FEA360645EAC0754FEA075208
:10280000001B61EB0201001C41F5801149084FEAF1
:1028100030000019514132462B4603B0BDE8F04F5D
:1028200000F009BB0098012240000023D0EB020217
:1028300063EBE073009821464FEAE074B8EB0000C8
:1028400061EB0401E9E783F000435BE781F00041BD
:1028500058E72DE9FE4F81EA030404F0004421F01B
:10286000004100944FF0000B23F0004350EA0104B4
:102870005ED052EA03045BD0C3F30A54C1F30A5595
:102880002C44A4F2F3340194A0FB0254C1F31301CD
:1028900041F48011C3F3130343F4801301FB02449A
:1028A00000FB034E840A970A44EA815447EA83579F
:1028B000A4FB076802958D0A05FB07854FEA932C58
:1028C00004FB0C542705029D4FEA065847EA1637C9
:1028D000B5EB08056EEB070C870E920E47EA8117E1
:1028E00042EA8312A7FB0201B6EB0B0164EB000482
:1028F0002B0D43EA0C335E1844EB1C50DA4651466C
:10290000E7FB0201C5F313044FEA0B3343EA145308
:102910004FEA0432019C43EA0603A4F10C0402943A
:10292000009CCDE900B400F095FA03B0BDE8F08F4B
:1029300000200146F9E72DE9F04D81EA030404F097
:10294000004B21F0004514464FF0000A23F00041EF
:1029500050EA050220D054EA01021DD0C5F30A57FF
:102960000246C5F31303C1F31300C1F30A5640F442
:10297000801543F48013A7EB0608101BD64608F217
:10298000FD3873EB050002D308F1010801E092184D
:102990005B41B8F1000F03DA00200146BDE8F08D7D
:1029A00000204FF48011064684460EE0171B73EB9F
:1029B000050705D3121B63EB050306434CEA010C24
:1029C00049084FEA300092185B4150EA0107EDD107
:1029D00052EA030012D082EA040083EA05010843A8
:1029E00005D0101BAB4106D20122002306E00022D5
:1029F0004FF0004302E06FF0010253101AEB0600A3
:102A00004CEB085110EB0A0041EB0B01BDE8F04D17
:102A100000F011BA70B521F0004303430CD0C1F3AC
:102A20000A550024D5EB040564EB0403D617AD1A50
:102A3000B34102DB0020014670BD201841EB02517A
:102A400070BD96230022114600F0C7B90EB540F2C2
:102A5000334102910021CDE900110A460B4600F0F6
:102A6000F9F903B000BD20F00040C10DC0F316001D
:102A700040F400007F2901DA00207047962903DC2A
:102A8000C1F19601C840704796398840704770B5CB
:102A9000C1F30A5201F000450024C1F3130140F2D2
:102AA000FF3341F480119A4201DA002070BD40F2F8
:102AB00033439A42A2F2334203DC5242FFF732FB25
:102AC00000E090402C43F1D0404270BD30B5041E70
:102AD00071F1000404DB4FF00044404264EB01015B
:102AE000141E73F1000405DB1C464FF000435242F4
:102AF00063EB04038B4208BF824230BD30B5041E35
:102B000071F1000404DB4FF00044404264EB01012A
:102B1000141E73F1000405DB1C464FF000435242C3
:102B200063EB0403994208BF904230BD01F00043BB
:102B300030B421F0004150EA010206D00A0DA2F59E
:102B40006072C1F31301002A02DC30BC0020704720
:102B5000440F44EAC104C100E01830BC00EBC2508D
:102B600000F032B930B50B46014600202022012486
:102B700009E021FA02F59D4205D303FA02F5491B4B
:102B800004FA02F52844151EA2F10102F1DC30BD61
:102B90002DE9F05F0546002092469B468846064692
:102BA000814640241BE02846414647462246FFF71F
:102BB000B9FA53465A46C01A914110D311461846E5
:102BC000224600F016F82D1A67EB01084F46224600
:102BD0000120002100F00DF817EB00094E41201EE6
:102BE000A4F10104DFDC484631462A464346BDE8ED
:102BF000F09F202A04DB203A00FA02F100207047FF
:102C00009140C2F1200320FA03F31943904070472A
:102C1000202A06DBCB17203A41FA02F043EAE073A0
:102C200006E041FA02F3D040C2F12002914008438D
:102C300019467047004870475C8F000810B504467D
:102C4000FFF7F8FF0068005D00F0010010BD42686A
:102C500042B1016811F8013B23B1521EC0E90012D4
:102C6000184670470121C160881E704742685AB1FA
:102C7000C368016843B983688B4205D0491E521C62
:102C8000C0E90012002070474FF0FF3070472DE977
:102C9000F05F82460078002715468B460AF1010452
:102CA000B946302801D09DB113E014F8010B01277B
:102CB000782803D0582801D045B10AE00DB1102D75
:102CC00007D10027102514F8010B02E0082500E0C9
:102CD0000A250026B0460EE005FB080005FB06F1BC
:102CE000012701EB10461FFA80F8B6F5803F00D3AC
:102CF000B94614F8010B294600F030F90028EBDA48
:102D0000BBF1000F05D00FB1641E00E05446CBF8B4
:102D10000040B9F1000F06D004F0B2FB02210160BF
:102D2000C81EBDE8F09F48EA0640FAE70FB400234A
:102D300000B589B00CA900910B996FF00042CB60EF
:102D40001E4B06931E4B07930423CDE901321D4A07
:102D5000089202466B460020FFF710FB09B05DF8B1
:102D600014FB70B586B006464FF0FF300091CDE9F8
:102D70000101002015460C4604903246694604A81D
:102D8000FFF7D4FF02460498211825B108B1084680
:102D900000E020462860049800280DD0002A02DDBB
:102DA0000098884208D0081B0094CDE901043246FF
:102DB000694604A8FFF7BAFF06B070BD4F2C0008A3
:102DC0006D2C00083D2C00080029A8BF7047401C4E
:102DD000490008BF20F00100704710B4B0FA80FC31
:102DE00000FA0CF050EA010404BF10BC704749B16E
:102DF000CCF1200421FA04F411FA0CF118BF0121DE
:102E000021430843A3EB0C01CB1D4FEA00614FEABD
:102E1000102042BF002010BC704700EBC35010448C
:102E20000029A4BF10BC7047401C490008BF20F017
:102E3000010010BC704710B5141E73F1000408DACD
:102E4000401C41F1000192185B411A4301D120F06E
:102E5000010010BD2DE9F04D92469B4611B1B1FA2B
:102E600081F202E0B0FA80F220329046FFF7C1FE14
:102E700004460F4640EA0A0041EA0B0153465A460F
:102E8000084313D0114653EA010019D0C8F140029B
:102E90005046FFF747F905460E465046594642460A
:102EA000FFF7A7FE084305D0012004E0204639467D
:102EB000BDE8F08D0020054346EAE0762C43374319
:102EC0000A986305E40AA0EB08000022FD0A44EA20
:102ED00047540A3002D500200146E9E701051019E0
:102EE0006941DDE9084500196941BDE8F04DA2E7F7
:102EF0000EB540F2334202920022CDE90022134681
:102F0000FFF7A8FF03B000BDC1F30A52C1F31301DC
:102F100040F2FF3341F480119A4202DA0020014668
:102F2000704740F233439A42A2F2334202DC5242EB
:102F3000FFF7F8B8FFF75DBE064C074D06E0E06806
:102F400040F0010394E8070098471034AC42F6D3F0
:102F5000FFF7D0F8608F0008808F00083A2800D271
:102F6000303820F02002412A01D3A2F137008842F4
:102F700001D34FF0FF30704770B504460068816898
:102F8000C943C90717D1816821F00101816001F0AF
:102F90005DF905460AE000BF01F058F9401B022820
:102FA00004D920688068C043C00706D020688068C4
:102FB000C043C007F0D0002070BDA06A40F01000F0
:102FC000A062E06A40F00100E062012070BD0000F4
:102FD000F8B500260446009600688168C943C90711
:102FE0002DD0816841F001018160164816490068C2
:102FF000B0FBF1F000E0401E00900028FBD101F092
:1030000025F9054616E000BF01F020F9401B022813
:1030100010D920688068C043C0070BD0A06A40F078
:103020001000A062E06A40F00100E06284F82460D1
:103030000120F8BD20688068C043C007E4D10020AB
:10304000F8BD00004000002040420F002DE9FE4F77
:10305000012607270096002569463C48CDE901670F
:1030600000F07CFB08B100F080FA0024374800F043
:103070004FFD6421354800F0ADFC18B9334800F02D
:10308000EBFB0544641CE4B20A2CEFD30A24B5FB25
:10309000F4F0FFF7DBFCDFF8B8A04FF066394A46E2
:1030A0005346FFF7D6FBDFF8ACB000225B46FFF7D4
:1030B00042FCFFF73BFD2849FFF7B4FAFFF7D3FCCA
:1030C000DFF8988000256946A8F80C0010208DE8EC
:1030D000C1001E4800F042FB08B100F046FA00268D
:1030E0004FF47A77194800F013FD3946174800F07D
:1030F00071FC18B9154800F0AFFB0544761CF6B218
:103100000A2EEFD3B5FBF4F0FFF7A0FC4A46534676
:10311000FFF79FFB00225B46FFF70DFC104A114BA7
:10312000FFF794FB104A114BFFF705FC0022104BF0
:10313000FFF7E8FAFFF7FAFC0749FFF773FAFFF722
:1031400092FCA8F80E00BDE8FE8F00000C070020DE
:1031500066660A4000FEAF400000C84260020020E0
:10316000E17A14AE47E1F63F22FDF675E09C713F2F
:103170000000394070B500F019F80A4C084E31468D
:103180006068FFF74FFAFFF76EFC074D3146688025
:103190002068FFF747FAFFF766FCA88070BD0000C3
:1031A0000000C842000000206002002070B586B018
:1031B00000208DF800008DF800008DF800008DF8DB
:1031C00000008DF800008DF80000AC218DF80C1087
:1031D00033218DF80D1004468DF80E004FF6FF7563
:1031E000032303AA70212B48009501F021FA5020F7
:1031F00000F06EFE07E0012000F06AFE2046641C2D
:10320000A4B2642803D200F04FF80006F3D40623DA
:1032100001AA70211F48009501F0E2F89DF8050011
:103220009DF806109DF8074041EA002144EA01207C
:103230000009FFF70BFC0022174BFFF70AFB6FF0AA
:1032400009063246FFF7E6FB3246FFF7E3FBFFF7DE
:103250006DFC124D28609DF808109DF8090041EAA8
:10326000042140EA0120C0F31300FFF7EFFB002226
:103270000B4BFFF7EEFA3246FFF7CCFB3246FFF777
:10328000C9FB0022074BFFF7DEFAFFF74FFC68602F
:1032900006B070BD3C07002000005940000000202F
:1032A00000006940000049401CB54FF6FF700090D7
:1032B000012301AA7021034801F092F89DF804004F
:1032C0001CBD00003C070020064B4FF400510128B4
:1032D00005D0002805D10022184600F0B2BF012217
:1032E000FAE7704700100140FEE700002DE9F041C9
:1032F00004463D4892B04FF400718046FEF753FFFC
:1033000040223A4901A8FEF735FF01A92046FEF701
:1033100055FF07001ED001A8FEF76EFF38440A22B1
:103320000021FFF747F9064631A13846FEF746FF70
:10333000054630A13846FEF741FF5DB150B1421B52
:1033400029464046521CFEF74BFF3146404603F0EB
:1033500027F843E0402101A8FEF725FF26A101A898
:10336000FEF75FFF01A92046FEF728FF060013D0F5
:103370001FA1FEF723FF05461EA13046FEF71EFFE4
:1033800055B148B1421B29464046521CFEF728FF62
:10339000404603F0D1F821E0402101A8FEF703FFE9
:1033A0002546114C1BA1643CD4F870020090D4E96E
:1033B0009A2301A804F040F801A92846FEF7FEFE72
:1033C00005000FD001A8FEF717FF41194046D4F8B9
:1033D0007022FEF7CFFE012084F86402012012B0B3
:1033E000BDE8F0810020FAE7D80200206C880008D0
:1033F0007B0000007D00000076312F6465766963F4
:1034000065732F6D652F617474726962757465736D
:103410000000000076322F66772F726573706F6E32
:1034200073652F25642F6368756E6B2F25642C25BB
:10343000642C00000068C043002900D000BA704727
:103440004FF0FF3101607047F0B500240B4D11E0E3
:103450000E5D036873400360002306685B1C06F082
:1034600001077F422F4087EA5606DBB20660082B31
:10347000F3D3641C9442EBD3F0BD00002083B8ED7D
:10348000014800F015BC00006809002030B590F834
:1034900040500124AC40C56B6C60046863604368B5
:1034A000102B036803D099600068C26030BD9A6039
:1034B0000068C16030BD704710B50C46034603F08C
:1034C000AAFB10B14FF0FF3010BDD3F80022521C00
:1034D000D01702EBD0506FF30800101AC3F80002A7
:1034E000185C2070002010BD10B50C46034603F098
:1034F0009AFB10B14FF0FF3010BDD3F80422521CDC
:10350000D01702EBD0506FF30800101AC3F8040272
:103510001C54002010BDF0B516460D460746002489
:103520000BE029783846FFF7DFFF002802DA4FF07A
:10353000FF30F0BD641CA4B26D1CB442F1D3002076
:10354000F0BD30B585B00C46054600F071FD002099
:1035500002950090CDE9034004A9684600F0CAFC3A
:1035600000F01CFD05B0012030BD72B6FEE7000082
:1035700006490020C8610648016941F00401016163
:10358000016941F04001016170470000F809002025
:1035900000200240064A0021D16106490A6942F032
:1035A00002020A614861086940F040000861704702
:1035B000F809002000200240044B0022DA61044A8E
:1035C000136943F00103136101807047F80900207B
:1035D0000020024014480022C168CB06134904D5DC
:1035E000CA6942F00202CA611022C3685B0705D5AE
:1035F000CB6943F00103CB6142F00402C369DB07EE
:1036000007D0CB6943F00403CB61C16921F001010C
:10361000C161A2F58071013901D0C2607047C169F2
:1036200021F00101C161704700200240F80900202B
:1036300070B5054600F00AFE0646114C09E0681C0C
:1036400007D025B100F002FE801BA84201D903205B
:1036500070BDE068C007F2D1E068800601D5202087
:10366000E060E068C00605D4E069C00702D1E06808
:10367000400703D5FFF7AEFF012070BD002070BDED
:1036800000200240F8B500250446009590F824007B
:1036900001280BD0012084F824002046FFF76CFCA1
:1036A0002046FFF795FC060002D050E00220F8BD4E
:1036B000A06A20F4885040F00200A062022001F0CD
:1036C0004BF925490968B1FBF0F0400000E0401ECD
:1036D00000900028FBD12068816841F008018160DA
:1036E00000F0B4FD074608E000F0B0FDC01B0A285A
:1036F00003D920688068000715D420688068000717
:10370000F2D42068816841F00401816000F09EFDE0
:10371000074612E000F09AFDC01B0A280DD9206868
:103720008068400709D5A06A20F0020040F0100030
:10373000A06284F824500120F8BD2068806840070A
:10374000E8D4A06A20F0020040F00100A06284F8F2
:1037500024503046F8BD000040000020F8B5002499
:10376000009490F824202546012A12D0012280F8E6
:1037700024204A681F23072A0DD20668776B521E41
:1037800002EB820293409F430B6893401F43776391
:1037900019E00220F8BD06680D2A0AD2376BD21F45
:1037A00002EB820293409F430B6893401F433763B1
:1037B00009E0F76A0D3A02EB820293409F430B68DF
:1037C00093401F43F7620A68072306680A2A0AD350
:1037D000F7680A3A02EB420293409F438B6893409A
:1037E0001F43F76008E0376902EB420293409F43B2
:1037F0008B6893401F4337610A68102A01D0112A51
:1038000020D1124B02689A4217D193681B0219D437
:10381000936843F4000393600968102912D10C499E
:103820000C4A0968B1FBF2F101EB8101490000E0AB
:10383000491E00910029FBD104E0816A41F020017A
:103840008162012480F824502046F8BD0024014004
:103850004000002040420F000068C06C704700002C
:103860002DE9F0414FF0000704003D467ED0A06AEC
:10387000002628B9E66284F82460204600F07EF82D
:103880002046FFF779FBA16AC90600D420B1A06ADF
:1038900040F01000A06269E0A16A21F4885141F073
:1038A0000201A1626268E169237B0A4347EA43019E
:1038B0000A43A1684FF48077B94209D0012907D0A3
:1038C0005FF0000194F814C0BCF1010F02D00AE0CF
:1038D0003946F7E7F3B1A36A43F02003A362E36A32
:1038E00043F00103E3622368D3F804C02CF4694C6D
:1038F0004CEA010CC3F804C021688B68DFF870C083
:1039000003EA0C0313438B60A168B9420BD0012971
:1039100009D00CE0DFF85CC0A3690CEB43330B4328
:1039200043F40061DFE7218A0D05A5F580152168C4
:10393000CB6A23F470032B43CB62216889680E4B5A
:103940001940914208D1E662A16A21F0020141F0DA
:103950000101A162BDE8F081A06A20F0020040F000
:103960001000A062E06A40F00100E0620120F1E78F
:10397000FDF7E1FF00E0FFFFFE0E1FFF00B585B081
:103980000021009101910291039100680E49884243
:1039900018D10E48816941F400718161816901F497
:1039A00000710491816941F0040181618069694677
:1039B00000F00400049002200090032001900448CD
:1039C00000F04AFB05B000BD002401400010024099
:1039D000000801402DE9F84300270D4604460097F2
:1039E00000F034FC804620688168C90508D5A06ACB
:1039F00040F02000A06284F824700120BDE8F88324
:103A00004168C90503D4C06A10F4700F2AD002209F
:103A100000F0A2FF3B490968B1FBF0F6206803699A
:103A200039490B424FEA61014FEAA1121FD1C36825
:103A30004FEA611C13EA0C0F19D103690B4225D11F
:103A4000C068104222D1142023E0681C0AD02DB196
:103A500000F0FCFBA0EB0800A84203D92068006836
:103A6000800725D5206800688007EED52DE0036922
:103A70000B4202D1C168114206D0026923490A42B1
:103A800006D1C068084203D1542002E0292000E09A
:103A9000FC204643009816E0681C11D02DB100F0C0
:103AA000D5FBA0EB0800A8420AD90098B04207D283
:103AB000A06A40F00400A06284F8247003209DE70F
:103AC0000098401C0090B042E6D321686FF01200CD
:103AD0000860A06A40F40070A06220688068C0F3AB
:103AE000424007280CD1207B50B9A06A20F4807096
:103AF000A062A06AC00403D4A06A40F00100A062E2
:103B000000207BE7400000202449922449922400B1
:103B100070B5044690F8240001280DD0012084F8E7
:103B200024002046FFF754FA02004FF0000005D0B1
:103B300084F82400104670BD022070BDA16A40F2D6
:103B40000123994341F48071A1621F4D23681F49ED
:103B5000AB4218D10E6816F4702F14D0A66A46F442
:103B60008016A6620E68760505D5A66A26F400566C
:103B700046F48056A662A66AF6040AD5E66A26F0DE
:103B80000606E66206E0A66A26F48016A6625E686D
:103B9000E9E7E06284F824006FF002001860206812
:103BA0008368C3F34243072B05D1A84208D10968B3
:103BB00011F4702F04D0816841F480118160B9E75D
:103BC000816841F4A001F9E7002801400424014084
:103BD00010B590F821100022022905D0042181633C
:103BE00080F82020012010BD01680B6823F00E032F
:103BF0000B6001680B6823F001030B6090F8403004
:103C0000C46B012101FA03F3636080F8211080F88E
:103C10002020104610BD000010B590F8211000249F
:103C2000022903D00421816301243DE001680A6870
:103C300022F00E020A6001680A6822F001020A609E
:103C40001A4A0168914201D1012121E0174A143238
:103C5000914201D110211BE0144A2832914201D136
:103C6000891515E0114A3C32914201D189140FE0C7
:103C70000E4A5032914202D14FF4803108E00B4A93
:103C80006432914202D14FF4801101E04FF0807113
:103C9000064A083A5160012180F82110002180F87D
:103CA0002010416B01B18847204610BD080002403A
:103CB0002DE9F05FC16B0C6801680B68D0F840C05B
:103CC000042202FA0CF2494DDFF824A1494E4A4F72
:103CD000DFF828B1DFF828E122422CD05A072AD594
:103CE0000A68920603D40A6822F004020A60016896
:103CF000A94201D1042219E0514501D1402215E029
:103D0000B14202D14FF4806210E0B94202D14FF4C7
:103D100080420BE0594502D14FF4802206E0714504
:103D200002D14FF4800201E04FF080622F49083940
:103D30004A60C16A3BE04FF0020808FA0CF818EA42
:103D4000040F4FF000094FF0010235D05FEA83788D
:103D500032D50B689B0605D40B6823F00A030B6071
:103D600080F821200168A94201D1022219E05145C1
:103D700001D1202215E0B14202D14FF4007210E0CF
:103D8000B94202D14FF400520BE0594502D14FF431
:103D9000003206E0714502D14FF4001201E04FF00D
:103DA0000072124908394A6080F82090816A00291F
:103DB0001AD0BDE8F05F0847082505FA0CF5254242
:103DC00012D01B0710D50B6823F00E030B6090F880
:103DD0004010C36B02FA01F15960826380F8212020
:103DE00080F82090016BE2E7BDE8F09F08000240F8
:103DF0001C000240300002404400024058000240D3
:103E00006C00024030B528B308C813491422194485
:103E1000B1FBF2F18900C16310498163022141774E
:103E20001A6843F6F0718A43D0E900142143D0E9BF
:103E300002452C4321430469214344692143846999
:103E40002143114319600021416301224277017728
:103E5000084630BD012030BDF8FFFDBF0000024024
:103E600070B5044690F82000002501280CD00120F0
:103E700084F8200094F821600020012E06D084F8F8
:103E800020000225284670BD022070BD022684F85D
:103E90002160A0632068066826F0010606602046BF
:103EA000FFF7F4FAE06A00282068016802D041F0C8
:103EB0000E0106E021F0040101602068016841F074
:103EC0000A0101602068016841F001010160D9E741
:103ED00070B5044600F0BAF90546601C02D00448EB
:103EE0000078044400F0B2F9401BA042FAD370BD40
:103EF000340000202DE9F047054626480F460126EC
:103F0000017E01290FD00121814601762868DFF862
:103F100088804CF25034022808D0A2462046FFF791
:103F200087FBA8B131E00220BDE8F0872046FFF70B
:103F30007FFB08BB0120FFF71BFB2046FFF778FB48
:103F4000D8F81010064621F00401C8F810101CE043
:103F50004FF0FF303860AC6811E02046FFF71AFBE5
:103F60005046FFF765FBD8F81010060021F002015B
:103F7000C8F8101001D03C6007E004F58064D5E972
:103F8000020100EB8120A042E7D8002189F8181037
:103F90003046C9E7F80900200020024003480169C3
:103FA00041F08001016100207047000000200240C4
:103FB0002DE9F05F07461C4888460024017E15461F
:103FC0001E46012909D00121814601764CF2503A62
:103FD0005046FFF72DFB18B122E00220BDE8F09F0C
:103FE000012F02D0022F00D00427D346DFF83CA0D7
:103FF000220128463146FEF795F881B208EB4400CD
:10400000FFF7DAFA5846FFF713FBDAF8102022F030
:104010000102CAF8102018B9641CE4B2BC42E7D30C
:10402000002289F81820D9E7F80900200020024072
:10403000064900200A69120607D5054A4A60054A62
:104040004A600969090600D5012070470020024036
:1040500023016745AB89EFCD2DE9F84FDFF8B89123
:104060000024A9F1040B23460F2709F1040AABF140
:10407000040EC9E00125A5402A40AA427DD1674E21
:10408000D1F804C0ACEB0608B44532D014DCBCF166
:10409000030F3AD009DCBCF1000F2AD0BCF1010FAC
:1040A0001CD0BCF1020F31D11DE0BCF1110F17D0B3
:1040B000BCF1120F2AD119E0B8F5881F19D006DC1F
:1040C000B8F5803F15D0B8F5801F1FD111E0B8F5C5
:1040D000001F0ED0B8F5041F18D10AE0CB6815E018
:1040E000CB681B1D12E0CB6808330FE0CB680C33A4
:1040F0000CE08B682BB1012B4FF0080303D0456116
:1041000004E0042302E0056100E00023FF2A01D857
:10411000064601E000F104064FEA840501D9A5F145
:104120002005D6F8008007FA05FC28EA0C0803FAF7
:1041300005F548EA0508C6F800804D68ED0062D52F
:10414000374DAE6946F00106AE61AD6924F0030655
:1041500005F001050095334D06EB050CDCF8085021
:10416000A607360F07FA06F825EA0805DFF8B88033
:10417000404503D14FF0000817E044E0DFF8AC8081
:10418000404502D14FF001080FE0DFF8A480404520
:1041900002D14FF0020808E0DFF89880404502D1D4
:1041A0004FF0030801E04FF0040808FA06F848EA67
:1041B0000508CCF808804D68D9F80060ED024D463E
:1041C00001D5164300E096432E604D68DAF8006092
:1041D000AD02554601D5164300E096432E604D686A
:1041E000DBF80060AD035D4601D5164300E0964361
:1041F0002E604D68DEF80060ED03754601D516436C
:1042000000E096432E60641C0D682A46E5407FF46A
:1042100031AFBDE8F88F0000080401400000111024
:10422000001002400000014000080140000C014065
:1042300000100140001401408068084000D00120B7
:1042400070470AB1016170470904FBE701488068C3
:10425000704700003400002070B5040025D094F8A9
:104260003D00002520B984F83C50204600F076FA45
:10427000242084F83D002068016821F001010160DC
:104280002068016841F4004101602068016821F460
:104290000041016000F0DEFC4D4A6168914201D8A6
:1042A0004C4900E04C49884201D2012070BD4B4985
:1042B0002368B0FBF1F15E6826F03F060E435E60B6
:1042C0006368934206D94FF4967359434FF47A7357
:1042D000B1FBF3F12368491C1E6A26F03F06314307
:1042E00019626168914210D84900401EB0FBF1F29A
:1042F000521CC2F30B02042A01D2042022E0B0FBBC
:10430000F1F0401CC0F30B001CE0A268F2B301EB1B
:10431000C10303EB0116431EB3FBF6F35B1C43F42E
:1043200080431B0549D092B301EBC10202EB01119E
:10433000401EB0FBF1F0401CC0F30B0040F4804085
:1043400040F400402168CA694CF6FF739A43104359
:10435000C861D4E9071001432068026822F0C00256
:1043600011430160D4E9030101432068826848F2E7
:10437000FF339A4311438160D4E905010843216862
:10438000CA6822F0FF021043C86001E00EE016E0A8
:104390002068016841F0010101602564202084F853
:1043A0003D00256384F83E50002070BD01EB4106BE
:1043B000431EB3FBF6F35B1CB3E70120C2E701EB3E
:1043C0004101401EB0FBF1F0401CC0F30B00B7E709
:1043D000A086010080841E0000093D0040420F00BD
:1043E0002DE9F84F0025DDF82890984617468A46B3
:1043F00004460095FFF72AFF064694F83D00202862
:104400007AD11923012286492046009601F0C4FB87
:104410000028F5D194F83C0001286DD0012084F8E3
:104420003C0020680168C90703D1016841F001011F
:1044300001602068016821F400610160222084F895
:104440003D00102084F83E0025646762A4F82A80AD
:10445000608D20857348E06233464A4651462046C7
:1044600001F0AAFA00287CD1208DDFF8BC8120273A
:1044700068B1012814D00228206801681ED041F4D8
:10448000806101602068416980690090BBE020681C
:10449000416981690091016841F400710160B2E0F5
:1044A0002068016821F48061016072B6206841696A
:1044B00081690091016841F400710AE041F40061F2
:1044C000016072B62068416981690091016821F438
:1044D0008061016062B696E0032865D801280CD09F
:1044E00002284B464FF000024146204600960BD072
:1044F00001F052FBA8BB0CE090E032464946204652
:1045000001F0F0FB68BB71E001F046FB48BB72B6FE
:1045100033E02068016821F48061016072B6206890
:104520000069616A0870606A401C6062208D401EEC
:104530002085608D401E60853C4846F2A8110068C9
:10454000B0FBF1F0C0EBC00000EB80000090401E1B
:10455000009007D020684069C04340070DD50098FF
:10456000F5E727E044F8305F6773A573206940F0F2
:104570002000206162B625731CE02068016841F4C8
:104580000071016020680069616A0870606A401CFF
:104590006062218D491E2185618D491E618562B64B
:1045A00021680969017025E032464946204601F03C
:1045B00099FB10B10120BDE8F88F20680069616A9D
:1045C0000870606A401C6062208D401E81B22185A7
:1045D000608D401E608520684269D243520712D424
:1045E000032903D1016821F480610160206800691A
:1045F000616A0870606A401C6062208D401E2085E0
:10460000608D401E6085208D00287FF465AF84F8A2
:104610003D7084F83E5084F83C50CCE70220CAE755
:10462000020010000000FFFF040001004000002015
:104630002DE9F84F1F4690468A460446DDF828903B
:10464000FFF704FE054694F83D0020287FD119238A
:10465000012240492046009501F09EFA002876D1BB
:1046600094F83C00012872D0012084F83C002068B6
:104670000168C90703D1016841F0010101602068A8
:10468000016821F400610160212084F83D001020C0
:1046900084F83E0000262664C4F824806785608D77
:1046A00020852D48E0622B464A465146204601F0BF
:1046B000F9F990B9206841698069009036E02A468E
:1046C0004946204601F046FB50B1206C042804D135
:1046D0002068016841F4007101600120BDE8F88F95
:1046E000606A216800780861606A401C6062618DC0
:1046F000491E6185218D491E89B221852268536931
:10470000DB435B070BD451B100781061606A401C39
:104710006062608D401E6085208D401E20852A4687
:104720004946204601F00CFA0028CED1208D002801
:10473000C5D154F83D0B016841F40071016020209F
:1047400004F81E09E67766770020C7E7FFE7022036
:10475000C4E70000020010000000FFFF10B586B0A3
:104760000021009101910291039100680F49884254
:104770001AD10F4CA06940F00800A061A0696946F9
:1047800000F008000490C020009012200190032047
:1047900003900848FFF760FCE06940F40010E06116
:1047A000E06900F40010049006B010BD0054004011
:1047B00000100240000C0140024881680278114458
:1047C0008160704734000020074810B5016841F04F
:1047D00010010160032000F09BF80F2000F006F8A4
:1047E00000F04AF8002010BD0020024030B5054618
:1047F0001C4887B0816941F400618161806906A924
:1048000000F40060009001A800F004FA00F032FA11
:104810001549164AB0FBF1F11548491E0260416086
:1048200040F2E7320021C0E903218160816100F09C
:104830001DFC040012D10E4800F064FC04000DD1F0
:10484000192000F037F8102D07D200222946192030
:1048500000F03EF80748056000E0012407B020465C
:1048600030BD00000010024040420F00002C01400B
:10487000AC090020380000200C4808B5816941F0DF
:1048800001018161816901F001010091C16941F07B
:104890008051C161C06900F08050009004484168B7
:1048A00021F0E06141F00071416008BD001002405C
:1048B00000000140002809DB00F01F0201219140A7
:1048C0004009800000F1E020C0F8001170470000AE
:1048D000F0B40E4B1B680C46C3F30223C3F107056B
:1048E000042D00D90425191D072901D2002300E059
:1048F000DB1E012606FA05F1491E214099409E4023
:10490000761E16403143F0BC02F0AABD0CED00E06B
:10491000064900F0070208684FF6FF03184040EA16
:104920000220034A10430860704700000CED00E0CD
:104930000000FA05BFF34F8F05480168054A01F4EE
:10494000E06111430160BFF34F8F00BFFDE700003E
:104950000CED00E00400FA0510B501460020234CE0
:10496000012922D0022939D010291DD1616822687D
:10497000D20119D51E48C1F38342C903805C0AD510
:1049800061681B4AC1F34041921E515C194AB2FB57
:10499000F1F1484301E0184948436168490203D4F2
:1049A00040000321B0FBF1F010BD226AC2F30121E7
:1049B000012903D1920701D5C80310BD022905D1F1
:1049C000626A920702D549F6404010BD0329FCD126
:1049D00021688903F9D54FF2244010BD00F04AF94F
:1049E0006168C1F38131491C4900DBE700100240D6
:1049F000B08E000800127A0000093D002DE9F8434E
:104A000005460078354CC00754D0E0690026C00048
:104A100008D4E06940F08050E061E069012600F0D0
:104A2000805000902E480168C90512D40168804664
:104A300041F480710160FFF709FC074605E000BF03
:104A4000FFF704FCC01B642823D8D8F80000C00579
:104A5000F6D5206A10F4407021D0A98801F4407185
:104A600081421CD0206A1F49012220F440700A6054
:104A700000220A602062C00711D0FFF7E7FB07465B
:104A800041F2883808E000BFFFF7E0FBC11B414559
:104A900002D90320BDE8F883206A8007F4D5206A94
:104AA000696820F44070084320621EB1E06920F07C
:104AB0008050E0612878800705D56068A96820F4F7
:104AC0004040084360602878C00605D56068E96802
:104AD00020F48000084360600020DBE70010024003
:104AE00000700040400442422DE9F0470F460500A7
:104AF00061D0434E306800F00700B84209D23068F8
:104B000020F0070038433060306800F00700B842FA
:104B100051D128683B4C810712D5400703D5606806
:104B200040F4E06060602878000703D5606840F4D6
:104B3000605060606068A96820F0F0000843606021
:104B40002878C00728D06868012810D0216802287A
:104B500010D0890700292EDA616821F00301014392
:104B60006160FFF773FB804641F288390DE02168F0
:104B70008903EFE78901EDE7FFF768FBA0EB080188
:104B8000494502D90320BDE8F0876068696800F0F4
:104B90000C00B0EB810FEFD1306800F00700B84295
:104BA0000BD9306820F0070038433060306800F0DF
:104BB0000700B84201D00120E5E72878400705D575
:104BC0006068E96820F4E0600843606028780007C6
:104BD00006D56068296920F4605040EAC100606031
:104BE00000F058F86168084AC1F30311515CC840ED
:104BF0000649086006480068FFF7F8FD0020C2E794
:104C00000020024000100240C08E0008400000203A
:104C1000380000200F2202600C4A536803F003039F
:104C20004360536803F0F0038360536803F4E06368
:104C3000C36052684FF4E06303EAD20202610448A1
:104C4000006800F007000860704700000010024094
:104C5000002002400448054900684968044AC1F33D
:104C60000221515CC8407047400000200010024003
:104C7000D08E00080448054900684968044AC1F319
:104C8000C221515CC8407047400000200010024023
:104C9000D08E00080E4A51680E4801F00C03042B18
:104CA00011D0082B0FD10C48C1F38343C903C05C5A
:104CB0000AD55168084AC1F34041921E515C054A29
:104CC0005043B0FBF1F0704704494843704700007F
:104CD0000010024000127A009E8E000800093D007C
:104CE0002DE9F84F040070D02078C04DC00749D09E
:104CF0006868C0F38100012807D06868C0F38100AC
:104D0000022809D16868C00306D52868800339D510
:104D100060680028E7D035E06068B0F5803F0BD0D0
:104D200010B1B0F5A02F11D0286820F48030286091
:104D3000286820F4802002E0286840F48030286051
:104D4000606890B1FFF782FA06460AE0286840F4EE
:104D500080202860F0E700BFFFF778FA801B642806
:104D600073D828688003F7D50CE0FFF76FFA064682
:104D700005E000BFFFF76AFA801B6428F0D82868B6
:104D80008003F7D420789A4E80074FF001094FF046
:104D9000000839D5686810F00C0F07D06868C0F3B8
:104DA0008100022809D16868C00306D428688007FA
:104DB00014D52069012808D110E02069B0B1C6F8E7
:104DC0000090FFF743FA074605E00AE1FFF73EFAD5
:104DD000C01B0228C4D828688007F7D528686169F5
:104DE00020F0F80040EAC10028600DE0C6F800801D
:104DF000FFF72CFA074604E0FFF728FAC01B022849
:104E000023D828688007F7D4207800072CD5794864
:104E1000A169D9B1C0F80090FFF718FA074604E07D
:104E2000FFF714FAC01B02280FD8686A8007F7D56D
:104E300071484FF4FA510068B0FBF1F0009000BFE8
:104E40000098411E0091FAD20EE080E0C0F8008088
:104E5000FFF7FCF9074604E0FFF7F8F9C01B02284A
:104E600075D8686A8007F7D42078400760D5E8696C
:104E70000027C00008D4E86940F08050E861E86984
:104E8000012700F0805000905C480168C90513D4E8
:104E90000168834641F480710160FFF7D7F98246CB
:104EA00006E000BFFFF7D2F9A0EB0A0064284ED855
:104EB000DBF80000C005F5D5E06801280AD008B18C
:104EC000052813D0286A20F001002862286A20F003
:104ED000040002E0286A40F001002862E06841F224
:104EE000883B98B1FFF7B2F982460BE0286A40F0A0
:104EF00004002862EEE700BFFFF7A8F9A0EB0A0163
:104F000059455AD8286A8007F6D50CE0FFF79EF974
:104F1000824605E0FFF79AF9A0EB0A0159454CD803
:104F2000286A8007F6D41FB1E86920F08050E86154
:104F3000E06988B36968C1F38101022944D002287D
:104F4000C6F8608004D0FFF781F9044638E034E009
:104F5000FFF77CF9074604E0FFF778F9C01B022849
:104F60002BD828688001F7D4206AB0F5803F05D19E
:104F70006868A16820F4003008436860D4E908013B
:104F80000843696821F4741108436860C6F86090AA
:104F9000FFF75CF9044606E025E000BFFFF756F98D
:104FA000001B022809D828688001F7D51BE000BF44
:104FB000FFF74CF9001B022802D90320BDE8F88F47
:104FC00028688001F4D40EE00128F7D06868226ACE
:104FD00000F48031914204D1616A00F4701088427B
:104FE00001D00120EAE70020E8E7000000100240BD
:104FF0000000424280044242400000200070004015
:105000007047704770B590F83C20012A26D00124E3
:1050100080F83C40022280F83D2003685A689D6871
:1050200022F070060A6832435A600D4B02689A42B9
:1050300008D0B2F1804F05D00A4B9A4202D00A4BF9
:105040009A4204D1496825F080031943916080F8A1
:105050003D40002180F83C10084670BD022070BD24
:10506000002C0140000400400008004010B504007E
:1050700003D094F83D0010B107E0012010BD0020DE
:1050800084F83C00204600F01FF8022084F83D0020
:10509000211D206801F034FE012084F8460084F8C8
:1050A0003E0084F83F0084F8400084F8410084F812
:1050B000420084F8430084F8440084F8450084F8F2
:1050C0003D00002010BD000008B500680B49884273
:1050D00012D10B48C16941F00401C161C0690022CD
:1050E00000F00400009011461E20FFF7F1FBBDE820
:1050F00008401E20FFF7DEBB08BD0000000800408E
:105100000010024090F83D10012901D001207047A5
:10511000022180F83D100168CA6842F00102CA60AD
:1051200000680B49884208D0B0F1804F05D009498A
:10513000884202D00849884204D1816801F0070101
:10514000062903D0016841F0010101600020704789
:10515000002C0140000400400008004001680A6A79
:1051600041F211131A4207D10A6A9B101A4203D165
:105170000A6822F001020A60012180F83D10002037
:10518000704770B5044690F83C000025012817D000
:10519000012684F83C60022084F83D002068826883
:1051A00022F0770222F47F4282600868502838D0CB
:1051B0000DDC20284FD005DC90B3102811D14AE037
:1051C000022070BD302846D040280AD13BE060283C
:1051D0002FD070280DD0B0F5805F03D0B0F5005F00
:1051E00012D0012584F83D60002084F83C00284658
:1051F00070BDCB68D1E90121206801F0BDFD2068B8
:10520000816841F0770109E0CB68D1E9012120688C
:1052100001F0B2FD2068816841F480418160E1E7DE
:1052200019E0CA684968206801F0B8FD502120687B
:1052300006E0CA684968206801F0C1FD6021206865
:1052400001F0A4FDCEE7CA684968206801F0A6FD18
:1052500040212068F4E7226801461046F0E77047D5
:105260002DE9F04104460068C66805694FF0000763
:10527000A90713D5B10711D5F91E016101202077C7
:10528000206880698007204602D0FFF7E8FF04E02D
:1052900000F07EF8204600F07CF82777680716D5E6
:1052A000700714D521686FF0040008610220207790
:1052B0002068806910F4407F204602D0FFF7CFFFBE
:1052C00004E000F065F8204600F063F8277728072F
:1052D00015D5300713D521686FF008000861042048
:1052E00020772068C0698007204602D0FFF7B7FF0B
:1052F00004E000F04DF8204600F04BF82777E80670
:1053000016D5F00614D521686FF01000086108204A
:1053100020772068C06910F4407F204602D0FFF754
:105320009EFF04E000F034F8204600F032F82777C2
:10533000E80708D0F00706D021686FF00100086187
:10534000204600F027F8280608D5300606D5216843
:105350006FF0800008612046FFF752FE680608D50E
:10536000700606D521686FF040000861204600F005
:105370004FF8A8060AD5B00608D521686FF02000BE
:1053800008612046BDE8F041FFF73BBEBDE8F08173
:105390007047704770B504460068154DA84201D1AA
:1053A000FFF70AFA2068A84216D112480023012408
:1053B0000168491C01604268521C4260B1F5FA7FE5
:1053C00002D30D4903600C7041F288318A4202D346
:1053D00043600A48047070BD09498842FBD10948FE
:1053E000FFF7BCFE084801F09BFF0849087070BD3C
:1053F000002C0140280000201C0000201D0000207F
:1054000000080040900700205800002020000020E5
:105410007047704710B504460068406994F8411021
:10542000C0F3C010212911D180B12068143050E898
:10543000001F21F0800140E80012002AF5D1A06B86
:1054400008B1FEF7C5FB204601F084FD20684069E5
:1054500094F84210C0F38010222911D180B1206845
:10546000143050E8001F21F0400140E80012002AEB
:10547000F5D1E06B08B1FEF7ABFB204601F043FD30
:10548000002010BD70470000F8B5016804460868A8
:10549000CA684B6910F00F0F4FF0000559D003F0A8
:1054A000010602F49077374365D0C10705D0D105D6
:1054B00003D5616C41F001016164410705D5D9074D
:1054C00003D0616C41F002016164810705D5D90701
:1054D00003D0616C41F004016164010707D502F05B
:1054E0002001314303D0616C41F008016164616CBB
:1054F00000293AD0800604D5900602D5204601F056
:1055000037FD20684069616CC0F38010090700D442
:1055100060B3204601F0F7FC20684069400621D5C1
:105520002068143050E8001F21F0400140E80012CC
:10553000002AF5D1E06BA8B16D494163E06BFEF73D
:105540006BFB002811D0E06B416B01B0BDE8F0406F
:10555000084783060FD593060DD52046BDE8F840D1
:1055600001F006BD2046FFF78DFFF8BD2046FFF78E
:1055700089FF6564F8BD266B2023012E7CD1C60609
:105580007AD5D60678D508684868009048694FF003
:105590000206400640D5E16B086840680004000C34
:1055A000E8D0A28D8242E5D9E085886920282DD0F7
:1055B00020680C3050E8001F21F4807140E8001290
:1055C000002AF5D12068143050E8001F21F00101B5
:1055D00040E80012002AF5D12068143050E8001F7E
:1055E00021F0400140E80012002AF5D184F8423051
:1055F000256320680C3050E8001F21F0100140E8BE
:105600000012002AF5D1E06BFEF7E2FA6663A08D86
:10561000E18D401A81B22AE0A08DE18D401A81B25D
:10562000E08D0028A6D00029A4D022680C3252E8D0
:10563000000F20F4907042E80007002FF5D1206899
:10564000143050E8002F22F0010240E80027002F1C
:10565000F5D184F84230256320680C3050E8002FE3
:1056600022F0100240E80023002BF5D166632046AB
:10567000FFF7CFFEF8BDFFE705062BD5150629D5A8
:1056800094F841002128F5D1A068B0F5805F01D1E0
:105690002069B0B1206A411C21622168007848600D
:1056A000E08C401E0004000CE084E3D12068C16857
:1056B00021F08001C1602068C16841F04001C160F3
:1056C000D8E7206A0088C0F308004860206A801C80
:1056D0002062E5E74006CDD55006CBD5CA68204606
:1056E00022F04002CA6084F8413000F04BF9C1E773
:1056F000096E000870B5040004D094F8410000253C
:1057000010B106E0012070BD84F84050204600F042
:1057100023F8242084F841002068C16821F4005156
:10572000C160204601F086FC2068016921F49041A7
:1057300001612068416921F02A0141612068C16846
:1057400041F40051C1606564202084F8410084F870
:1057500042006563002070BDF0B585B0002500955E
:1057600001950295039506460368354F0220354999
:1057700003224402BB4221D18B6943F480438B61F5
:105780008B6903F4804304938B6943F004038B61BA
:1057900089692D4E01F0040104910102CDE9001048
:1057A000039269463046FEF757FCCDE9004569464D
:1057B00030460295FEF750FC05B0F0BD234FBB42CA
:1057C000FAD1CB6943F48023CB61CB6903F4802306
:1057D00004938B6943F008038B61896901F0080128
:1057E000CDE90321CDE90040194C69462046FEF77A
:1057F00033FCE014CDE90005694620460295FEF72A
:105800002BFC154C1348C4E900058020C4E9025064
:1058100020202561C4E905500002E0612046FEF722
:10582000F1FA08B1FDF7A1FEF4630022114627202A
:105830006662FFF74DF82720FFF73CF8BCE7000051
:1058400000380140001002400008014000480040BC
:10585000000C0140300002406809002090F84230FE
:10586000202B01D00220704721B11AB1002303631D
:1058700001F03CBC0120704710B500680749884220
:105880000AD1074C20784142CAB206490144064871
:10589000FDF741FE0020207010BD000000480040D0
:1058A00030000020D80700205800002070B50068A4
:1058B000084988420DD1084C2078C0F18001CDB252
:1058C00006492A4601440648FDF725FE207828446B
:1058D000207070BD0048004030000020D807002034
:1058E000580000202DE9F843044690F841009846FE
:1058F00016460D46202802D00220BDE8F88385B167
:105900007EB100206064212084F84100FEF79EFCF7
:10591000A6848146E684A0682027B0F5805F02D087
:1059200003E00120E9E7206910B12E4600250EE0D2
:1059300000260CE08021204601F020FCA8B9C6B169
:1059400016F8010B21684860E08C401EE084E08C72
:105950004B464FF00002CDF800800028EAD14FF00E
:105960004001204601F00AFC40B184F84170032058
:10597000C3E735F8020BC0F30800E3E784F8417091
:105980000020BAE77047FEE701684A69D243520532
:105990000FD46FF480624A61002140F8301F20224A
:1059A00042738173026942F00402026101730120B3
:1059B00070470020704700002DE9F84F0446C06A88
:1059C0001E4693460D4621680A6842F480620A60CA
:1059D000082807D0012805D010F5803F02D0206BA1
:1059E000112804D12068016841F4807101604FF0F2
:1059F00001195B46002249462046009600F0CCF88B
:105A00004FF4007840B120680068C00501D5C4F8A3
:105A100040800320BDE8F88F2069DFF884A0B0F54E
:105A2000804F0FD00620216800EAD51747F0F0001C
:105A3000086133465A460AF10601204600F0F4F8A0
:105A400058BB03E0E8B240F001001CE02168E8B276
:105A5000086133465A465146204600F0E5F8E0B961
:105A60002068416981690091016841F48071016099
:105A70005B46002249462046009600F08DF800283B
:105A8000C1D147F0F1002168086133465A465146BA
:105A9000204600F0C9F80028BCD00120BAE7000079
:105AA00002000100F8B50446C06A1E460D461746BE
:105AB000082807D0012805D010F5803F02D0206BC0
:105AC000122804D12068016841F4807101601346F6
:105AD00000224FF001112046009600F05DF840B121
:105AE00020680068C00502D54FF4007020640320D0
:105AF000F8BD2069B0F5804F0ED00620216800EA7D
:105B0000D51040F0F000086133463A460B49204674
:105B100000F08AF878B902E005F0FE0000E0E8B293
:105B200021680861054933463A46891F204600F03E
:105B30007BF80028DCD00120F8BD0000080001003F
:105B400070B516460D4604461EE02046FFF71CFFC2
:105B500008B1012070BD681C16D0FEF777FB801BD2
:105B6000A84200D885B920684069C04340070BD5DA
:105B7000002044F8300F20216173A073216941F0A7
:105B8000200121612073E4E720684069C043400799
:105B9000DBD4002070BD00002DE9F0479846174681
:105BA0000D460446C1F30746DDF820902AE000BF09
:105BB000B8F1FF3F26D0FEF749FBA0EB09014145B4
:105BC00002D8B8F1000F1DD12068012E16D08069CF
:105BD00025EA00000004000C12D00020B84211D1C8
:105BE000002044F8300F20216173A073216941F037
:105BF0002001216120730120BDE8F0874069E7E7BB
:105C00000120EBE72068012E0AD0806925EA000018
:105C10000004000C06D00020B842C9D00020EBE7F9
:105C20004069F3E70120F7E72DE9F047984616466B
:105C30000D4604464FF000094FF0200AC1F3074714
:105C400023E020684069C043400515D420680168FE
:105C500041F40071016021686FF480604861C4F80C
:105C6000309084F83DA084F83E90216C41F004010E
:105C7000216484F83C9021E0701C06D0FEF7E6FA1F
:105C8000A0EB0800B04203D816B1012F1FD021E0CD
:105C90002068012F15D0806925EA00000004000C5F
:105CA00018D000BF44F8309F84F80DA084F80E90FF
:105CB000216941F02001216184F80C900120BDE8A8
:105CC000F087406925EA00000004000CEAD1206852
:105CD000406901E02068806925EA00000004000CAA
:105CE000AFD1ECE72DE9F041002590460E46044681
:105CF000202728E04069C043C0060CD454F8301B6C
:105D00006FF01000486144F810596777A577206A52
:105D10002062257714E0FEF799FAA0EB0800B04264
:105D200000D886B920684069C04340060BD544F8C6
:105D3000305F6773A573206940F0200020612573F0
:105D40000120BDE8F08120684169C9434906D1D4EA
:105D50000020F6E770B516460D4604461EE02046C4
:105D6000FFF712FE08B1012070BD681C16D0FEF7C7
:105D70006DFA801BA84200D885B920684069C043ED
:105D800000060BD5002044F8300F20216173A0736A
:105D9000216941F0200121612073E4E72068406916
:105DA000C0430006DBD4002070BD00007CB5002598
:105DB0008DF8045047208DF80500FF248DF806402B
:105DC000032301AA82210B480094FEF731FC052031
:105DD000FEF77EF805208DF8040014208DF80500EC
:105DE0008DF80650032301AA822102480094FEF791
:105DF0001FFC7CBD3C07002070B500F059F806463A
:105E000000F03AF8044600F06FF805463046FCF71B
:105E100018FE1349FCF706FC06462046FCF711FE67
:105E20001049FCF7FFFB1049FCF72EFC04462846FE
:105E3000FCF707FE0D49FCF7F5FB05460C4920462B
:105E4000FCF7F0FBFCF70FFE0A4CE0803046FCF755
:105E50000AFE20812846FCF706FE608170BD000026
:105E6000CDCCCC3D0000A03F00007A440000204093
:105E70000000C842600200203EB50BA0FF2400686D
:105E80000290012302AA822100940848FEF7D0FB69
:105E9000022301AA822105480094FEF7A1FABDF869
:105EA000040040BA3EBD0000020000003C07002094
:105EB0003EB50BA0FF2400680290012302AA8221B4
:105EC00000940848FEF7B4FB022301AA822105488A
:105ED0000094FEF785FABDF8040040BA3EBD00000C
:105EE000040000003C0700203EB50BA0FF24006822
:105EF0000290012302AA822100940848FEF798FB31
:105F0000022301AA822105480094FEF769FABDF830
:105F1000040040BA3EBD0000030000003C07002022
:105F20000A4B012808D002280ED1C001012906D051
:105F3000002909D1012203E04FF40070F6E70022A6
:105F400001461846FEF77DB970470000000C01407D
:105F500070B5A0B080216846FCF725F9484D0024B3
:105F60002C7048A14948FCF75CF949A1684601F04A
:105F700063FA6846FCF740F982B24FF47A7633460A
:105F800069464748FFF7AEFC304600F02BFF022879
:105F90006CD02C7043A1684601F04EFA6846FCF7BD
:105FA0002BF982B2334669463D48FFF79BFC3046E9
:105FB00000F018FF022859D02C703FA245A1684676
:105FC00001F03AFA6846FCF717F982B2334669469F
:105FD0003348FFF787FC304600F004FF022845D025
:105FE0002C7043A249A1684601F026FA6846FCF7E6
:105FF00003F982B2334669462948FFF773FC3046FD
:1060000000F0F0FE022831D02C7047A24DA1684666
:1060100001F012FA6846FCF7EFF882B2334669469F
:106020001F48FFF75FFC304600F0DCFE02281DD061
:106030002C704BA11548FCF7F4F84DA1684601F00F
:10604000FBF96846FCF7D8F882B233466946144833
:10605000FFF748FC494800F0C5FE01284FF0020355
:1060600007D047A20321002000F086FD002020B0C9
:1060700070BD48A20321002000F07EFD0120F6E75C
:10608000200000204F4B0D0A00000000EC0400200F
:1060900041542B4D514D554C54454E3D310D0A0048
:1060A0002009002041542B4D51545446494C54452D
:1060B000523D300D0A00000076312F646576696329
:1060C00065732F6D652F7270632F726571756573BF
:1060D000742F2B0041542B4D515355424D3D302CC4
:1060E000312C302C342C222573220D0A00000000A4
:1060F00076312F646576696365732F6D652F6174E2
:1061000074726962757465730000000041542B4D10
:10611000515355424D3D312C312C302C342C2225FD
:1061200073220D0A0000000076322F66772F726509
:1061300073706F6E73652F2B2F6368756E6B2F23D3
:106140000000000041542B4D515355424D3D322C1F
:10615000312C302C342C222573220D0A0000000033
:106160004D5154545F434F4E4E4543543A00000046
:1061700041542B524553540D0A00000020BF020029
:106180004D5154545365727665722E2E2E202D2D4E
:10619000000000004D5154545365727665722E2EE6
:1061A0002E204F4B000000002DE9F04F604C87B0CF
:1061B000206C050AC0F3850B10F0FF0F00D06D1C9A
:1061C0005C48FDF73DF929465BA001F025F91C214B
:1061D0006048FDF7B6F90026C4F87462FEF736F899
:1061E0000746FBF7B5FF80B204F51A7138444FF447
:1061F000807981E841024E4800276430B046009023
:106200004DE000BFA5F1010ACDF81080CDF8148053
:10621000CDF81880574506D1206C10F0FF0F02D042
:10622000C0B2C4F870024A464BA104A801F004F9B8
:1062300004AA4AA0D4F8681200F0CEF942F210760F
:1062400005E03046761E56D30120FDF741FE94F856
:1062500064020028F5D084F864824E46484601F076
:1062600021F857454AD1206C10F0FF0F46D0810726
:1062700003D00BF1010101F0FF0BC2B22D480099D0
:10628000FDF7E2F833485A4600EB0720009901F089
:10629000A9F8D4F86C02401C7F1CC4F86C02AF4211
:1062A000B0D301212348FDF7C5F80246CDF804809C
:1062B000CDF808802FA101A8CDF80C8001F0BCF822
:1062C0001B4844300446FBF797FF024601A92046CD
:1062D000FBF7B0FF4FF00002D0B1032126A000F081
:1062E0007BF902232AA20621502000F045FC2A490E
:1062F00001200870002007B0BDE8F08F32460D483D
:106300000099FDF7A1F81348402200EB0720BDE7F4
:10631000022119A000F060F94FF0AA30009001228C
:1063200069461E4801F05EF8FEF704FB0120E2E733
:1063300074020020240000204572617365204150E2
:106340005032202E2E2E7C73697A653D25640D0A0D
:1063500000000000009000082564000076322F66DF
:10636000772F726571756573742F2B2F6368756E47
:106370006B2F23002578000076312F6465766963E2
:1063800065732F6D652F74656C656D65747279002A
:1063900020204661696C00001F000020FCFF0008FF
:1063A0002DE9F041884601F089FD071E7DD040A10E
:1063B00001F076FD054640A1384601F071FD064624
:1063C0003FA12869FBF71FFF404C58B140A1286945
:1063D000FBF719FF00281ED040A12869FBF713FF27
:1063E000E8B10CE04FF400712046FDF725FF08B935
:1063F0003DA200E03EA241463FA000F0EDF845A1DD
:106400002869FBF700FF454C80B145A12869FBF7DF
:10641000FAFEC0B12BE04FF40051434801E00221E5
:106420002046FDF709FF0128E4D1E1E77069012862
:1064300001D020B11BE0208840F001000BE0208853
:1064400020F001000DE07069012801D030B10EE0AC
:10645000208840F00400208023A204E0208820F05F
:106460000400208022A2414623A000F0B5F82FA10D
:106470002869FBF7C8FEA0B97069012801D038B1BE
:106480000FE0208818A240F00800208005E00CE012
:10649000208817A220F008002080414616A000F0B6
:1064A0009BF8384601F0D4FC0120BDE8F0810000E3
:1064B0006D6574686F640000706172616D730000D7
:1064C0006C6564315374617475730000000C014095
:1064D00062656570537461747573000072656C61F8
:1064E00079537461747573007472756500000000EF
:1064F00066616C736500000076312F6465766963B0
:1065000065732F6D652F7270632F726573706F6E78
:1065100073652F006C656431536574006002002060
:1065200062656570536574000010014072656C61AE
:1065300079536574000000002DE9F04101F0BEFCC4
:10654000051E2CD017A101F0ABFC041E27D018A10A
:10655000284601F0A5FC064618A1284601F0A0FC3B
:10656000804618A1284601F09BFC0746184821697F
:10657000FBF757FE164831692030FBF752FE1448EE
:1065800039694430FBF74DFE1149D8F8140008640E
:10659000104901200870284601F05AFC0120BDE88E
:1065A000F081000066775F7469746C65000000001C
:1065B00066775F76657273696F6E000066775F73EA
:1065C000697A650066775F636865636B73756D00F4
:1065D000740200201F00002070B5E6B00C4606468D
:1065E0001546802145A8FBF7DEFD4FF4807105A814
:1065F000FBF7D9FD162229A13046FBF71BFE70B12F
:106600001A222CA13046FBF715FE00282CD01622AA
:106610002FA13046FBF70EFE00282AD031E0012CD6
:1066200004D0022C13D0032C13D02AE02E4801AD45
:106630000189C4898389428985E81E00C188009147
:106640008388428829A145A800F0F6FE05E033A121
:1066500000E038A145A800F0EFFE45AB0FA23BA13A
:1066600005A800F0E9FE0CE0234612A23BA100952C
:1066700004E03E4800953EA1D0E99A2305A800F029
:10668000DBFE05A8FBF7B8FD82B24FF47A7305A9CB
:106690004148FFF727F966B0012070BD76312F64BD
:1066A0006576696365732F6D652F74656C656D65BF
:1066B0007472790076312F646576696365732F6D26
:1066C000652F7270632F726573706F6E73652F0024
:1066D00076322F66772F726571756573742F2B2F45
:1066E0006368756E6B2F2300600200207B54503A64
:1066F00025642C52483A25642C564F3A25642C4385
:10670000553A25642C50573A25642C56523A256444
:106710002C4350553A25647D000000007B226677AB
:106720005F7374617465223A225550444154454464
:10673000227D00007B2266775F7374617465223A64
:10674000224641494C4544227D0000004D515055A0
:10675000422C312C25732C25730000004D515055CF
:10676000422C312C257325642C25730074020020E3
:106770004D515055422C312C76322F66772F726551
:1067800071756573742F25642F6368756E6B2F2583
:10679000642C257300000000200900203EB5002174
:1067A000124800910191104A0291026081600173C8
:1067B000017501244FF460220461C2614160FDF75C
:1067C0004FF808B1FCF7D1FE07200094CDE9014055
:1067D00069460648FCF7C2FF08B1FCF7C6FE03484D
:1067E000FCF750FF3EBD0000002401400C070020D4
:1067F000094808B5416941F0010141614069002241
:1068000000F00100009011460D20FEF761F8BDE890
:1068100008400D20FEF74EB8001002402DE9F0416F
:1068200086B000242848009401940294039481695E
:1068300041F010018161816901F0100104918169C9
:1068400041F020018161816901F020010491816999
:1068500041F004018161816901F0040104918169C1
:1068600041F0080181618069184F00F008004FF481
:1068700000550490002229463846FDF7E2FCDFF877
:106880005080002202214046FDF7DBFC01224FF43C
:1068900040714046FDF7D5FC009502260125039680
:1068A000CDE9015469463846FDF7D6FB40F2023087
:1068B000CDE90005CDE9024669464046FDF7CCFB2F
:1068C00006B0BDE8F0810000001002400010014059
:1068D000000C01400D4810B50B4901600C494160A6
:1068E00000214FF480428160C0E90312416181615F
:1068F000C1610162FDF7B0FC002803D0BDE8104083
:10690000FCF733BE10BD0000005400403C070020DF
:10691000A086010010B586B00024174800940194A9
:1069200002940394049413490594016041F61F41B5
:10693000C0E901146421C0E903148461FEF796FBE9
:1069400008B1FCF712FE4FF48050009069460A48E7
:10695000FEF717FC08B1FCF708FE049404A90648EA
:106960000594FEF74FFB002801D0FCF7FEFD06B0B2
:1069700010BD000000080040900700200C4810B532
:106980000A4901604FF4E1314160002181600C222D
:10699000C160C0E904128161C161FEF7ABFE00284D
:1069A00003D0BDE81040FCF7E0BD10BD0038014049
:1069B000D80800200C4810B50A4901604FF4E131B5
:1069C0004160002181600C22C160C0E90412816134
:1069D000C161FEF78FFE002803D0BDE81040FCF730
:1069E000C4BD10BD0048004020090020FEE70000A3
:1069F000184810B5017839B100210170FCF7BAFBD5
:106A0000FFF7FAF9FCF722FB134C2078C00701D0FE
:106A1000012100E000210120FFF782FA20788007A1
:106A200001D5012100E000210220FFF779FA20784A
:106A3000400701D5012000E00020FCF745FC20784C
:106A4000000701D5012000E00020BDE8104000F063
:106A5000FBB800001C00002060020020FEE70020C0
:106A6000AFF3008070B506465FF0000404F1B0009B
:106A7000C0B200F093FC002000F090FC102000F069
:106A80008DFC0025304600F09BFC6D1CEDB2802D86
:106A9000F8D3641CE4B2082CE8D370BD10B5012013
:106AA000FDF716FAAE2000F079FC202000F076FC0D
:106AB000102000F073FCB02000F070FCC82000F043
:106AC0006DFC002000F06AFC102000F067FC402004
:106AD00000F064FC812000F061FCFF2000F05EFC0F
:106AE000A12000F05BFCA62000F058FCA82000F0DC
:106AF00055FC3F2000F052FCA42000F04FFCD320B6
:106B000000F04CFC002000F049FCD52000F046FCD1
:106B1000F02000F043FCD92000F040FC222000F0DF
:106B20003DFCDA2000F03AFC122000F037FCDB20BC
:106B300000F034FC202000F031FC8D2000F02EFC11
:106B4000142000F02BFCBDE81040AF2000F026BC64
:106B500010B50446B031C8B200F020FC102040EA65
:106B6000141000F01BFC04F00F00BDE8104040F0D2
:106B7000010000F013BC00002DE9F04700251E4E77
:106B8000924689468046022B34D12FE02038C7B286
:106B9000B8F1780F05D909F101004FF0000800F0B5
:106BA000FF0949464046FFF7D3FF002404EB0710D6
:106BB000305C00F005FC641CE4B2082CF6D309F14B
:106BC0000100C1B24046FFF7C3FF002404EB0710E9
:106BD0003044007A00F0F4FB641CE4B2082CF5D3D6
:106BE00008F108006D1C00F0FF08EDB21AF805006E
:106BF0000028CBD1BDE8F087AC880008704710B5FD
:106C000040F2FF11C0F80412C0F80012491CFBF753
:106C1000CAFA002010BDD0E98010814201D10120C4
:106C2000704700207047D0F80412D0F80002491CC9
:106C3000CA1701EBD2526FF30802891A814201D1BF
:106C40000120704700207047064B012806D000281D
:106C500006D1002202211846FDF7F3BA0122F9E716
:106C600070470000000C01407047704730B593B08A
:106C700028216846FBF797FA14210AA8FBF793FA34
:106C8000002501200F9510951195010412958DE8AE
:106C9000230004904FF4E010CDE90810022407947B
:106CA0006846FEF71DF808B172B6FEE70AA90F2084
:106CB00081E831004FF48060CDE90D0502210AA87A
:106CC000FDF712FF08B172B6FEE74FF400401190D5
:106CD0000F940FA8FDF792FE002801D072B6FEE7D0
:106CE00013B030BD704700000148FEF7B9BA00008C
:106CF000AC0900200148FEF7B3BA0000900700205D
:106D0000F0B50268194B1A4C1A4D4FF08047984263
:106D100005D0B84203D0A04201D0A84203D122F04E
:106D200070064A683243984205D0B84203D0A04268
:106D300001D0A84203D122F44074CA6822434C69AE
:106D400022F08002224302608A68C2620A6882627C
:106D5000984201D109690163012141610169C907B3
:106D600003D0016921F001010161F0BD002C014057
:106D7000000400400008004010B5846842EA032285
:106D800024F47F440A432243826010BD826822F0CB
:106D900070020A4342F007018160704710B5036A30
:106DA000046A24F001040462846924F0F00444EAD3
:106DB000021423F00A020A438461026210BD10B576
:106DC000036A046A24F010040462846923F0A003B7
:106DD00024F4704444EA023243EA01118261016200
:106DE00010BD000070B50546064C05E028466D1E36
:106DF00006D30120FDF76CF820780028F6D0207823
:106E000070BD00002000002010B5406A0021C1853F
:106E1000C184FEF737FB10BD70B5446A2068406935
:106E200094F84110C0F3C0100025212904D118B1F5
:106E3000E584204600F08EF82068406994F84210FE
:106E4000C0F38010222904D118B1E585204600F056
:106E50005AF8606C40F0100060642046FEF712FBA8
:106E600070BD10B50146406A096809684FF000021C
:106E700089062ED4C28501680C3151E8003F23F405
:106E8000807341E80034002CF5D10168143151E8D9
:106E9000003F23F0010341E80034002CF5D10168E4
:106EA000143151E8003F23F0400341E80034002C46
:106EB000F5D1202180F84210016B012909D1016828
:106EC0000C3151E8003F23F0100341E80034002C5E
:106ED000F5D14263016B012902D0FEF7CDFC10BD54
:106EE000818DFEF796FA10BD10B5406A012141630D
:106EF000016B012902D0FEF7D9FC10BD818D490834
:106F0000FEF787FA10BD01680C3151E8002F22F41A
:106F1000907241E80023002BF5D10168143151E84B
:106F2000002F22F0010241E80023002BF5D1016B74
:106F3000012909D101680C3151E8002F22F010021B
:106F400041E80023002BF5D1202180F842100021D8
:106F50000163704701680C3151E8002F22F0C00234
:106F600041E80023002BF5D1202180F84110704723
:106F700008B590F84210222901D0022008BD82688D
:106F80004FF480539A4201D1016921B1816A9A423A
:106F90001BD04AB10AE00268816A5268C2F3080253
:106FA0000A80816A891C08E0026972B1026852682D
:106FB00002F07F020A70816A491C8162C18D491EFC
:106FC0000904090CC18503D01BE002685268F1E78F
:106FD0000168CA6822F02002CA600168CA6822F407
:106FE0008072CA6001684A6922F001024A61202168
:106FF00080F8421000214163026B012A03D0FEF7A2
:107000003BFC002008BD016301680C3151E8002FF2
:1070100022F0100241E80023002BF5D101680A6834
:10702000D20602D50A6849680091818DFEF7F1F910
:10703000E7E7000070B5044600680169E26821F4E2
:107040004051114301612169A06808436169084307
:107050002168CA6841F20C639A430243CA602068FF
:107060004169A26921F44071114341611E492068C0
:10707000884202D1FDF7FEFD01E0FDF7EBFD00EBDC
:10708000C00101EB0012606864218000B2FBF0F3E4
:10709000B3FBF1F36FF018067343B2FBF0F5B2FBEC
:1070A000F0F605EB8305322303EB0515B5FBF1F58F
:1070B000B6FBF1F605F0F00505EB0615B2FBF0F6B0
:1070C000B2FBF0F0B0FBF1F06FF01802504306EBAA
:1070D000800003EB0010B0FBF1F0216800F00F001E
:1070E0002844886070BD00000038014038B58162D6
:1070F00004468285002013466064222284F84220E0
:10710000E56B1B4AAA62E56B1A4AEA62E56B1A4A0A
:107110002A63E26B50630A462168E06B091DFCF7A5
:107120009FFE2068016840680090206948B120688F
:107130000C3050E8001F41F4807140E80012002A32
:10714000F5D12068143050E8001F41F0010140E8FB
:107150000012002AF5D12068143050E8001F41F0D9
:10716000400140E80012002AF5D1002038BD00009F
:10717000636E0008E96E0008196E00082DE9F843F7
:10718000984617460D460446089E24E0701C22D0FF
:10719000FDF75CF8A0EB0800B0421AD8CEB1206829
:1071A000C168490717D5802D15D0402D13D001682F
:1071B000C94309070FD401680025406800902046A4
:1071C000FFF7A1FE0820606484F840500120BDE86C
:1071D000F8830320FBE72068006835EA000004D04C
:1071E0000020B842D2D00020F1E70120F9E70000EA
:1071F00010B50448FEF748F9BDE81040014800F01A
:1072000003B800002009002038B5044600681F4973
:1072100088423AD10168890702D40168490717D525
:107220006FF00201016021686FF004000860606C7B
:1072300000F004006064606C00F0020060642046AE
:10724000FEF7E8F84FF4807211492046FEF706FB7E
:1072500020680168C943C90617D4016840680090D6
:107260000C48006840680C4C40422178401AC5B276
:107270000A48FDF747FF064821782A460144084896
:10728000FCF749F920782844207038BD00480040B8
:10729000D807002068090020300000209007002057
:1072A0005800002010B5134986B0D1F8742210445C
:1072B000C1F874026422096C5043B0FBF1F0C4B20F
:1072C00014216846FAF76FFF0A4A2032642C04D36F
:1072D00009A1684600F0B0F804E023460AA1684618
:1072E00000F0AAF802236A4606210020FFF744FCBA
:1072F00006B010BD740200204F5441257320202099
:1073000020202020204F4B004F5441257320202067
:10731000202020253364252500000000FEE7000022
:107320002DE9F041070017D00024174E4FF47A786A
:107330000BE031190D463846FCF7BEF829464346A6
:1073400001221248FEF7CEFA641C3846FFF763FCB0
:107350000028EED0002030550D48007818B10A48BA
:10736000FBF7C4FF05E0084907482039FAF726FF74
:1073700010B10120BDE8F08106A10348FAF71EFF15
:107380000028F7D00220F5E70C050020D8080020DF
:107390001E0000204552524F520D0A001CB500211C
:1073A0008DF804108DF805004FF47A7000900223D8
:1073B00001AA78210148FDF73BF91CBD3C070020DC
:1073C0001CB540218DF804108DF805004FF47A703B
:1073D0000090022301AA78210148FDF729F91CBD7C
:1073E0003C0700202DE9F04115460E460746FCF704
:1073F0001FFE002409E000BF56F8242007EB84019B
:1074000000230220FCF7D4FD641CAC42F4DBBDE891
:10741000F041FCF7C3BD00000FB4054B10B503A944
:10742000044A029800F060F910BC5DF814FB0000FB
:10743000C57F0008480000200FB4084B10B504A910
:1074400002AA039800F050F9044602A9002000F0B7
:10745000E2FC204610BC5DF814FB0000177E00081B
:107460000907090E002804DB00F1E02080F8001471
:10747000704700F00F0000F1E02080F8141D704705
:10748000004870475400002030B528B1144C031F49
:10749000002021680A4605E0084630BD9A4203D81C
:1074A00010465268002AF9D1002800D041680BD05C
:1074B0000468A3EB0005A54204D11B681C440346E5
:1074C000046002E0436000E023603AB11C68D51A12
:1074D000A54203D115682C441C6052685A6030BD27
:1074E0004C0000202DE9F04782460F4C10480D4E0D
:1074F0000E4F001B4FF0000820F007054FF0010968
:1075000000221146504600F0A7FD002802D1306845
:1075100010B10020BDE8F0873C60C4E90058C6F80F
:107520000090EDE7500000201C0A00204C000020D5
:10753000180E002002E008C8121F08C1002AFAD164
:1075400070477047002001E001C1121F002AFBD1E3
:10755000704700002DE9FF5F82B00021DDE90430B3
:10756000020DDDF840B0034318D044F61050A2F2EB
:10757000FF3242431514119801281FD0A5EB0B00D0
:10758000401C5FEA000A4FF000064E4FDFF83891CA
:10759000B046504615D5CAF1000413E011980124F5
:1075A0004AA3012801D16FEA0B010298119AC0E9A0
:1075B0000031C0E9024206B0BDE8F09FCBF1000007
:1075C000DFE704460021404A491842EB0450CDE968
:1075D000001012E0E00707D032463B4640464946DD
:1075E000FBF737F98046894632463B461046194636
:1075F000FBF72FF906460F466410002CEAD1DDE9AF
:107600000401DDE90023BAF1000F06DAFBF721F9E6
:1076100042464B46FBF71DF905E0FBF78CF9424665
:107620004B46FBF788F904460E460022284BFBF731
:1076300065FA03D84FF0FF30014607E00022254BE2
:1076400020463146FBF75EF8FBF75EFC102409E0AC
:10765000002C0ADB0A220023FBF79AFA039B303244
:107660001A55641E50EA0102F2D1641C039AC4F157
:1076700011031444119A012A03D0012208430DD1A9
:107680000AE0084304D000204FF0110B119072E77C
:10769000A3EB0B056D1E0DE05B4504DD4FF0000212
:1076A00005F1010504E003DA4FF00002A5F1010540
:1076B000002AECD002981199C0E90231C0E90045D6
:1076C00079E70000000014400000F03F30000000A7
:1076D0000000F0430000E03F30380A2801D20120CA
:1076E00070470020704700002DE9FF4F95B09B4682
:1076F0008946064600250FE2252877D10024274633
:10770000F84A0121059400E0044316F8013F203BAC
:1077100001FA03F01042F7D130782A2811D06FF027
:107720002F033078A0F13002092A16D8059A44F0C8
:10773000020402EB820203EB42021044761C059025
:10774000EFE759F8042B0592002A03DA504244F47B
:107750000054059044F00204761C30782E2816D18F
:1077600016F8010F44F004042A280DD06FF02F0200
:107770003078A0F13003092B09D807EB870302EB1F
:107780004303C718761CF3E759F8047B761C30785E
:107790006C280FD006DC4C2817D068280DD06A283A
:1077A00014D104E0742810D07A280FD10DE044F4ED
:1077B00000140AE044F4801401E044F440147278A8
:1077C000824202D104F58014761C761C307866283B
:1077D0000BD013DC582877D009DC002875D0452859
:1077E000F6D04628F4D047281AD19DE118E0632846
:1077F00035D0642879D0652812D195E1702873D0EE
:1078000008DC6728F1D069286FD06E280DD06F286A
:1078100006D1B5E073282CD0752875D0782874D09F
:107820005A46179990476D1C75E1C4F3025002281F
:1078300009D003280DD0D9F8001004280DD00D6010
:1078400009F1040967E1D9F80010EA17C1E900520B
:10785000F6E7D9F800100D80F2E70D70F0E719F89F
:10786000041B8DF8001000208DF80100EA4601206D
:1078700003E059F804AB4FF0FF3061074FF000010F
:1078800002D40DE008F101018846B9420FDA8045C3
:10789000F8DB1AF808100029F4D108E008F101011A
:1078A00088468142FADB1AF808100029F6D10598BB
:1078B0005B46A0EB080721463846179A00F094FA79
:1078C000284400EB080507E04DE029E10DE01AF837
:1078D000010B5A4617999047B8F10108F7D25B4659
:1078E00021463846179A13E142E00A220092C4F377
:1078F00002524FF0000A022A08D059F804CB032A9A
:107900004FEAEC710AD00DE029E02AE009F1070105
:1079100021F00702F2E802C1914609E00FFA8CFC5F
:107920004FEAEC71042A03D14FFA8CFC4FEAEC7158
:10793000002907DA0A460021DCF1000C61EB0201A4
:107940002D2202E0220504D52B228DF804200122ED
:1079500003E0E20701D02022F7E7904659E00A2130
:1079600002E010220DE010214FF0000A00910BE020
:1079700010224FF0000A44F004040827009203E0AC
:1079800008224FF0000A0092C4F30252022A05D0E6
:1079900059F804CB0021032A08D009E009F10701B6
:1079A00021F00702F2E802C1914605E01FFA8CFCC3
:1079B000042A01D10CF0FF0C4FF00008220728D553
:1079C000702806D0009B83F0100353EA0A0305D009
:1079D0000EE040228DF80420012208E05CEA01025A
:1079E00006D030228DF804208DF805000222904642
:1079F000009B83F0080353EA0A030AD15CEA010200
:107A000001D1620705D530228DF804204FF001081E
:107A10007F1E582804D034A003900EA802900DE0D9
:107A200036A0F9E753466046009AFBF7B1F8844662
:107A30000398825C0298401E029002705CEA01008A
:107A4000F0D1029806A9081A00F1200A600702D5B1
:107A500024F4803400E00127574502DDA7EB0A003B
:107A600000E0002000EB0A01009005984144401A14
:107A70000590E00306D45B462146179A059800F06E
:107A8000B3F90544002706E001A85A46C05D1799DE
:107A900090476D1C7F1C4745F6DBE0030CD55B4629
:107AA0002146179A059800F09FF9054404E030201C
:107AB0005A46179990476D1C0099481E009000295E
:107AC000F5DC08E0029802995A460078491C0291B8
:107AD000179990476D1CBAF10001AAF1010AF1DC77
