:020000040800F2
:10000000B01E002001010008715600087B4700085F
:100010008D5500089D130008B1670008000000001E
:10002000000000000000000000000000635D000808
:10003000FF14000800000000D1590008215E0008EC
:100040001B0100081B0100081B0100081B01000820
:100050001B0100081B0100081B0100081B01000810
:100060001B0100081B0100081B0100081B01000800
:100070001B010008BD1400081B010008C91400087A
:100080001B0100081B0100081B0100081B010008E0
:10009000756600081B0100081B0100088315000895
:1000A0001B010008AD5E00081B0100081B010008D1
:1000B000B95E0008CD5E0008ED5E00081B01000877
:1000C0001B0100081B0100081B0100081B010008A0
:1000D0001B01000801660008196600085D6600083B
:1000E0005D1500081B0100081B010008DFF80CD09B
:1000F00000F00EFF0048004721860008B01E0020D7
:100100000648804706480047FEE7FEE7FEE7FEE7B1
:10011000FEE7FEE7FEE7FEE7FEE7FEE7AB5E000870
:10012000ED000008202A04DB203A21FA02F0002129
:10013000704721FA02F3D040C2F1200291400843F7
:1001400019467047A0F14101192900D820307047A5
:1001500038B5D0E90221491E01EB410102EBC10192
:100160004268C1EB011102EB81010268C1EB011190
:1001700002EB8102D0E9043101EB410103EB810183
:100180003023A1F5527191FBF3F4174D6C4302EB50
:10019000C41291FBF3F403FB141100921A2902DB41
:1001A000124B1A4400920C2291FBF2F3104C634361
:1001B000009C04EBC313009391FBF2F302FB1311B9
:1001C0000C4A08E0491E40F2A324535C6343009CA0
:1001D00004EBC31300930029F4DC0146684600F0E9
:1001E0002BFD009838BD00003F0C0F00805101002E
:1001F00067C20300FABB000840EA01039B0703D073
:1002000009E008C9121F08C0042AFAD203E011F855
:10021000013B00F8013B521EF9D27047D2B201E017
:1002200000F8012B491EFBD270470022F6E710B5FB
:1002300013460A4604461946FFF7F0FF204610BD54
:1002400030B505462A460B4612F8010B13F8014B50
:1002500008B1A042F8D01CB1002802D06D1CF1E713
:10026000284630BD421C10F8011B0029FBD1801A22
:10027000704710B5002200E0521C835C8C5CA342E6
:1002800001D1002BF8D1D8B2E1B2401A10BD30B57F
:1002900004460020034600E05B1C934203D2E05C6E
:1002A000CD5C401BF8D030BD30B50546002003467C
:1002B00000E05B1C934205D2EC5CC85C201A01D1C3
:1002C000002CF6D130BD00002DE9FF4F087883B037
:1002D0009946FF2805D0491C2D2804D00024002071
:1002E00008E000200BE00124F9E700EB800003EBBD
:1002F0004000491C0B78FF2BF7D104B1404200238A
:100300000293147819461D462D2C01D02B2C04D1B4
:10031000521C2D2C13D000240294AA461478FF2CD2
:100320000FD00A25A3FB057801FB05814FF0000CD7
:1003300003FB0C11521CE3194AEB0101EEE7012407
:10034000EAE7814453EA010002D019F5C87F06DAD2
:1003500003980021C0E9001107B0BDE8F08F002527
:10036000AE4E2F46DFF8B882184600F0ADFDCDE95D
:100370000001B9F1000002DAC9F1000400E004460E
:100380000023A74A1AEB030B42EB045A12E0E007E2
:1003900007D02A4633463846414600F05CFA074605
:1003A00088462A4633461046194600F054FA054658
:1003B0000E466410002CEAD1DDE90001B9F1000F0E
:1003C0005A46534606DA00F0B8FA3A46434600F079
:1003D000B4FA05E000F03FFA3A46434600F03BFA33
:1003E000029A0AB181F00041039AC2E90001B3E721
:1003F0002DE9FF4F1F468DB0D7E901464FF0FF387A
:100400002E2045464FF000090B90B9696D1C0E98DF
:100410008847396A824688470028F6D1BAF1FF3FFB
:100420000AD024F4D064002E11DDBAF12B0F08D0CD
:10043000BAF12D0F0BD102E0404611B08DE744F424
:100440008064B9696D1C0E9888478246761E69469D
:10045000600501D52D2000E02B208DF8000001F172
:10046000010B0DF1200809E0B9696D1C0E98884751
:1004700082460F9844F40074761E0560002E02DD5B
:10048000BAF1300FF0D00B998A453ED144F0800488
:1004900006E00F99681CA9F1010944F40074086092
:1004A000B9696D1C761E0E98884782463028F0D0B8
:1004B0002BE00B998A4505D1200603D444F0800433
:1004C000761E18E0504606F0C3FB08B30DF1130189
:1004D000761E44F400748B4508D2AAF130000BF864
:1004E000010B200607D5A9F1010003E0200602D484
:1004F00009F101008146A00502D50F99681C08602A
:10050000B9696D1C0E9888478246002ED1DC53E0F5
:10051000002E51DDBAF1650F02D0BAF1450F4BD173
:10052000A00549D5B9696D1C24F44074761E0E9857
:1005300088478246002E0CDD2B2804D0BAF12D0FFF
:1005400007D144F48074B9696D1C0E9888478246BF
:10055000761EE00501D52D2100E02B2108F8011BB6
:10056000CDF82C8021E00DF12901761E44F40074B1
:1005700088450CD2AAF1300010F0FF0088F8000086
:1005800002D10B99884509D908F1010806E0E00578
:1005900001D5244801E042F20F708146B9696D1C13
:1005A0000E98884782460F980560002E04DD50465D
:1005B00006F04EFB0028D6D1F9690E988847FF2037
:1005C0008BF8000088F800000020069007904B464A
:1005D0006A4608A906A8FFF777FEA00502D46FF0C7
:1005E00001002AE714F0240F0AD0E00714D1DDE956
:1005F00006123868031D3B600068C0E900120BE07A
:10060000DDE9060100F094FA0146E00704D13868FC
:10061000021D3A600068016028460EE700001440A1
:100620000000F03FF1D8FFFF80EA010210B502F0B0
:100630000043400022D04A001FD0010E01EB12619E
:10064000C0F35600C2F3560240F4000042F4000228
:10065000A0FB022000047F39140400D0401C50EAA3
:10066000124001D44000491EC2B20C0604EBD01067
:10067000401C4008802A02D003E0002010BD20F07A
:100680000100002900DA0020184310BD30B480EAD0
:10069000010202F0004530F0004221F0004013D08A
:1006A00090B1C30DD40DC2F31601C0F31600E41AC5
:1006B00041F4000140F400027D34914201D3641CF6
:1006C00000E04900002C02DA30BC002070474FF4F3
:1006D00000000023914201D3891A034340084FEAE6
:1006E0004101F7D151B1914202D14FF0004105E0F3
:1006F00002D24FF0010101E06FF0010103EBC450A1
:10070000284430BC00F04CBB2DE9FE4F804681EA06
:100710000300C00F0C46009021F0004123F000457B
:10072000B8EB0200A94105D24046214690461C463E
:100730000B46024623F00040104347D0270DC7F375
:100740000A00C3F30A510290401A019040286BDA64
:10075000C3F3130040F4801B0098924620B100239D
:10076000D2EB030A63EB0B0B01985946C0F1400230
:10077000504600F040FA06460D4650465946019A4A
:1007800000F048FA10EB08006141002487EA11529A
:1007900084EAE7731A4340D0009A62B3019A012AAF
:1007A0004FEA075215DC001B61EB02014FF00042DB
:1007B00002EA0752CDE90042001C41F580113246A1
:1007C0002B4600F033FB03B0BDE8F08F40462146D6
:1007D000F9E7001B61EB0201001C41F580130018D2
:1007E0005B412018A2F5001747EB030140EAD570E2
:1007F000B6196D4111E06D084FEA360645EAC0753D
:100800004FEA0752001B61EB0201001C41F5801109
:1008100049084FEA30000019514132462B4603B0D7
:10082000BDE8F04F00F0F3BA009801224000002329
:10083000D0EB020263EBE073009821464FEAE074CC
:10084000B8EB000061EB0401E9E783F000435BE7EC
:1008500081F0004158E72DE9FE4F81EA030404F0DE
:10086000004421F0004100944FF0000B23F00043BE
:1008700050EA01045ED052EA03045BD0C3F30A5489
:10088000C1F30A552C44A4F2F3340194A0FB0254A2
:10089000C1F3130141F48011C3F3130343F4801334
:1008A00001FB024400FB034E840A970A44EA815488
:1008B00047EA8357A4FB076802958D0A05FB078565
:1008C0004FEA932C04FB0C542705029D4FEA06586F
:1008D00047EA1637B5EB08056EEB070C870E920E4C
:1008E00047EA811742EA8312A7FB0201B6EB0B012C
:1008F00064EB00042B0D43EA0C335E1844EB1C50F0
:10090000DA465146E7FB0201C5F313044FEA0B3305
:1009100043EA14534FEA0432019C43EA0603A4F16C
:100920000C040294009CCDE900B400F07FFA03B0FF
:10093000BDE8F08F00200146F9E72DE9F04D81EA8E
:10094000030404F0004B21F0004514464FF0000A68
:1009500023F0004150EA050220D054EA01021DD0E4
:10096000C5F30A570246C5F31303C1F31300C1F3DD
:100970000A5640F4801543F48013A7EB0608101BB9
:10098000D64608F2FD3873EB050002D308F10108E2
:1009900001E092185B41B8F1000F03DA0020014634
:1009A000BDE8F08D00204FF48011064684460EE02D
:1009B000171B73EB050705D3121B63EB05030643F7
:1009C0004CEA010C49084FEA300092185B4150EAAA
:1009D0000107EDD152EA030012D082EA040083EA53
:1009E0000501084305D0101BAB4106D201220023AC
:1009F00006E000224FF0004302E06FF001025310C6
:100A00001AEB06004CEB085110EB0A0041EB0B010E
:100A1000BDE8F04D00F0FBB970B521F00043034391
:100A20000CD0C1F30A550024D5EB040564EB040394
:100A3000D617AD1AB34102DB0020014670BD201865
:100A400041EB025170BD96230022114600F0B1B96E
:100A50000EB540F2334102910021CDE900110A4662
:100A60000B4600F0E3F903B000BD20F00040C10DDB
:100A7000C0F3160040F400007F2901DA002070471F
:100A8000962903DCC1F19601C84070479639884029
:100A9000704770B5C1F30A5201F000450024C1F35C
:100AA000130140F2FF3341F480119A4201DA002031
:100AB00070BD40F233439A42A2F2334203DC524209
:100AC000FFF730FB00E090402C43F1D0404270BD76
:100AD00030B5041E71F1000404DB4FF000444042C5
:100AE00064EB0101141E73F1000405DB1C464FF09A
:100AF0000043524263EB04038B4208BF824230BD85
:100B000030B5041E71F1000404DB4FF00044404294
:100B100064EB0101141E73F1000405DB1C464FF069
:100B20000043524263EB0403994208BF904230BD38
:100B300001F0004330B421F0004150EA010206D038
:100B40000A0DA2F56072C1F31301002A02DC30BC69
:100B500000207047440F44EAC104C100E01830BCD3
:100B600000EBC25000F01CB930B50B460146002026
:100B70002022012409E021FA02F59D4205D303FA5F
:100B800002F5491B04FA02F52844151EA2F10102E0
:100B9000F1DC30BD2DE9F05F0546002092469B4612
:100BA00088460646814640241BE028464146474683
:100BB0002246FFF7B7FA53465A46C01A914110D35E
:100BC00011461846224600F016F82D1A67EB010868
:100BD0004F4622460120002100F00DF817EB0009D6
:100BE0004E41201EA4F10104DFDC484631462A466E
:100BF0004346BDE8F09F202A04DB203A00FA02F1C8
:100C0000002070479140C2F1200320FA03F31943FA
:100C100090407047202A06DBCB17203A41FA02F0B9
:100C200043EAE07306E041FA02F3D040C2F1200249
:100C3000914008431946704710B500683C22B0FB4C
:100C4000F2F302FB1303B0FBF2F00B60B0FBF2F324
:100C500002FB1303B0FBF2F018224B60B0FBF2F37F
:100C600002FB1303B0FBF2F0021D8B600723B2FB03
:100C7000F3F403FB1422800040F2B55300F66C300D
:100C80008A61B0FBF3F2B0FBF3F403FB14004432CF
:100C900080084A61C8613B2802D3920700D0401CFB
:100CA0000022074C13460A61E25C824203D8801A94
:100CB0005B1C0B61F8E7401CC860084610BD0000D3
:100CC00006BC0008426842B1016811F8013B23B13B
:100CD000521EC0E90012184670470121C160881EEB
:100CE000704742685AB1C368016843B983688B4250
:100CF00005D0491E521CC0E90012002070474FF079
:100D0000FF3070470FB4002300B589B00CA90091E3
:100D10000B996FF00042CB601E4B06931E4B07935E
:100D20000423CDE901321D4A089202466B46002099
:100D3000FFF75EFB09B05DF814FB70B586B00646A0
:100D40004FF0FF300091CDE90101002015460C461F
:100D500004903246694604A8FFF7D4FF024604987F
:100D6000211825B108B1084600E020462860049803
:100D700000280DD0002A02DD0098884208D0081B08
:100D80000094CDE901043246694604A8FFF7BAFF92
:100D900006B070BDC50C0008E30C0008350F000854
:100DA0000029A8BF7047401C490008BF20F001007F
:100DB000704710B4B0FA80FC00FA0CF050EA01045D
:100DC00004BF10BC704749B1CCF1200421FA04F4EF
:100DD00011FA0CF118BF012121430843A3EB0C01C8
:100DE000CB1D4FEA00614FEA102042BF002010BC2B
:100DF000704700EBC35010440029A4BF10BC7047DB
:100E0000401C490008BF20F0010010BC704710B51D
:100E1000141E73F1000408DA401C41F1000192181D
:100E20005B411A4301D120F0010010BD2DE9F04DC6
:100E300092469B4611B1B1FA81F202E0B0FA80F21B
:100E400020329046FFF7D7FE04460F4640EA0A00DC
:100E500041EA0B0153465A46084313D0114653EA60
:100E6000010019D0C8F140025046FFF75BF9054672
:100E70000E46504659464246FFF7BDFE084305D090
:100E8000012004E020463946BDE8F08D00200543EE
:100E900046EAE0762C4337430A986305E40AA0EB60
:100EA00008000022FD0A44EA47540A3002D5002017
:100EB0000146E9E7010510196941DDE90845001916
:100EC0006941BDE8F04DA2E70EB540F2334202920F
:100ED0000022CDE900221346FFF7A8FF03B000BDB2
:100EE000C1F30A52C1F3130140F2FF3341F4801100
:100EF0009A4202DA00200146704740F233439A4298
:100F0000A2F2334202DC5242FFF70CB9FFF773BE84
:100F1000064C074D06E0E06840F0010394E8070046
:100F200098471034AC42F6D3FFF7E4F854BC0008FD
:100F300074BC0008C0B24FF4F05100F001B80000DA
:100F40007F2801D9002208E0064A02EB5002C007C0
:100F5000127800D1120902F00F02012090400840DF
:100F60007047000012BC000870B58C1810F8015BC7
:100F700015F0070301D110F8013B2A1106D110F832
:100F8000012B03E010F8016B01F8016B5B1EF9D136
:100F90002B0705D40023521E0DD401F8013BFAE7BC
:100FA00010F8013BCB1A921C03E013F8015B01F827
:100FB000015B521EF9D5A142D8D3002070BD0000BC
:100FC00070B5044600688168C943C90717D18168B4
:100FD00021F00101816001F09DFC05460AE000BF9F
:100FE00001F098FC401B022804D920688068C043A7
:100FF000C00706D020688068C043C007F0D000203A
:1010000070BDA06A40F01000A062E06A40F00100EC
:10101000E062012070BD0000F8B50026044600968D
:1010200000688168C943C9072DD0816841F001017A
:101030008160164816490068B0FBF1F000E0401EE0
:1010400000900028FBD101F065FC054616E000BFCA
:1010500001F060FC401B022810D920688068C04362
:10106000C0070BD0A06A40F01000A062E06A40F018
:101070000100E06284F824600120F8BD20688068E7
:10108000C043C007E4D10020F8BD0000E80B0020F9
:1010900040420F002DE9FE4F01260727009600254C
:1010A00069463C48CDE9016700F050FB08B100F00B
:1010B000ADFA0024374800F023FD6421354800F0E4
:1010C00081FC18B9334800F0BFFB0544641CE4B24E
:1010D0000A2CEFD30A24B5FBF4F0FFF7B9FCDFF8D4
:1010E000B8A04FF066394A465346FFF7B4FBDFF825
:1010F000ACB000225B46FFF720FCFFF719FD284942
:10110000FFF792FAFFF7B1FCDFF8988000256946F7
:10111000A8F80C0010208DE8C1001E4800F016FB56
:1011200008B100F073FA00264FF47A77194800F0FE
:10113000E7FC3946174800F045FC18B9154800F09F
:1011400083FB0544761CF6B20A2EEFD3B5FBF4F010
:10115000FFF77EFC4A465346FFF77DFB00225B46C5
:10116000FFF7EBFB104A114BFFF772FB104A114BD4
:10117000FFF7E3FB0022104BFFF7C6FAFFF7D8FC9E
:101180000749FFF751FAFFF770FCA8F80E00BDE819
:10119000FE8F0000E80F002066660A4000FEAF40A8
:1011A0000000C84220160020E17A14AE47E1F63F65
:1011B00022FDF675E09C713F000039401CB5BE2051
:1011C0008DF8040008208DF8050000208DF8060039
:1011D0004FF6FF700090032301AA7021014801F02F
:1011E0008BFD1CBD181000201CB5282001F0EEF965
:1011F000BE208DF8040008208DF8050000208DF831
:1012000006004FF6FF700090032301AA70210548E5
:1012100001F072FD00F0A2F8000701D4FFF7CEFF45
:101220001CBD00001810002070B500F019F80A4C21
:10123000084E31466068FFF7F7F9FFF716FC074DD7
:10124000314668802068FFF7EFF9FFF70EFCA880B1
:1012500070BD00000000C8420000002020160020E1
:1012600070B586B000208DF800008DF800008DF874
:1012700000008DF800008DF800008DF80000AC2112
:101280008DF80C1033218DF80D1004468DF80E00EA
:101290004FF6FF75032303AA70212B48009501F038
:1012A0002BFD502001F092F907E0012001F08EF9AA
:1012B0002046641CA4B2642803D200F04FF8000654
:1012C000F3D4062301AA70211F48009501F0ECFB1E
:1012D0009DF805009DF806109DF8074041EA0021A1
:1012E00044EA01200009FFF7B3FB0022174BFFF788
:1012F000B2FA6FF009063246FFF78EFB3246FFF76F
:101300008BFBFFF715FC124D28609DF808109DF827
:10131000090041EA042140EA0120C0F31300FFF76D
:1013200097FB00220B4BFFF796FA3246FFF774FB50
:101330003246FFF771FB0022074BFFF786FAFFF7F3
:10134000F7FB686006B070BD18100020000059401F
:101350000000002000006940000049401CB54FF625
:10136000FF700090012301AA7021034801F09CFB4B
:101370009DF804001CBD000018100020064B4FF41F
:101380000051012805D0002805D10022184601F09F
:10139000BBBA0122FAE7704700100140FEE70000E7
:1013A00000B58BB000200121CDE906010590009029
:1013B00001900290039004900E20CDE90810694638
:1013C0000A4800F06DFC08B100F020F9074800F071
:1013D0004BFF08B100F01AF90221044800F0F0FBBD
:1013E00008B100F013F90BB0002000BDC00F0020C1
:1013F00030B4D0F89C20D0F8A0404FF0FF3352F822
:10140000212024F81130C2F307420121831883F808
:10141000B010D0F8AC3030BC114618472DE9F04F71
:101420009946DDE90A5A4FF0FF3BDDF824C041E060
:10143000AB1A5BB20C78002B03DD00BF04FA03F497
:1014400003E0C3F1000324FA03F4E6B202DDC5F1C0
:10145000080301E0C2F10803DCB2844200D904466B
:1014600005EB0408FF2707FA08F3C5F10805EF406C
:101470003B439CF800509E431D4035432244D2B26A
:101480008CF80050072A07D90022B9F1000F01D0CB
:101490005B4600E00123194408F0FF05072D07D93A
:1014A0000025BAF1000F01D05B4600E001239C4407
:1014B000001BC0B20028BBD1BDE8F08F014800F08E
:1014C00075BF0000BC140020014800F06FBF000091
:1014D0007814002030B590F840500124AC40C56B22
:1014E0006C60046863604368102B036803D09960E4
:1014F0000068C26030BD9A600068C16030BD70474E
:10150000411C0CD00749B1F90020904201D1521E74
:101510000A80054A00EB4000002102F830104FF02D
:10152000FF307047140100204816002010B50C460B
:10153000034604F070FA10B14FF0FF3010BDD3F83D
:101540000021521CD01702EB106020F0FF00101A8F
:10155000C3F80001185C2070002010BD10B54FF4D6
:10156000805001F0D5F84FF4005001F0D1F84FF45D
:10157000804001F0CDF8BDE810404FF4004001F08C
:10158000C7B810B5202001F0C3F8BDE810404FF4F3
:10159000807001F0BDB8000010B50C46034604F0A1
:1015A00042FA28B109A005F08FF94FF0FF3010BDC5
:1015B000D3F80421521CD01702EB106020F0FF007A
:1015C000101AC3F804011C54002010BD7175657514
:1015D000652069732066756C6C0A00002DE9F04186
:1015E00016460D46074600240CE029783846FFF7DA
:1015F000D3FF002803DA4FF0FF30BDE8F081641C10
:10160000A4B26D1CB442F0D30020F6E772B6FEE738
:1016100070B50546D0F83801008818B300242E199B
:1016200096F8B0000F2818D028680078A04214D08F
:1016300096F8400140B9D5F8342112B12146284628
:101640009047012086F8B00096F840012146401EE0
:1016500086F84001284607F085F8641CE4B2802C27
:10166000DDD370BDB5F93001FFF74AFFA5F83001B1
:1016700070BD0000F8B500250446009590F82400E0
:1016800001280BD0012084F824002046FFF798FCA5
:101690002046FFF7C1FC060002D050E00220F8BD52
:1016A000A06A20F4885040F00200A062022001F0FD
:1016B0004BFE25490968B1FBF0F0400000E0401EF8
:1016C00000900028FBD12068816841F0080181600A
:1016D00001F020F9074608E001F01CF9C01B0A28B8
:1016E00003D920688068000715D420688068000747
:1016F000F2D42068816841F00401816001F00AF9A8
:10170000074612E001F006F9C01B0A280DD920682F
:101710008068400709D5A06A20F0020040F0100060
:10172000A06284F824500120F8BD2068806840073A
:10173000E8D4A06A20F0020040F00100A06284F822
:1017400024503046F8BD0000E80B0020F8B5002416
:10175000009490F824202546012A12D0012280F816
:1017600024204A681F23072A0DD20668776B521E71
:1017700002EB820293409F430B6893401F437763C1
:1017800019E00220F8BD06680D2A0AD2376BD21F75
:1017900002EB820293409F430B6893401F433763E1
:1017A00009E0F76A0D3A02EB820293409F430B680F
:1017B00093401F43F7620A68072306680A2A0AD380
:1017C000F7680A3A02EB420293409F438B689340CA
:1017D0001F43F76008E0376902EB420293409F43E2
:1017E0008B6893401F4337610A68102A01D0112A81
:1017F00020D1124B02689A4217D193681B0219D468
:10180000936843F4000393600968102912D10C49CE
:101810000C4A0968B1FBF2F101EB8101490000E0DB
:10182000491E00910029FBD104E0816A41F02001AA
:101830008162012480F824502046F8BD0024014034
:10184000E80B002040420F000068C06C70470000A9
:101850002DE9F0414FF0000704003D467ED0A06A1C
:10186000002628B9E66284F82460204600F07EF85D
:101870002046FFF7A5FBA16AC90600D420B1A06AE3
:1018800040F01000A06269E0A16A21F4885141F0A3
:101890000201A1626268E169237B0A4347EA4301CE
:1018A0000A43A1684FF48077B94209D0012907D0D3
:1018B0005FF0000194F814C0BCF1010F02D00AE0FF
:1018C0003946F7E7F3B1A36A43F02003A362E36A62
:1018D00043F00103E3622368D3F804C02CF4694C9D
:1018E0004CEA010CC3F804C021688B68DFF870C0B3
:1018F00003EA0C0313438B60A168B9420BD00129A2
:1019000009D00CE0DFF85CC0A3690CEB43330B4358
:1019100043F40061DFE7218A0D05A5F580152168F4
:10192000CB6A23F470032B43CB62216889680E4B8A
:101930001940914208D1E662A16A21F0020141F00A
:101940000101A162BDE8F081A06A20F0020040F030
:101950001000A062E06A40F00100E0620120F1E7BF
:10196000FDF7E1FF00E0FFFFFE0E1FFF00B585B0B1
:101970000021009101910291039100680E49884273
:1019800018D10E48816941F400718161816901F4C7
:1019900000710491816941F00401816180696946A7
:1019A00000F00400049002200090032001900448FD
:1019B00000F0BAFE05B000BD002401400010024056
:1019C000000801402DE9F84300270D460446009722
:1019D00000F0A0FF804620688168C90508D5A06A8C
:1019E00040F02000A06284F824700120BDE8F88354
:1019F0004168C90503D4C06A10F4700F2AD00220D0
:101A000001F0A2FC3B490968B1FBF0F620680369CC
:101A100039490B424FEA61014FEAA1121FD1C36855
:101A20004FEA611C13EA0C0F19D103690B4225D14F
:101A3000C068104222D1142023E0681C0AD02DB1C6
:101A400000F068FFA0EB0800A84203D920680068F6
:101A5000800725D5206800688007EED52DE0036952
:101A60000B4202D1C168114206D0026923490A42E1
:101A700006D1C068084203D1542002E0292000E0CA
:101A8000FC204643009816E0681C11D02DB100F0F0
:101A900041FFA0EB0800A8420AD90098B04207D243
:101AA000A06A40F00400A06284F8247003209DE73F
:101AB0000098401C0090B042E6D321686FF01200FD
:101AC0000860A06A40F40070A06220688068C0F3DB
:101AD000424007280CD1207B50B9A06A20F48070C6
:101AE000A062A06AC00403D4A06A40F00100A06212
:101AF00000207BE7E80B002024499224499224002F
:101B000070B5044690F8240001280DD0012084F817
:101B100024002046FFF780FA02004FF0000005D0B5
:101B200084F82400104670BD022070BDA16A40F206
:101B30000123994341F48071A1621F4D23681F491D
:101B4000AB4218D10E6816F4702F14D0A66A46F472
:101B50008016A6620E68760505D5A66A26F400569C
:101B600046F48056A662A66AF6040AD5E66A26F00E
:101B70000606E66206E0A66A26F48016A6625E689D
:101B8000E9E7E06284F824006FF002001860206842
:101B90008368C3F34243072B05D1A84208D10968E3
:101BA00011F4702F04D0816841F480118160B9E78D
:101BB000816841F4A001F9E70028014004240140B4
:101BC00090F82020012A07D0022A05D0416A41F46A
:101BD0008021416201207047006842690A434261E6
:101BE00000207047F0B590F820500468A468012DDB
:101BF00005D0022D03D0416A41F480214DE014F05C
:101C0000406F01D1E50045D5C4F301640125A5402D
:101C10001D608D684FF4C0739DB1CE6835434E682A
:101C200045EAC605066803EB0417F5514FF4C27583
:101C3000076805EB04150E697E51097D012905D061
:101C400009E00E88CD6845EA4655EBE701684E5934
:101C500046F480764E511179D2F805504FF4C6768D
:101C600041EA0521056806EB0416A9511178D2F85E
:101C700001204FF4C47541EA0221026805EB041506
:101C80005151006803EB0411425842F001024250E6
:101C90000020F0BD416A41F4001141620120F0BD15
:101CA00010B590F820300268012B07D0022B05D028
:101CB000416A41F480214162012010BDD2F8000246
:101CC00040F00100C2F80002087D00F01F0301206F
:101CD0009840D2F81C328343C2F81C32CB69B3B9A6
:101CE000D2F80C328343C2F80C328C894B6864F30F
:101CF0001F434C6902EBC404C4F840320C890B68E2
:101D000064F31F434C6902EBC404C4F84432CB694A
:101D1000012B16D1D2F80C320343C2F80C320C88D6
:101D20004B6864F31F434C6902EBC404C4F84032AF
:101D30000C89CB6864F31F434C6902EBC404C4F8FC
:101D400044328B69002BD2F804320FD053EA0003DF
:101D5000C2F804320B69002BD2F8143208D00343C6
:101D6000C2F81432096A012904D008E08343EFE77E
:101D70008343F5E7D2F81C120143C2F81C12D2F8D3
:101D8000000220F00100C2F80002002010BD7047E0
:101D900070B590F82040012C05D0022C03D0416A88
:101DA00041F4802128E0046809B32469A40720D005
:101DB0004FF4D874056804EB01142D5915F004058F
:101DC000956005682D591AD0ED08556005682C59A5
:101DD00004F00204D4604FF4DA74056804EB0114D3
:101DE0002E5906F00F06082E0CD308250DE0E468E6
:101DF000DCE7416A41F400114162012070BD6D0DC4
:101E00001560E3E72D5905F00F05156105682D599B
:101E1000C5F30725956105682C59240C54614FF4CE
:101E2000DC72046802EB0112A4581C700468A45808
:101E3000240A5C700468A458240C9C700468A2589E
:101E4000120EDA704FF4DE72046802EB0112A4582D
:101E50001C710468A458240A5C710468A458240CFA
:101E60009C710468A258120EDA71006829B10169E8
:101E700041F020010161002070BDC16841F02001E6
:101E8000C160F8E72DE9F05F054600680024466967
:101E9000D0F804908768D0F80CB0D0F810A0D0F833
:101EA0001880F10748D0F90714D001218160B807E4
:101EB00003D5284600F005FA0CE0780702D54FF468
:101EC000006407E0380702D54FF4805402E028464A
:101ED00000F0F6F9F80516D529684FF4807088608F
:101EE000B80503D5284600F0EEF90CE0780502D5D8
:101EF00044F4005407E0380502D544F4804402E07D
:101F0000284600F0DFF9F80316D529684FF4803031
:101F10008860B80303D5284600F0D7F90CE07803B1
:101F200002D544F4004407E0380302D544F4803479
:101F300002E0284600F0C8F9300707D55FEACB6019
:101F400004D52968102044F40074C86070074FF06D
:101F5000080707D55FEA0B7004D52868C7602846D4
:101F600000F05AF9B00706D52868C068800702D08B
:101F7000284600F053F9700607D55FEACA6004D519
:101F80002968102044F480640861B00607D55FEA30
:101F90000A7004D528680761284600F061F9F00648
:101FA00006D528680069800702D0284600F059F954
:101FB000B00308D55FEAC96005D5296810204860DC
:101FC000284600F04FF9F00307D55FEA097004D501
:101FD00028684760284600F079F9300446D55FEA62
:101FE000497040D5F00504D55FEAC87001D044F0CF
:101FF0000104B00504D55FEA887001D544F00204FD
:10200000700504D55FEA487001D544F0040430053A
:1020100029D518F0700F26D008F07000402815D090
:1020200006DC102809D020280AD0302816D10AE072
:1020300050280ED0602811D10EE044F008040DE0C5
:1020400044F010040AE044F0200407E044F04004A7
:1020500004E044F0800401E044F48074286881695D
:1020600021F070018161296804204860002C05D0AE
:10207000686A204368622846FFF789FEBDE8F09F42
:1020800070B5040003D094F8200010B104E00120E2
:1020900070BD204600F082F82068016841F001011F
:1020A000016000F037FC0546052604E000F032FC34
:1020B000401B0A2811D820684068C007F6D0206865
:1020C000016821F00201016000F024FC05460BE0EC
:1020D00000F020FC401B0A2806D9606A40F400305A
:1020E000606284F82060D2E7206840688007EFD4FF
:1020F000207E0128206801683DD021F08001016028
:10210000607E01282068016838D021F0400101601C
:10211000A07E01282068016833D021F020010160F1
:10212000E07E0128206801682ED041F01001016096
:10213000207F01282068016829D021F00801016072
:10214000607F01282068016824D021F0040101602B
:10215000D4E902010843D4E9041211430843616839
:10216000491E08432168C86100206062012084F88C
:102170002000002070BD41F08001C0E741F0400127
:10218000C5E741F02001CAE721F01001CFE741F097
:102190000801D4E741F00401D9E7000010B586B08A
:1021A0000021009101910291039100681749884232
:1021B0002AD11748C16941F00071C161C16901F0BC
:1021C00000710491816941F0040181618069114CC1
:1021D00000F0040004904FF400600090694620462F
:1021E00000F0A2FAA01400900220019003200390B6
:1021F0006946204600F098FA00221146142001F0AA
:102200006BF8142001F05AF806B010BD00640040CD
:102210000010024000080140704700000EB50D4A52
:1022200000210D4801ABFFF7B3FD0A480188ADF866
:102230000010C16802290BD05FF000018DF8021078
:10224000007C8DF803006946044805F0F8FA0EBDDD
:102250000121F3E720170020C00F00209C09002077
:10226000704770477047000070B5044690F8200032
:10227000012804D0606A40F40020606218E0022067
:1022800084F820002068016821F00101016000F05D
:1022900041FB05460EE000BF00F03CFB401B0A2856
:1022A00008D9606A40F400306062052084F820009C
:1022B000012070BD20684068C007EDD1606270BD2C
:1022C000704770477047704770477047704710B548
:1022D00090F821100022022905D00421816380F8A2
:1022E0002020012010BD01680B6823F00E030B6055
:1022F00001680B6823F001030B6090F84030C46B59
:10230000012101FA03F3636080F8211080F8202096
:10231000104610BD10B590F821100024022903D0FA
:102320000421816301243DE001680A6822F00E0265
:102330000A6001680A6822F001020A601A4A01680C
:10234000914201D1012121E0174A1432914201D179
:1023500010211BE0144A2832914201D1891515E061
:10236000114A3C32914201D189140FE00E4A503299
:10237000914202D14FF4803108E00B4A643291421D
:1023800002D14FF4801101E04FF08071064A083A03
:102390005160012180F82110002180F82010416B4C
:1023A00001B18847204610BD080002402DE9F05FCA
:1023B000C16B0C6801680B68D0F840C0042202FAB7
:1023C0000CF2494DDFF824A1494E4A4FDFF828B1FD
:1023D000DFF828E122422CD05A072AD50A68920653
:1023E00003D40A6822F004020A600168A94201D1FC
:1023F000042219E0514501D1402215E0B14202D139
:102400004FF4806210E0B94202D14FF480420BE0F9
:10241000594502D14FF4802206E0714502D14FF4B4
:10242000800201E04FF080622F4908394A60C16A9A
:102430003BE04FF0020808FA0CF818EA040F4FF0DE
:1024400000094FF0010235D05FEA837832D50B687E
:102450009B0605D40B6823F00A030B6080F821204B
:102460000168A94201D1022219E0514501D120227F
:1024700015E0B14202D14FF4007210E0B94202D12E
:102480004FF400520BE0594502D14FF4003206E000
:10249000714502D14FF4001201E04FF00072124971
:1024A00008394A6080F82090816A00291AD0BDE876
:1024B000F05F0847082505FA0CF5254212D01B07E6
:1024C00010D50B6823F00E030B6090F84010C36B1F
:1024D00002FA01F15960826380F8212080F820908F
:1024E000016BE2E7BDE8F09F080002401C000240DB
:1024F0003000024044000240580002406C0002409C
:1025000030B528B308C8134914221944B1FBF2F1BD
:102510008900C16310498163022141771A6843F63B
:10252000F0718A43D0E900142143D0E902452C43DD
:1025300021430469214344692143846921431143B0
:10254000196000214163012242770177084630BDBE
:10255000012030BDF8FFFDBF0000024070B5044609
:1025600090F82000002501280CD0012084F82000DC
:1025700094F821600020012E06D084F82000022566
:10258000284670BD022070BD022684F82160A06339
:102590002068066826F0010606602046FEF79AFFCE
:1025A000E06A00282068016802D041F00E0106E0D0
:1025B00021F0040101602068016841F00A01016016
:1025C0002068016841F001010160D9E770B5044657
:1025D00000F0A0F90546601C02D0044800780444CD
:1025E00000F098F9401BA042FAD370BDDC0B00202C
:1025F000264910B50B68264A14681B1BC82B44D308
:102600000968244C1160B0F5005F17D0B0F5804F19
:102610001CD0202822D0B0F5004F27D0B0F5805F25
:102620002CD0B0F5807F30D10020FEF7A7FE062029
:10263000207019A0BDE8104004F046B901210846F9
:1026400002F03AFC0120207018A0F3E700210120DD
:1026500002F032FC0220207019A0EBE701210220D9
:1026600002F02AFC032020701AA0E3E700210220D8
:1026700002F022FC042020701BA0DBE70120FEF703
:102680007DFE052020701DA0D4E710BDE40B0020C6
:1026900028000020230000204B657920455343206B
:1026A0002020507265737365640A00004B657920C1
:1026B0005570202020507265737365640A00000015
:1026C0004B657920446F776E205072657373656433
:1026D0000A0000004B6579204C65667420507265D5
:1026E000737365640A0000004B657920526967685E
:1026F0007420507265737365640A00004B6579201D
:102700004F4B20202020507265737365640A0000CF
:10271000044910B50A68024202D00860FFF768FF5A
:1027200010BD0000140401402DE9F84FDFF8B89106
:102730000024A9F1040B23460F2709F1040AABF189
:10274000040EC9E00125A5402A40AA427DD1674E6A
:10275000D1F804C0ACEB0608B44532D014DCBCF1AF
:10276000030F3AD009DCBCF1000F2AD0BCF1010FF5
:102770001CD0BCF1020F31D11DE0BCF1110F17D0FC
:10278000BCF1120F2AD119E0B8F5881F19D006DC68
:10279000B8F5803F15D0B8F5801F1FD111E0B8F50E
:1027A000001F0ED0B8F5041F18D10AE0CB6815E061
:1027B000CB681B1D12E0CB6808330FE0CB680C33ED
:1027C0000CE08B682BB1012B4FF0080303D045615F
:1027D00004E0042302E0056100E00023FF2A01D8A1
:1027E000064601E000F104064FEA840501D9A5F18F
:1027F0002005D6F8008007FA05FC28EA0C0803FA41
:1028000005F548EA0508C6F800804D68ED0062D578
:10281000374DAE6946F00106AE61AD6924F003069E
:1028200005F001050095334D06EB050CDCF808506A
:10283000A607360F07FA06F825EA0805DFF8B8807C
:10284000404503D14FF0000817E044E0DFF8AC80CA
:10285000404502D14FF001080FE0DFF8A480404569
:1028600002D14FF0020808E0DFF89880404502D11D
:102870004FF0030801E04FF0040808FA06F848EAB0
:102880000508CCF808804D68D9F80060ED024D4687
:1028900001D5164300E096432E604D68DAF80060DB
:1028A000AD02554601D5164300E096432E604D68B3
:1028B000DBF80060AD035D4601D5164300E09643AA
:1028C0002E604D68DEF80060ED03754601D51643B5
:1028D00000E096432E60641C0D682A46E5407FF4B4
:1028E00031AFBDE8F88F000008040140000011106E
:1028F000001002400000014000080140000C0140AF
:1029000000100140001401400AB101617047090440
:10291000FBE700000148806870470000DC0B0020E6
:1029200070B5040025D094F83D00002520B984F846
:102930003C50204600F03CFC242084F83D002068F8
:10294000016821F0010101602068016841F4004143
:1029500001602068016821F40041016000F052FE2E
:102960004D4A6168914201D84C4900E04C49884287
:1029700001D2012070BD4B492368B0FBF1F15E68C4
:1029800026F03F060E435E606368934206D94FF41B
:10299000967359434FF47A73B1FBF3F12368491CE2
:1029A0001E6A26F03F06314319626168914210D8D1
:1029B0004900401EB0FBF1F2521CC2F30B02042A84
:1029C00001D2042022E0B0FBF1F0401CC0F30B0068
:1029D0001CE0A268F2B301EBC10303EB0116431E36
:1029E000B3FBF6F35B1C43F480431B0549D092B361
:1029F00001EBC10202EB0111401EB0FBF1F0401CE3
:102A0000C0F30B0040F4804040F400402168CA69E4
:102A10004CF6FF739A431043C861D4E90710014391
:102A20002068026822F0C00211430160D4E903016A
:102A300001432068826848F2FF339A431143816062
:102A4000D4E9050108432168CA6822F0FF02104357
:102A5000C86001E00EE016E02068016841F0010165
:102A600001602564202084F83D00256384F83E50F1
:102A7000002070BD01EB4106431EB3FBF6F35B1C67
:102A8000B3E70120C2E701EB4101401EB0FBF1F0CA
:102A9000401CC0F30B00B7E7A086010080841E0035
:102AA00000093D0040420F002DE9F84F0025DDF8F8
:102AB0002890984617468A4604460095FFF72AFF55
:102AC000064694F83D0020287AD119230122864930
:102AD0002046009602F02CF80028F5D194F83C002E
:102AE00001286DD0012084F83C0020680168C907E6
:102AF00003D1016841F0010101602068016821F4FF
:102B000000610160222084F83D00102084F83E001E
:102B100025646762A4F82A80608D20857348E0628E
:102B200033464A465146204601F040FE00287CD1FB
:102B3000208DDFF8BC81202768B1012814D002283D
:102B4000206801681ED041F48061016020684169FD
:102B500080690090BBE0206841698169009101684B
:102B600041F400710160B2E02068016821F48061E5
:102B7000016072B62068416981690091016841F481
:102B800000710AE041F40061016072B62068416999
:102B900081690091016821F48061016062B696E06C
:102BA000032865D801280CD002284B464FF00002BC
:102BB0004146204600960BD001F0BAFFA8BB0CE0BE
:102BC00090E032464946204602F058F868BB71E072
:102BD00001F0AEFF48BB72B633E02068016821F413
:102BE0008061016072B620680069616A0870606A7D
:102BF000401C6062208D401E2085608D401E6085D7
:102C00003C4846F2A8110068B0FBF1F0C0EBC000F0
:102C100000EB80000090401E009007D020684069C3
:102C2000C04340070DD50098F5E727E044F8305F32
:102C30006773A573206940F02000206162B6257398
:102C40001CE02068016841F400710160206800699F
:102C5000616A0870606A401C6062218D491E21858E
:102C6000618D491E618562B621680969017025E0A0
:102C700032464946204602F001F810B10120BDE875
:102C8000F88F20680069616A0870606A401C6062A1
:102C9000208D401E81B22185608D401E6085206898
:102CA0004269D243520712D4032903D1016821F4A7
:102CB0008061016020680069616A0870606A401C78
:102CC0006062208D401E2085608D401E6085208DB5
:102CD00000287FF465AF84F83D7084F83E5084F896
:102CE0003C50CCE70220CAE7020010000000FFFFC2
:102CF00004000100E80B00202DE9F84F1F46904624
:102D00008A460446DDF82890FFF704FE054694F84D
:102D10003D0020287FD119230122404920460095FB
:102D200001F006FF002876D194F83C00012872D00B
:102D3000012084F83C0020680168C90703D10168BC
:102D400041F0010101602068016821F40061016027
:102D5000212084F83D00102084F83E0000262664DF
:102D6000C4F824806785608D20852D48E0622B465D
:102D70004A465146204601F08FFD90B920684169CE
:102D80008069009036E02A464946204601F0AEFFB1
:102D900050B1206C042804D12068016841F400710E
:102DA00001600120BDE8F88F606A21680078086141
:102DB000606A401C6062618D491E6185218D491EDB
:102DC00089B2218522685369DB435B070BD451B17B
:102DD00000781061606A401C6062608D401E6085F2
:102DE000208D401E20852A464946204601F074FE6B
:102DF0000028CED1208D0028C5D154F83D0B0168A4
:102E000041F400710160202004F81E09E67766771E
:102E10000020C7E7FFE70220C4E70000020010001F
:102E20000000FFFF2DE9FF4F83B00025DDE9107999
:102E30009A4693460446DDF848800095FFF76AFD00
:102E4000064694F83D0020287CD1192301228849A8
:102E50002046009601F06CFE0028F5D194F83C0065
:102E600001286FD0012084F83C0020680168C90760
:102E700003D1016841F0010101602068016821F47B
:102E800000610160222084F83D00402084F83E006B
:102E900025646762A4F82A90608D20857548E062F9
:102EA000CDE9008653465A462046049901F042FD7A
:102EB00000287CD1208DDFF8C091202768B101283F
:102EC00014D00228206801681ED041F4806101609E
:102ED0002068416980690090BCE02068416981698F
:102EE0000091016841F400710160B3E0206801685D
:102EF00021F48061016072B62068416981690091A6
:102F0000016841F400710AE041F40061016072B6A9
:102F10002068416981690091016821F48061016044
:102F200062B697E0032865D801280CD002284346F2
:102F30004FF000024946204600960BD001F0F8FD04
:102F4000A8BB0CE091E032464146204601F096FED7
:102F500068BB72E001F0ECFD48BB72B633E020685C
:102F6000016821F48061016072B620680069616ABD
:102F70000870606A401C6062208D401E2085608D54
:102F8000401E60853D4846F2A8110068B0FBF1F094
:102F9000C0EBC00000EB80000090401E009007D006
:102FA00020684069C04340070DD50098F5E727E049
:102FB00044F8305F6773A573206940F020002061FA
:102FC00062B625731CE02068016841F4007101605D
:102FD00020680069616A0870606A401C6062218D27
:102FE000491E2185618D491E618562B62168096986
:102FF000017026E032464146204601F03FFE18B1FE
:10300000012007B0BDE8F08F20680069616A087090
:10301000606A401C6062208D401E81B22185608DF7
:10302000401E608520684269D243520712D40329AA
:1030300003D1016821F48061016020680069616A40
:103040000870606A401C6062208D401E2085608D83
:10305000401E6085208D00287FF464AF84F83D70A9
:1030600084F83E5084F83C50CBE70220C9E70000CA
:10307000020010000000FFFF04000100E80B002028
:103080002DE9FF4F83B09A46DDE911979346044638
:10309000DDF84080FFF73EFC054694F83D0020280F
:1030A0007FD11923012240492046009501F040FDBF
:1030B000002876D194F83C00012872D0012084F8D1
:1030C0003C0020680168C90703D1016841F0010193
:1030D00001602068016821F400610160212084F80A
:1030E0003D00402084F83E0000262664C4F8248079
:1030F000A4F82A90608D20852C48E062CDE9007507
:1031000053465A462046049901F092FC70B930E0CB
:103110002A463946204601F0E9FD58B1206C0428C2
:1031200004D12068016841F400710160012007B0FA
:10313000BDE8F08F606A216800780861606A401C11
:103140006062218D491E89B22185628D521E628581
:1031500022685369DB435B070BD469B100781061C7
:10316000606A401C6062208D401E2085608D401E7C
:103170006085208D0028CBD12A463946204601F0B3
:10318000ABFC0028CAD154F83D0B016841F4007132
:103190000160202004F81E09E67766770020C6E764
:1031A000FFE70220C3E70000020010000000FFFF5D
:1031B00010B586B000210091019102910391006841
:1031C0000F4988421AD10F4CA06940F00800A06155
:1031D000A069694600F008000490C0200090122009
:1031E0000190032003900848FFF79EFAE06940F43D
:1031F0000010E061E06900F40010049006B010BD1A
:103200000054004000100240000C01400248816858
:103210000278114481607047DC0B0020074810B52C
:10322000016841F010010160032000F075F80F20E3
:1032300000F006F800F024F8002010BD0020024045
:1032400070B50D4D04464FF47A712878B1FBF0F05B
:103250000A490968B1FBF0F000F0F3FC48B9102C02
:1032600007D200222146501E00F036F800206C6084
:1032700070BD012070BD0000DC0B0020E80B0020B9
:103280000C4808B5816941F001018161816901F053
:1032900001010091C16941F08051C161C06900F034
:1032A000805000900448416821F0E06141F00071D5
:1032B000416008BD0010024000000140002809DB09
:1032C00000F01F02012191404009800000F1E02040
:1032D000C0F8001170470000F0B40E4B1B680C469C
:1032E000C3F30223C3F10705042D00D90425191DDA
:1032F000072901D2002300E0DB1E012606FA05F1B2
:10330000491E214099409E40761E16403143F0BC34
:1033100003F0FEBA0CED00E0064900F00702086871
:103320004FF6FF03184040EA0220034A10430860AA
:10333000704700000CED00E00000FA050149012093
:103340000862704700000E4210B501460020234C71
:10335000012922D0022939D010291DD161682268A3
:10336000D20119D51E48C1F38342C903805C0AD536
:1033700061681B4AC1F34041921E515C194AB2FB7D
:10338000F1F1484301E0184948436168490203D418
:1033900040000321B0FBF1F010BD226AC2F301210D
:1033A000012903D1920701D5C80310BD022905D117
:1033B000626A920702D549F6404010BD0329FCD14C
:1033C00021688903F9D54FF2244010BD00F02AF995
:1033D0006168C1F38131491C4900DBE700100240FC
:1033E000D2BB000800127A0000093D002DE9F84325
:1033F00005460078354CC00754D0E0690026C0006F
:1034000008D4E06940F08050E061E069012600F0F6
:10341000805000902E480168C90512D4016880468A
:1034200041F480710160FFF775FA074605E000BFBF
:10343000FFF770FAC01B642823D8D8F80000C00535
:10344000F6D5206A10F4407021D0A98801F44071AB
:1034500081421CD0206A1F49012220F440700A607A
:1034600000220A602062C00711D0FFF753FA074616
:1034700041F2883808E000BFFFF74CFAC11B414514
:1034800002D90320BDE8F883206A8007F4D5206ABA
:10349000696820F44070084320621EB1E06920F0A2
:1034A0008050E0612878800705D56068A96820F41D
:1034B0004040084360602878C00605D56068E96828
:1034C00020F48000084360600020DBE70010024029
:1034D00000700040400442422DE9F0470F460500CD
:1034E00061D0434E306800F00700B84209D230681E
:1034F00020F0070038433060306800F00700B84221
:1035000051D128683B4C810712D5400703D560682C
:1035100040F4E06060602878000703D5606840F4FC
:10352000605060606068A96820F0F0000843606047
:103530002878C00728D06868012810D021680228A0
:1035400010D0890700292EDA616821F003010143B8
:103550006160FFF7DFF9804641F288390DE02168AC
:103560008903EFE78901EDE7FFF7D4F9A0EB080144
:10357000494502D90320BDE8F0876068696800F01A
:103580000C00B0EB810FEFD1306800F00700B842BB
:103590000BD9306820F0070038433060306800F005
:1035A0000700B84201D00120E5E72878400705D59B
:1035B0006068E96820F4E0600843606028780007EC
:1035C00006D56068296920F4605040EAC100606057
:1035D00000F038F86168084AC1F30311515CC84033
:1035E0000649086006480068FFF72AFE0020C2E787
:1035F0000020024000100240E2BB0008E80B00205F
:10360000E00B00200448054900684968044AC1F3FA
:103610000221515CC8407047E80B002000100240B6
:10362000F2BB00080448054900684968044AC1F330
:10363000C221515CC8407047E80B002000100240D6
:10364000F2BB00080E4A51680E4801F00C03042B2F
:1036500011D0082B0FD10C48C1F38343C903C05CC0
:103660000AD55168084AC1F34041921E515C054A8F
:103670005043B0FBF1F070470449484370470000E5
:103680000010024000127A00C0BB000800093D0093
:103690002DE9F84F040070D02078C04DC00749D004
:1036A0006868C0F38100012807D06868C0F3810012
:1036B000022809D16868C00306D52868800339D577
:1036C00060680028E7D035E06068B0F5803F0BD037
:1036D00010B1B0F5A02F11D0286820F480302860F8
:1036E000286820F4802002E0286840F480302860B8
:1036F000606890B1FFF70EF906460AE0286840F4CA
:1037000080202860F0E700BFFFF704F9801B6428E1
:1037100073D828688003F7D50CE0FFF7FBF806465E
:1037200005E000BFFFF7F6F8801B6428F0D8286892
:103730008003F7D420789A4E80074FF001094FF0AC
:10374000000839D5686810F00C0F07D06868C0F31E
:103750008100022809D16868C00306D42868800760
:1037600014D52069012808D110E02069B0B1C6F84D
:103770000090FFF7CFF8074605E00AE1FFF7CAF827
:10378000C01B0228C4D828688007F7D5286861695B
:1037900020F0F80040EAC10028600DE0C6F8008083
:1037A000FFF7B8F8074604E0FFF7B4F8C01B02289B
:1037B00023D828688007F7D4207800072CD57948CB
:1037C000A169D9B1C0F80090FFF7A4F8074604E05A
:1037D000FFF7A0F8C01B02280FD8686A8007F7D54A
:1037E00071484FF4FA510068B0FBF1F0009000BF4F
:1037F0000098411E0091FAD20EE080E0C0F80080EF
:10380000FFF788F8074604E0FFF784F8C01B02289A
:1038100075D8686A8007F7D42078400760D5E869D2
:103820000027C00008D4E86940F08050E861E869EA
:10383000012700F0805000905C480168C90513D44E
:103840000168834641F480710160FFF763F88246A6
:1038500006E000BFFFF75EF8A0EB0A0064284ED830
:10386000DBF80000C005F5D5E06801280AD008B1F2
:10387000052813D0286A20F001002862286A20F069
:10388000040002E0286A40F001002862E06841F28A
:10389000883B98B1FFF73EF882460BE0286A40F07B
:1038A00004002862EEE700BFFFF734F8A0EB0A013E
:1038B00059455AD8286A8007F6D50CE0FFF72AF850
:1038C000824605E0FFF726F8A0EB0A0159454CD8DF
:1038D000286A8007F6D41FB1E86920F08050E861BB
:1038E000E06988B36968C1F38101022944D00228E4
:1038F000C6F8608004D0FFF70DF8044638E034E0E5
:10390000FFF708F8074604E0FFF704F8C01B022899
:103910002BD828688001F7D4206AB0F5803F05D104
:103920006868A16820F4003008436860D4E90801A1
:103930000843696821F4741108436860C6F8609010
:10394000FEF7E8FF044606E025E000BFFEF7E2FFD1
:10395000001B022809D828688001F7D51BE000BFAA
:10396000FEF7D8FF001B022802D90320BDE8F88F1C
:1039700028688001F4D40EE00128F7D06868226A34
:1039800000F48031914204D1616A00F470108842E1
:1039900001D00120EAE70020E8E700000010024023
:1039A0000000424280044242E80B002000700040C8
:1039B000024850F8210080B270470000006C0040BF
:1039C000024800EB810091B201607047006C00403A
:1039D00070B5040003D0607C002610B105E0012022
:1039E00070BD2674204600F03DF802206074204629
:1039F00000F00AF9042550BB204602F03EF830BB27
:103A00002068416821F007014160A06820B1144896
:103A1000016821F0010101601148001F0168A268DE
:103A200021F46071114301606068411C04D10120E0
:103A3000FFF78AFC58B1401E2268C0F30341916031
:103A4000216880B2C860204602F032F808B165747F
:103A5000C5E7E67301206073A0736074002070BD39
:103A6000306C004008B50068084988420DD1FFF766
:103A700065FC0748C16941F00061C161C069054941
:103A800000F0006000900120086008BD00280040A0
:103A9000001002403C0442422DE9F0410D46040072
:103AA0003BD0C5B3207C01283AD04FF0010884F800
:103AB000108002206074E87872B301F0D5FFE073E3
:103AC000687801F0D1FF6073A87801F0CDFFA07392
:103AD000C2B2617BE07B02F01DF8207328702046A3
:103AE00002F008F84FF46161B0FBF1F100251829EC
:103AF0002DD91822B1FBF2F1A1EB011101EB41012B
:103B0000C1EB011100EBC1163146204602F07AF8F4
:103B10000427C8B90BE000E004E00120BDE8F08113
:103B20000220FBE7E07368786073A878CFE720464F
:103B300001F0D9FF411C0AD0B04208D20649014425
:103B4000204602F012F810B167742574E5E784F896
:103B5000118025740020E1E7805101002DE9F0413A
:103B60000D46040024D01DB3207C012823D04FF043
:103B7000010884F81080022060742878EAB101F00E
:103B800073FF4FF4616100FB01F6687801F06CFF90
:103B9000C0EB001006EB8006A87801F065FF351831
:103BA0002946204602F02EF80026042710BB0FE01D
:103BB0000120BDE8F0810220FBE74FF4616148433A
:103BC0006978C1EB011100EB8100A9784518E7E79E
:103BD0002068416821F005014160204601F083FF23
:103BE000411C0AD0A84208D206490144204601F0EF
:103BF000BCFF10B167742674DAE784F8118026746C
:103C00000020D6E78051010070B504000AD020687A
:103C1000416821F008014160FEF77CFE05464FF443
:103C20007A7608E0012070BDFEF774FE401BB042BA
:103C300001D9032070BD206840680007F4D500203A
:103C400070BD10B5401EB0F1807F01D3012010BDC2
:103C50004FF0E02460610F21601702F059FE002050
:103C6000A06107202061002010BD70477047000050
:103C700070B590F83C20012A26D0012480F83C4001
:103C8000022280F83D2003685A689D6822F0700681
:103C90000A6832435A600D4B02689A4208D0B2F16A
:103CA000804F05D00A4B9A4202D00A4B9A4204D167
:103CB000496825F080031943916080F83D40002158
:103CC00080F83C10084670BD022070BD002C0140F9
:103CD000000400400008004010B5040003D094F830
:103CE0003D0010B107E0012010BD002084F83C0029
:103CF000204600F01FF8022084F83D00211D2068B6
:103D000002F0FAF8012084F8460084F83E0084F8B6
:103D10003F0084F8400084F8410084F8420084F8B1
:103D2000430084F8440084F8450084F83D000020F6
:103D300010BD000008B5274A0168274891420ED1FE
:103D4000816941F4006181618069002200F40060B2
:103D5000009011461920FFF7BFFA192034E0B1F1A5
:103D6000804F11D01D4A91421DD1C16941F002011D
:103D7000C161C069002200F00200009002211D20F4
:103D8000FFF7AAFA1D201FE0C16941F00101C161DE
:103D9000C069002200F00100009011461C20FFF7CE
:103DA0009BFA1C2010E00E4A914211D1C16941F0EA
:103DB0000401C161C069002200F0040000901146B6
:103DC0001E20FFF789FA1E20BDE80840FFF776BAEB
:103DD00008BD0000002C014000100240000400401B
:103DE0000008004090F83D10012901D001207047E3
:103DF000022180F83D100168CA6842F00102CA60E1
:103E000000680B49884208D0B0F1804F05D00949BD
:103E1000884202D00849884204D1816801F0070134
:103E2000062903D0016841F00101016000207047BC
:103E3000002C0140000400400008004001680A6AAC
:103E400041F211131A4207D10A6A9B101A4203D198
:103E50000A6822F001020A60012180F83D1000206A
:103E6000704770B5044690F83C000025012817D033
:103E7000012684F83C60022084F83D0020688268B6
:103E800022F0770222F47F4282600868502838D0FE
:103E90000DDC20284FD005DC90B3102811D14AE06A
:103EA000022070BD302846D040280AD13BE060286F
:103EB0002FD070280DD0B0F5805F03D0B0F5005F33
:103EC00012D0012584F83D60002084F83C0028468B
:103ED00070BDCB68D1E90121206802F049F8206863
:103EE000816841F0770109E0CB68D1E901212068C0
:103EF00002F03EF82068816841F480418160E1E78A
:103F000019E0CA684968206802F044F85021206826
:103F100006E0CA684968206802F04DF86021206810
:103F200002F030F8CEE7CA684968206802F032F83B
:103F300040212068F4E7226801461046F0E7704708
:103F40002DE9F04104460068C66805694FF0000796
:103F5000A90713D5B10711D5F91E016101202077FA
:103F6000206880698007204602D0FFF7E8FF04E060
:103F700000F07EF8204600F07CF82777680716D519
:103F8000700714D521686FF00400086102202077C3
:103F90002068806910F4407F204602D0FFF7CFFFF1
:103FA00004E000F065F8204600F063F82777280762
:103FB00015D5300713D521686FF00800086104207B
:103FC00020772068C0698007204602D0FFF7B7FF3E
:103FD00004E000F04DF8204600F04BF82777E806A3
:103FE00016D5F00614D521686FF01000086108207E
:103FF00020772068C06910F4407F204602D0FFF788
:104000009EFF04E000F034F8204600F032F82777F5
:10401000E80708D0F00706D021686FF001000861BA
:10402000204600F027F8280608D5300606D5216876
:104030006FF0800008612046FFF717FE680608D57C
:10404000700606D521686FF040000861204600F038
:1040500041F8A8060AD5B00608D521686FF02000FF
:1040600008612046BDE8F041FFF700BEBDE8F081E1
:104070007047704710B500680E4988420DD10E4850
:10408000012202700D484168491C41600A2903D38E
:10409000002141600A48027010BD0A498842FBD1E4
:1040A0000948FFF7CBFE094802F084FB0849087075
:1040B00010BD0000002C01401C0000202800002042
:1040C0001F0000200008004058110020F80B0020BD
:1040D000210000207047704710B504460068406911
:1040E00094F84110C0F3C010212911D180B120688B
:1040F000143050E8001F21F0800140E80012002A2F
:10410000F5D1A06B08B1FEF7E2F8204602F02AF9DB
:104110002068406994F84210C0F38010222911D120
:1041200080B12068143050E8001F21F0400140E8C1
:104130000012002AF5D1E06B08B1FEF7C8F820465E
:1041400002F0E9F8002010BD70470000F8B50168E2
:1041500004460868CA684B6910F00F0F4FF000055D
:1041600059D003F0010602F49077374365D0C107B8
:1041700005D0D10503D5616C41F0010161644107AF
:1041800005D5D90703D0616C41F002016164810754
:1041900005D5D90703D0616C41F0040161640107C2
:1041A00007D502F02001314303D0616C41F00801D2
:1041B0006164616C00293AD0800604D5900602D56E
:1041C000204602F0DDF820684069616CC0F3801081
:1041D000090700D460B3204602F09DF820684069CA
:1041E000400621D52068143050E8001F21F040011E
:1041F00040E80012002AF5D1E06BA8B16D49416397
:10420000E06BFEF787F8002811D0E06B416B01B03E
:10421000BDE8F040084783060FD593060DD520462C
:10422000BDE8F84002F0ACB82046FFF78DFFF8BDBE
:104230002046FFF789FF6564F8BD266B2023012E19
:104240007CD1C6067AD5D60678D50868486800902D
:1042500048694FF00206400640D5E16B08684068A7
:104260000004000CE8D0A28D8242E5D9E08588697F
:1042700020282DD020680C3050E8001F21F48071D8
:1042800040E80012002AF5D12068143050E8001FE1
:1042900021F0010140E80012002AF5D12068143015
:1042A00050E8001F21F0400140E80012002AF5D13B
:1042B00084F84230256320680C3050E8001F21F05C
:1042C000100140E80012002AF5D1E06BFDF7FFFF76
:1042D0006663A08DE18D401A81B22AE0A08DE18D48
:1042E000401A81B2E08D0028A6D00029A4D022680F
:1042F0000C3252E8000F20F4907042E80007002FC3
:10430000F5D12068143050E8002F22F0010240E877
:104310000027002FF5D184F84230256320680C3047
:1043200050E8002F22F0100240E80023002BF5D1C6
:1043300066632046FFF7CFFEF8BDFFE705062BD5E5
:10434000150629D594F841002128F5D1A068B0F5CB
:10435000805F01D12069B0B1206A411C21622168CF
:1043600000784860E08C401E0004000CE084E3D13B
:104370002068C16821F08001C1602068C16841F0F7
:104380004001C160D8E7206A0088C0F30800486097
:10439000206A801C2062E5E74006CDD55006CBD5CB
:1043A000CA68204622F04002CA6084F8413000F01A
:1043B000E3F9C1E71962000870B5040004D094F86D
:1043C0004100002510B106E0012070BD84F8405086
:1043D000204600F023F8242084F841002068C168BA
:1043E00021F40051C160204602F02CF820680169D8
:1043F00021F4904101612068416921F02A01416165
:104400002068C16841F40051C1606564202084F8CF
:10441000410084F842006563002070BD2DE9F0473B
:1044200086B0002400940194029403940546036826
:104430005C48DFF86CC102210322DFF86C810615AD
:1044400080274FF020094FF4005A634538D1836923
:1044500043F480438361836903F480430493836955
:1044600043F0040383618069039200F00400049028
:104470000802CDE9000169464046FEF755F9CDE94D
:104480000064694640460294FEF74EF9484E47489C
:1044900006F11403C6E90004C6E90247346183E863
:1044A00010063046FEF72CF808B1FDF7AFF8EE63C2
:1044B0000022114625207562FEF70EFF252029E017
:1044C000DFF8F0C063452AD1C36943F40033C36108
:1044D000C36903F400330493836943F004038361E5
:1044E0008069039200F0040004900420CDE90001EB
:1044F00069464046FEF718F90820CDE900046946F0
:1045000040460294FEF710F9002211462620FEF7DD
:10451000E3FE2620FEF7D2FE06B0BDE8F087DFF806
:1045200098C06345F8D1C36943F48023C361C3696C
:1045300003F480230493836943F008038361806953
:10454000CDE9006100F00800CDE903201B4E69466B
:104550003046FEF7E9F8F014CDE90004694630462C
:104560000294FEF7E1F8124E104844362838C6E9A6
:104570000004C6E9024706F11403346183E810061B
:104580003046FDF7BDFF08B1FDF740F8EE630022AD
:10459000114627207562FEF79FFE2720BAE700002C
:1045A000003801400010024000080140580002405D
:1045B000781400200044004000480040000C0140F6
:1045C00090F84230202B01D00220704721B11AB15F
:1045D0000023036301F092BF0120704770B50068AB
:1045E0001049002588420AD10F4C6B1E20784142A9
:1045F000CAB20E4901440E4800F06EF810E00D49B1
:1046000088420ED10C4C20784142CAB20B49014479
:104610000B48FCF7E3FF002802DA0AA002F054F985
:10462000257070BD0038014024000020A01100203A
:10463000301400200048004025000020A012002077
:10464000F80B00204649464F2046756C6C0A000066
:1046500070B500681549884210D1154C4FF0FF33F2
:104660002078C0F18001CDB212492A460144124897
:1046700000F032F820782844207070BD0F4988423D
:10468000FBD10F4D2878C0F18001CCB20D492246F4
:1046900001440D48FCF7A2FF002802DA0BA002F04B
:1046A00013F928782044287070BD000000380140BC
:1046B00024000020A01100203014002000480040F9
:1046C00025000020A0120020F80B00204649464F8C
:1046D0002046756C6C0A00002DE9F843044690F8FA
:1046E0004100984616460D46202802D00220BDE81B
:1046F000F88385B17EB100206064212084F84100F8
:10470000FEF708F9A6848146E684A0682027B0F564
:10471000805F02D003E00120E9E7206910B12E4656
:1047200000250EE000260CE08021204601F02EFF3F
:10473000A8B9C6B116F8010B21684860E08C401E8C
:10474000E084E08C4B464FF00002CDF8008000285A
:10475000EAD14FF04001204601F018FF40B184F843
:1047600041700320C3E735F8020BC0F30800E3E70C
:1047700084F841700020BAE77047FEE701684A6993
:10478000D24352050FD46FF480624A61002140F891
:10479000301F202242738173026942F004020261D9
:1047A0000173012070470020704700002DE9F84F89
:1047B0000446C06A1E4693460D4621680A6842F4C4
:1047C00080620A60082807D0012805D010F5803FD4
:1047D00002D0206B112804D12068016841F4807157
:1047E00001604FF001195B460022494620460096C1
:1047F00000F09EF94FF4007840B120680068C005D1
:1048000001D5C4F840800320BDE8F88F2069DFF8A7
:1048100084A0B0F5804F0FD00620216800EAD5179C
:1048200047F0F000086133465A460AF10601204677
:1048300000F0C6F958BB03E0E8B240F001001CE00C
:104840002168E8B2086133465A465146204600F0D6
:10485000B7F9E0B92068416981690091016841F4C4
:10486000807101605B46002249462046009600F0B8
:104870005FF90028C1D147F0F10021680861334693
:104880005A465146204600F09BF90028BCD0012032
:10489000BAE7000002000100F8B50446C06A1E46EF
:1048A0000D461746082807D0012805D010F5803F8F
:1048B00002D0206B122804D12068016841F4807175
:1048C0000160134600224FF001112046009600F0CF
:1048D0002FF940B120680068C00502D54FF4007080
:1048E00020640320F8BD2069B0F5804F0ED006206B
:1048F000216800EAD51040F0F000086133463A46DE
:104900000B49204600F05CF978B902E005F0FE00A2
:1049100000E0E8B221680861054933463A46891F3C
:10492000204600F04DF90028DCD00120F8BD000041
:10493000080001002DE9F84F0446006889460B9DE8
:1049400001689846174641F480610160206801685B
:1049500041F48071016000954FF0011B002259461F
:1049600020460A9B00F0E4F84FF4007A40B120683A
:104970000068C00501D5C4F840A00320BDE8F88F49
:10498000216809F0FE0008612B46284920460A9A52
:1049900000F016F9F0BB20684169806900902A4652
:1049A00020460A9900F0A2F940B1206C04283AD1BF
:1049B0002068016841F40071016034E0FEB2B8F192
:1049C000010F09D02168380A08612A4620460A9951
:1049D00000F08CF90028E8D1206806612A462046BC
:1049E0000A9900F083F90028DFD12068016841F4BA
:1049F0008071016000950022594620460A9B00F014
:104A000097F80028B3D1216809F0FF0040F00100B9
:104A1000086100E007E02B46044920460A9A00F0AE
:104A2000CFF80028AAD00120A8E70000020001006A
:104A30002DE9F843044600680D46DDE90897016852
:104A40009846164641F4807101604B4600224FF0B3
:104A500001112046009700F06BF848B1206800680B
:104A6000C00502D54FF4007020640320BDE8F88330
:104A7000216805F0FE0008613B464A46154920467C
:104A800000F09EF888B920684169806900903A4634
:104A90004946204600F02AF948B1206C042804D188
:104AA0002068016841F4007101600120DEE7F5B281
:104AB000B8F1010F09D02168300A08613A46494629
:104AC000204600F013F90028E7D120680561002096
:104AD000CCE700000200010070B516460D46044602
:104AE0001EE02046FFF74AFE08B1012070BD681C99
:104AF00016D0FDF70FFF801BA84200D885B92068AB
:104B00004069C04340070BD5002044F8300F2021F6
:104B10006173A073216941F0200121612073E4E7F2
:104B200020684069C0434007DBD4002070BD00000E
:104B30002DE9F047984617460D460446C1F307464F
:104B4000DDF820902AE000BFB8F1FF3F26D0FDF746
:104B5000E1FEA0EB0901414502D8B8F1000F1DD1DB
:104B60002068012E16D0806925EA00000004000CA0
:104B700012D00020B84211D1002044F8300F20217B
:104B80006173A073216941F020012161207301202C
:104B9000BDE8F0874069E7E70120EBE72068012ED8
:104BA0000AD0806925EA00000004000C06D000202D
:104BB000B842C9D00020EBE74069F3E70120F7E7EE
:104BC0002DE9F047984616460D4604464FF0000979
:104BD0004FF0200AC1F3074723E020684069C04333
:104BE000400515D42068016841F400710160216816
:104BF0006FF480604861C4F8309084F83DA084F878
:104C00003E90216C41F00401216484F83C9021E045
:104C1000701C06D0FDF77EFEA0EB0800B04203D862
:104C200016B1012F1FD021E02068012F15D0806917
:104C300025EA00000004000C18D000BF44F8309FA3
:104C400084F80DA084F80E90216941F020012161C3
:104C500084F80C900120BDE8F087406925EA000047
:104C60000004000CEAD12068406901E020688069F6
:104C700025EA00000004000CAFD1ECE72DE9F0417B
:104C8000002590460E460446202728E04069C04390
:104C9000C0060CD454F8301B6FF01000486144F883
:104CA00010596777A577206A2062257714E0FDF711
:104CB00031FEA0EB0800B04200D886B920684069F8
:104CC000C04340060BD544F8305F6773A573206975
:104CD00040F02000206125730120BDE8F0812068AC
:104CE0004169C9434906D1D40020F6E770B516469C
:104CF0000D4604461EE02046FFF740FD08B10120A6
:104D000070BD681C16D0FDF705FE801BA84200D8B8
:104D100085B920684069C04300060BD5002044F8DF
:104D2000300F20216173A073216941F020012161BE
:104D30002073E4E720684069C0430006DBD400200C
:104D400070BD00007CB500258DF8045047208DF81B
:104D50000500FF248DF80640032301AA82210B4899
:104D60000094FDF7C9FF0520FDF730FC05208DF804
:104D7000040014208DF805008DF80650032301AAC5
:104D8000822102480094FDF7B7FF7CBD1810002077
:104D900070B500F059F8064600F03AF8044600F005
:104DA0006FF805463046FBF74EFE1349FBF73CFC17
:104DB00006462046FBF747FE1049FBF735FC104935
:104DC000FBF764FC04462846FBF73DFE0D49FBF764
:104DD0002BFC05460C492046FBF726FCFBF745FE5D
:104DE0000A4CE0803046FBF740FE20812846FBF766
:104DF0003CFE608170BD0000CDCCCC3D0000A03FEA
:104E000000007A44000020400000C8422016002024
:104E10003EB50BA0FF2400680290012302AA822164
:104E200000940848FDF768FF022301AA8221054883
:104E30000094FDF739FEBDF8040040BA3EBD000005
:104E400002000000181000203EB50BA0FF240068EF
:104E50000290012302AA822100940848FDF74CFF2A
:104E6000022301AA822105480094FDF71DFEBDF82A
:104E7000040040BA3EBD00000400000018100020ED
:104E80003EB50BA0FF2400680290012302AA8221F4
:104E900000940848FDF730FF022301AA822105484B
:104EA0000094FDF701FEBDF8040040BA3EBD0000CD
:104EB00003000000181000200A4B012808D0022827
:104EC0000ED1C001012906D0002909D1012203E039
:104ED0004FF40070F6E7002201461846FDF714BDB6
:104EE00070470000000C01402DE9F04102F024FC65
:104EF000070039D025A102F011FC064625A138464D
:104F000002F00CFC054625A1384602F007FC0446D9
:104F100024A1384602F002FC0146244836B17269E9
:104F2000002A028825D042F00102028035B16A6968
:104F3000002A028820D042F00202028034B1626965
:104F4000002A02881BD042F00402028031B1496974
:104F50000029018816D041F008010180384602F08E
:104F6000B5FB0120BDE8F08111A001F0ADFC0020EF
:104F7000F8E722F00102D8E722F00202DDE722F092
:104F80000402E2E721F00801E7E700004C45443164
:104F9000000000004C4544320000000042454550EE
:104FA0000000000052454C4159000000201600202E
:104FB0007061727365206661696C2E0A00000000E2
:104FC00010B5164886B00DF1040C0189C489838997
:104FD00042898CE81E00C18800918388428810A114
:104FE0001E4801F081FC1D4A1DA102F1800001F064
:104FF0007BFC1A491AA0803101F066FC174880300A
:10500000FBF730F9154982B24FF47A7380311548B5
:10501000FFF762FB06B0012010BD00002016002043
:105020007B225450223A25642C225248223A25648D
:105030002C22564F223A25642C224355223A2564CD
:105040002C225057223A25642C225652223A2564AB
:105050002C22435055223A25647D0000200D00206B
:1050600025730000301400203EB500211248009145
:105070000191104A0291026081600173017501245F
:105080004FF460220461C2614160FCF7E1FB08B1AA
:10509000FCF7BCFA07200094CDE9014069460648B8
:1050A000FCF754FB08B1FCF7B1FA0348FCF7E2FA4D
:1050B0003EBD000000240140E80F00200F4810B55D
:1050C0000D4901600821416000214FF4A022816058
:1050D000C0E903124FF48012426101764176817675
:1050E000C17601774177FCF7CBFF002803D0BDE8FC
:1050F0001040FCF78BBA10BD00640040C00F0020C8
:105100000D4808B5416941F0010141614069002243
:1051100000F00100009011460D20FEF7DDF80D2093
:10512000FEF7CCF8002211460F20FEF7D5F8BDE8B7
:1051300008400F20FEF7C2B8001002402DE9F041F0
:1051400086B000253C48009501950295039581693C
:1051500041F010018161816901F0100104918169C0
:1051600041F020018161816901F020010491816990
:1051700041F004018161816901F0040104918169B8
:1051800041F00801816180692C4F00F008004FF464
:1051900000540490002221463846FDF7B5FBDFF8A5
:1051A000A080002206214046FDF7AEFB01224FF40D
:1051B00040714046FDF7A8FB009401AA0124022695
:1051C00082E8700069463846FDF7AEFA40F20230D8
:1051D0008DE8710069464046FDF7A6FA04208DE887
:1051E00031000320039069464046FDF79DFA154DB6
:1051F0004FF22000CDE90005694602944046FDF7D4
:1052000093FA2002CDE90005694602940E48FDF7A5
:105210008BFA002211461720FEF75EF81720FEF7E2
:105220004DF8002211462820FEF756F82820FEF7F8
:1052300045F806B0BDE8F0810010024000100140C2
:10524000000C014000002110000801400D4810B57D
:105250000B4901600C49416000214FF4804281609C
:10526000C0E9031241618161C1610162FDF758FB30
:10527000002803D0BDE81040FCF7C8B910BD0000FD
:105280000054004018100020A086010030B58DB0F9
:1052900000202A490C90284A0B900A60421EC1E95E
:1052A00001200846FEF794FB08B1FCF7AFF9012195
:1052B0002248FEF77DFB45F25105A84239D0102067
:1052C0008DF8300020208DF8310030208DF832002C
:1052D00001220CA91948FEF741FC08B1FCF796F928
:1052E00004248DF82C4009208DF82D008DF82E40D7
:1052F00025208DF82F0001220BA91048FEF7CCFBCA
:1053000008B1FCF783F97D2005900820CDE9034022
:105310000B20029001900A2000906846FAF718FFCF
:105320000146064800F036FC2A4601210348FEF7F4
:1053300047FB0DB030BD0000002800406C1000207D
:1053400010B586B000241848009401940294039488
:10535000049414490594016041F61F41C0E9011409
:1053600041F28831C0E903148021C0E90541FEF70C
:10537000B3FC08B1FCF74AF94FF48050009069463D
:105380000948FEF76EFD08B1FCF740F9049404A942
:1053900005480594FEF76CFC002801D0FCF736F9AF
:1053A00006B010BD002C01408010002010B586B062
:1053B00000241748009401940294039404944FF03D
:1053C0008041059401604721C0E901144FF4005168
:1053D000C0E9031480218161FEF77EFC08B1FCF76F
:1053E00015F94FF48050009069460948FEF739FDE1
:1053F00008B1FCF70BF9049404A905480594FEF7DD
:1054000037FC002801D0FCF701F906B010BD000000
:10541000C810002010B586B00024174800940194ED
:1054200002940394049413490594016040F60F61BB
:10543000C0E901146421C0E903148461FEF74CFC47
:1054400008B1FCF7E3F84FF48050009069460A4831
:10545000FEF707FD08B1FCF7D9F8049404A9064843
:105460000594FEF705FC002801D0FCF7CFF806B044
:1054700010BD0000000400401011002010B586B0DF
:10548000002417480094019402940394049413494F
:105490000594016041F61F41C0E901146421C0E98F
:1054A00003148461FEF718FC08B1FCF7AFF84FF461
:1054B0008050009069460A48FEF7D3FC08B1FCF71B
:1054C000A5F8049404A906480594FEF7D1FB00282A
:1054D00001D0FCF79BF806B010BD000000080040AA
:1054E000581100200C4810B50A4901604FF4E13111
:1054F0004160002181600C22C160C0E90412816119
:10550000C161FEF759FF002803D0BDE81040FCF749
:105510007DB810BD00380140A01300200C4810B524
:105520000A4901604FF4E1314160002181600C22A1
:10553000C160C0E904128161C161FEF73DFF00282E
:1055400003D0BDE81040FCF761B810BD0044004036
:10555000E81300200C4810B50A4901604FF4E1310E
:105560004160002181600C22C160C0E904128161A8
:10557000C161FEF721FF002803D0BDE81040FCF711
:1055800045B810BD0048004030140020FEE7000080
:1055900038B50B49002000F049FB094C09A0641EF6
:1055A000617801F091F9002000904FF4E133024658
:1055B000617802F01FFCBDE8384002F03BBA000001
:1055C0001D000020536C61766541646472657373DD
:1055D0003D25640A0000000070B5224C20780026AA
:1055E00030B12670FBF720FEFFF7D2FBFBF752FD30
:1055F000A0781D4D90B1A670A97C6170002001F0CB
:105600004DF90A20FCF7E2FF02F004FA02F0F2F989
:10561000FFF7BEFF6178154805F0AEF82878C0079F
:1056200001D0012100E000210120FFF745FC28788E
:10563000800701D5012100E000210220FFF73CFC9A
:105640002878400701D5012000E00020FBF796FEF6
:105650002878000701D5012000E00020BDE8704057
:1056600000F0F2B91C000020201600209C09002048
:10567000FEE70020AFF3008070B506465FF000043F
:1056800004F1B000C0B201F0E5F8002001F0E2F84A
:10569000102001F0DFF80025304601F0EDF86D1C18
:1056A000EDB2802DF8D3641CE4B2082CE8D370BDB1
:1056B00010B50120FCF78AFFAE2001F0CBF82020C6
:1056C00001F0C8F8102001F0C5F8B02001F0C2F8D0
:1056D000C82001F0BFF8002001F0BCF8102001F054
:1056E000B9F8402001F0B6F8812001F0B3F8FF20AE
:1056F00001F0B0F8A12001F0ADF8A62001F0AAF861
:10570000A82001F0A7F83F2001F0A4F8A42001F0A0
:10571000A1F8D32001F09EF8002001F09BF8D520DD
:1057200001F098F8F02001F095F8D92001F092F8F6
:10573000222001F08FF8DA2001F08CF8122001F01D
:1057400089F8DB2001F086F8202001F083F88D2015
:1057500001F080F8142001F07DF8BDE81040AF2082
:1057600001F078B810B50446B031C8B201F072F853
:10577000102040EA141001F06DF804F00F00BDE8AD
:10578000104040F0010001F065B800002DE9F0473D
:10579000002591468A460446012B22D0DFF8BC80C2
:1057A000022B24D155E02038C7B27E2C04D90AF14F
:1057B0000100002400F0FF0A51462046FFF7D2FF07
:1057C00007EB4700002608EB4007B85D01F054F8EE
:1057D000761CF6B2062EF8D3A41D6D1CE4B2EDB211
:1057E00001E0DFF87C8019F805000028DBD1BDE876
:1057F000F0872038C7B2782C04D90AF101000024C0
:1058000000F0FF0A51462046FFF7ACFF5FF00006AC
:1058100006EB071118F8010001F02EF8761CF6B21D
:10582000082EF5D30AF10100C1B22046FFF79AFF16
:105830005FF0000606EB071101EB0800007A01F0AB
:105840001BF8761CF6B2082EF4D308346D1CE4B2B3
:10585000EDB219F805000028CBD1C8E7C8B200089E
:10586000A0B0000810B505F09BF8002010BD10B5E1
:10587000044602F01BFE204602F0D8FD002010BDB9
:1058800010B5044602F0CEFF204602F08FFF002044
:1058900010BD0000D0F80812097869B900210A4645
:1058A00006E000BFD0F80C3243F82120491CC9B2F1
:1058B00090F805328B42F5D80020704730B401EBE8
:1058C000C102846802254FF0FF3305EB42056353A4
:1058D00000238468062505EB4202A35230BCC9B2FE
:1058E00004F03EBE30B401EBC102846804254FF0E1
:1058F000FF3305EB420563538368C9B213F81240C6
:1059000024F0010403F8124030BC04F029BE00006A
:105910002DE9FC41064640694FF4C0550489B06941
:105920000789C4B1DFF83C80BC4214D801AB6A4699
:105930002946304604F009FE009838B9019828B18C
:10594000C0F80880C0F80C80C0F814806D1C641C7E
:10595000ADB2A4B2E8E73046BDE8FC41002101F059
:1059600024BD0000DB5F00082DE9F04704464069D4
:1059700000260589A069B0F8088035BBBDE8F0872E
:10598000A16806EBC607022000EB470931F90900C0
:10599000FBF7B6FDA26822F80900A168042000EB1D
:1059A000470931F90900FBF7ABFDA268761CF6B296
:1059B00022F80900A1680020062201F81700A1685A
:1059C00002EB47026D1C8852ADB24545D8D9D5E7E8
:1059D00070473EB50446D0F8A4000088A8B12068FE
:1059E0006946007800F5E060ADF8000001208DF810
:1059F000030000208DF8020094F878008DF8040070
:105A0000D4F8E00101F058FF3EBD34F9A80FFBF7D0
:105A100077FD20803EBDD0E94010814201D10120B8
:105A2000704700207047D0F80411D0F80001491CDD
:105A3000CA1701EB126222F0FF02891A814201D1DA
:105A40000120704700207047064B012806D000282F
:105A500006D1002202211846FCF756BF0122F9E7C1
:105A600070470000000C0140010901EB810100F0CA
:105A70000F0000EB4100C0B2704770B50446FCF760
:105A800049FF05464FF47A7606E0FCF743FF401BDA
:105A9000B04201D9032070BD206840688006F4D56B
:105AA0002068416841F010014160002070BD000095
:105AB00070B504460068416821F010014160FCF7B0
:105AC00029FF05464FF47A7607E000BFFCF722FF76
:105AD000401BB04201D9032070BD20684068800699
